{
  "contractName": "SBT",
  "abi": [
    {
      "inputs": [
        {
          "internalType": "string",
          "name": "name_",
          "type": "string"
        },
        {
          "internalType": "string",
          "name": "symbol_",
          "type": "string"
        },
        {
          "internalType": "address",
          "name": "gatewayTokenContract",
          "type": "address"
        },
        {
          "internalType": "uint256",
          "name": "gatekeeperNetwork",
          "type": "uint256"
        }
      ],
      "stateMutability": "nonpayable",
      "type": "constructor"
    },
    {
      "inputs": [
        {
          "internalType": "address",
          "name": "gatewayToken",
          "type": "address"
        }
      ],
      "name": "IsGated__InvalidGateway",
      "type": "error"
    },
    {
      "inputs": [
        {
          "internalType": "address",
          "name": "gatewayToken",
          "type": "address"
        }
      ],
      "name": "IsGated__InvalidGatewayToken",
      "type": "error"
    },
    {
      "anonymous": false,
      "inputs": [
        {
          "indexed": true,
          "internalType": "address",
          "name": "owner",
          "type": "address"
        },
        {
          "indexed": true,
          "internalType": "address",
          "name": "approved",
          "type": "address"
        },
        {
          "indexed": true,
          "internalType": "uint256",
          "name": "tokenId",
          "type": "uint256"
        }
      ],
      "name": "Approval",
      "type": "event"
    },
    {
      "anonymous": false,
      "inputs": [
        {
          "indexed": true,
          "internalType": "address",
          "name": "from",
          "type": "address"
        },
        {
          "indexed": true,
          "internalType": "address",
          "name": "to",
          "type": "address"
        },
        {
          "indexed": true,
          "internalType": "uint256",
          "name": "time",
          "type": "uint256"
        }
      ],
      "name": "Blacklisting",
      "type": "event"
    },
    {
      "anonymous": false,
      "inputs": [
        {
          "indexed": true,
          "internalType": "address",
          "name": "from",
          "type": "address"
        },
        {
          "indexed": true,
          "internalType": "address",
          "name": "to",
          "type": "address"
        },
        {
          "indexed": true,
          "internalType": "uint256",
          "name": "tokenId",
          "type": "uint256"
        }
      ],
      "name": "Transfer",
      "type": "event"
    },
    {
      "anonymous": false,
      "inputs": [
        {
          "indexed": true,
          "internalType": "address",
          "name": "from",
          "type": "address"
        },
        {
          "indexed": true,
          "internalType": "address",
          "name": "to",
          "type": "address"
        },
        {
          "indexed": true,
          "internalType": "uint256",
          "name": "time",
          "type": "uint256"
        }
      ],
      "name": "Welcoming",
      "type": "event"
    },
    {
      "inputs": [],
      "name": "name",
      "outputs": [
        {
          "internalType": "string",
          "name": "",
          "type": "string"
        }
      ],
      "stateMutability": "view",
      "type": "function",
      "constant": true
    },
    {
      "inputs": [],
      "name": "symbol",
      "outputs": [
        {
          "internalType": "string",
          "name": "",
          "type": "string"
        }
      ],
      "stateMutability": "view",
      "type": "function",
      "constant": true
    },
    {
      "inputs": [
        {
          "internalType": "address",
          "name": "account",
          "type": "address"
        }
      ],
      "name": "isTokenHolder",
      "outputs": [
        {
          "internalType": "bool",
          "name": "",
          "type": "bool"
        }
      ],
      "stateMutability": "view",
      "type": "function",
      "constant": true
    },
    {
      "inputs": [
        {
          "internalType": "address",
          "name": "account",
          "type": "address"
        }
      ],
      "name": "tokenOwned",
      "outputs": [
        {
          "internalType": "uint256",
          "name": "",
          "type": "uint256"
        }
      ],
      "stateMutability": "view",
      "type": "function",
      "constant": true
    },
    {
      "inputs": [
        {
          "internalType": "uint256",
          "name": "tokenId",
          "type": "uint256"
        },
        {
          "internalType": "address",
          "name": "account",
          "type": "address"
        }
      ],
      "name": "isApproved",
      "outputs": [
        {
          "internalType": "bool",
          "name": "",
          "type": "bool"
        }
      ],
      "stateMutability": "view",
      "type": "function",
      "constant": true
    },
    {
      "inputs": [
        {
          "internalType": "uint256",
          "name": "tokenId",
          "type": "uint256"
        }
      ],
      "name": "tokenURI",
      "outputs": [
        {
          "internalType": "string",
          "name": "",
          "type": "string"
        }
      ],
      "stateMutability": "view",
      "type": "function",
      "constant": true
    },
    {
      "inputs": [
        {
          "internalType": "uint256",
          "name": "tokenId",
          "type": "uint256"
        },
        {
          "internalType": "address",
          "name": "contractAddress",
          "type": "address"
        }
      ],
      "name": "getRecordURI",
      "outputs": [
        {
          "internalType": "string",
          "name": "",
          "type": "string"
        }
      ],
      "stateMutability": "view",
      "type": "function",
      "constant": true
    },
    {
      "inputs": [],
      "name": "totalTokenCount",
      "outputs": [
        {
          "internalType": "uint256",
          "name": "",
          "type": "uint256"
        }
      ],
      "stateMutability": "view",
      "type": "function",
      "constant": true
    },
    {
      "inputs": [],
      "name": "contractOwner",
      "outputs": [
        {
          "internalType": "address",
          "name": "",
          "type": "address"
        }
      ],
      "stateMutability": "view",
      "type": "function",
      "constant": true
    },
    {
      "inputs": [],
      "name": "claimContract",
      "outputs": [
        {
          "internalType": "address",
          "name": "",
          "type": "address"
        }
      ],
      "stateMutability": "view",
      "type": "function",
      "constant": true
    },
    {
      "inputs": [],
      "name": "AllVerifiedContracts",
      "outputs": [
        {
          "internalType": "address[]",
          "name": "",
          "type": "address[]"
        }
      ],
      "stateMutability": "view",
      "type": "function",
      "constant": true
    },
    {
      "inputs": [
        {
          "internalType": "address",
          "name": "account",
          "type": "address"
        }
      ],
      "name": "isVerified",
      "outputs": [
        {
          "internalType": "bool",
          "name": "",
          "type": "bool"
        }
      ],
      "stateMutability": "view",
      "type": "function",
      "constant": true
    },
    {
      "inputs": [
        {
          "internalType": "string",
          "name": "tokenUri",
          "type": "string"
        }
      ],
      "name": "mint",
      "outputs": [],
      "stateMutability": "nonpayable",
      "type": "function"
    },
    {
      "inputs": [
        {
          "internalType": "address",
          "name": "account",
          "type": "address"
        }
      ],
      "name": "approve",
      "outputs": [],
      "stateMutability": "nonpayable",
      "type": "function"
    },
    {
      "inputs": [
        {
          "internalType": "address",
          "name": "account",
          "type": "address"
        }
      ],
      "name": "revoke",
      "outputs": [],
      "stateMutability": "nonpayable",
      "type": "function"
    },
    {
      "inputs": [],
      "name": "revokeAll",
      "outputs": [],
      "stateMutability": "nonpayable",
      "type": "function"
    },
    {
      "inputs": [
        {
          "internalType": "address",
          "name": "account",
          "type": "address"
        },
        {
          "internalType": "uint256",
          "name": "tokenId",
          "type": "uint256"
        },
        {
          "internalType": "string",
          "name": "tokenUri",
          "type": "string"
        }
      ],
      "name": "addRecordURI",
      "outputs": [],
      "stateMutability": "nonpayable",
      "type": "function"
    },
    {
      "inputs": [
        {
          "internalType": "address",
          "name": "account",
          "type": "address"
        }
      ],
      "name": "updateClaimContract",
      "outputs": [],
      "stateMutability": "nonpayable",
      "type": "function"
    },
    {
      "inputs": [
        {
          "internalType": "address",
          "name": "account",
          "type": "address"
        }
      ],
      "name": "welcomeContract",
      "outputs": [],
      "stateMutability": "nonpayable",
      "type": "function"
    },
    {
      "inputs": [
        {
          "internalType": "address",
          "name": "account",
          "type": "address"
        }
      ],
      "name": "blacklistContract",
      "outputs": [],
      "stateMutability": "nonpayable",
      "type": "function"
    },
    {
      "inputs": [
        {
          "internalType": "uint256",
          "name": "tokenId",
          "type": "uint256"
        },
        {
          "internalType": "address",
          "name": "prevOwner",
          "type": "address"
        },
        {
          "internalType": "address",
          "name": "reclaimer",
          "type": "address"
        }
      ],
      "name": "reclaimToken",
      "outputs": [],
      "stateMutability": "nonpayable",
      "type": "function"
    }
  ],
  "bytecode": "0x60806040523480156200001157600080fd5b5060405162003b5338038062003b53833981810160405281019062000037919062000370565b81818383816000806101000a81548173ffffffffffffffffffffffffffffffffffffffff021916908373ffffffffffffffffffffffffffffffffffffffff16021790555080600181905550505081600260006101000a81548173ffffffffffffffffffffffffffffffffffffffff021916908373ffffffffffffffffffffffffffffffffffffffff1602179055508060038190555050508360049081620000df919062000661565b508260059081620000f1919062000661565b5033600a60006101000a81548173ffffffffffffffffffffffffffffffffffffffff021916908373ffffffffffffffffffffffffffffffffffffffff1602179055505050505062000748565b6000604051905090565b600080fd5b600080fd5b600080fd5b600080fd5b6000601f19601f8301169050919050565b7f4e487b7100000000000000000000000000000000000000000000000000000000600052604160045260246000fd5b620001a6826200015b565b810181811067ffffffffffffffff82111715620001c857620001c76200016c565b5b80604052505050565b6000620001dd6200013d565b9050620001eb82826200019b565b919050565b600067ffffffffffffffff8211156200020e576200020d6200016c565b5b62000219826200015b565b9050602081019050919050565b60005b838110156200024657808201518184015260208101905062000229565b60008484015250505050565b6000620002696200026384620001f0565b620001d1565b90508281526020810184848401111562000288576200028762000156565b5b6200029584828562000226565b509392505050565b600082601f830112620002b557620002b462000151565b5b8151620002c784826020860162000252565b91505092915050565b600073ffffffffffffffffffffffffffffffffffffffff82169050919050565b6000620002fd82620002d0565b9050919050565b6200030f81620002f0565b81146200031b57600080fd5b50565b6000815190506200032f8162000304565b92915050565b6000819050919050565b6200034a8162000335565b81146200035657600080fd5b50565b6000815190506200036a816200033f565b92915050565b600080600080608085870312156200038d576200038c62000147565b5b600085015167ffffffffffffffff811115620003ae57620003ad6200014c565b5b620003bc878288016200029d565b945050602085015167ffffffffffffffff811115620003e057620003df6200014c565b5b620003ee878288016200029d565b935050604062000401878288016200031e565b9250506060620004148782880162000359565b91505092959194509250565b600081519050919050565b7f4e487b7100000000000000000000000000000000000000000000000000000000600052602260045260246000fd5b600060028204905060018216806200047357607f821691505b6020821081036200048957620004886200042b565b5b50919050565b60008190508160005260206000209050919050565b60006020601f8301049050919050565b600082821b905092915050565b600060088302620004f37fffffffffffffffffffffffffffffffffffffffffffffffffffffffffffffffff82620004b4565b620004ff8683620004b4565b95508019841693508086168417925050509392505050565b6000819050919050565b6000620005426200053c620005368462000335565b62000517565b62000335565b9050919050565b6000819050919050565b6200055e8362000521565b620005766200056d8262000549565b848454620004c1565b825550505050565b600090565b6200058d6200057e565b6200059a81848462000553565b505050565b5b81811015620005c257620005b660008262000583565b600181019050620005a0565b5050565b601f8211156200061157620005db816200048f565b620005e684620004a4565b81016020851015620005f6578190505b6200060e6200060585620004a4565b8301826200059f565b50505b505050565b600082821c905092915050565b6000620006366000198460080262000616565b1980831691505092915050565b600062000651838362000623565b9150826002028217905092915050565b6200066c8262000420565b67ffffffffffffffff8111156200068857620006876200016c565b5b6200069482546200045a565b620006a1828285620005c6565b600060209050601f831160018114620006d95760008415620006c4578287015190505b620006d0858262000643565b86555062000740565b601f198416620006e9866200048f565b60005b828110156200071357848901518255600182019150602085019450602081019050620006ec565b868310156200073357848901516200072f601f89168262000623565b8355505b6001600288020188555050505b505050505050565b6133fb80620007586000396000f3fe608060405234801561001057600080fd5b50600436106101375760003560e01c8063966595dc116100b8578063d85d3d271161007c578063d85d3d2714610350578063daea85c51461036c578063e2dd857614610388578063ea9fa6e7146103a6578063f1794d7e146103c2578063fc3f63b7146103de57610137565b8063966595dc14610298578063a340fff4146102c8578063b9209e33146102d2578063c87b56dd14610302578063ce606ee01461033257610137565b806366345da4116100ff57806366345da4146101f257806366e3fe2a1461021057806374a8f10314610240578063764912ef1461025c57806395d89b411461027a57610137565b806306fdde031461013c57806349b323aa1461015a57806356c3163714610176578063571621e5146101a657806365731fe9146101c2575b600080fd5b6101446103fa565b6040516101519190612342565b60405180910390f35b610174600480360381019061016f91906123d6565b61048c565b005b610190600480360381019061018b9190612439565b6107ff565b60405161019d9190612494565b60405180910390f35b6101c060048036038101906101bb91906124af565b610867565b005b6101dc60048036038101906101d791906123d6565b610d30565b6040516101e99190612494565b60405180910390f35b6101fa610d7b565b6040516102079190612511565b60405180910390f35b61022a60048036038101906102259190612439565b610da5565b6040516102379190612342565b60405180910390f35b61025a600480360381019061025591906123d6565b610e88565b005b6102646110d3565b604051610271919061253b565b60405180910390f35b6102826110dd565b60405161028f9190612342565b60405180910390f35b6102b260048036038101906102ad91906123d6565b61116f565b6040516102bf919061253b565b60405180910390f35b6102d06111b8565b005b6102ec60048036038101906102e791906123d6565b61134e565b6040516102f99190612494565b60405180910390f35b61031c60048036038101906103179190612556565b6113f9565b6040516103299190612342565b60405180910390f35b61033a6114db565b6040516103479190612511565b60405180910390f35b61036a600480360381019061036591906126b8565b611505565b005b610386600480360381019061038191906123d6565b61181c565b005b610390611b72565b60405161039d91906127bf565b60405180910390f35b6103c060048036038101906103bb91906123d6565b611c00565b005b6103dc60048036038101906103d791906123d6565b611e20565b005b6103f860048036038101906103f391906127e1565b611fc3565b005b6060600480546104099061287f565b80601f01602080910402602001604051908101604052809291908181526020018280546104359061287f565b80156104825780601f1061045757610100808354040283529160200191610482565b820191906000526020600020905b81548152906001019060200180831161046557829003601f168201915b5050505050905090565b33600a60009054906101000a900473ffffffffffffffffffffffffffffffffffffffff1673ffffffffffffffffffffffffffffffffffffffff168173ffffffffffffffffffffffffffffffffffffffff161461051d576040517f08c379a000000000000000000000000000000000000000000000000000000000815260040161051490612922565b60405180910390fd5b81600073ffffffffffffffffffffffffffffffffffffffff168173ffffffffffffffffffffffffffffffffffffffff160361058d576040517f08c379a0000000000000000000000000000000000000000000000000000000008152600401610584906129b4565b60405180910390fd5b8260008173ffffffffffffffffffffffffffffffffffffffff163b116105e8576040517f08c379a00000000000000000000000000000000000000000000000000000000081526004016105df90612a6c565b60405180910390fd5b600061067a600c80548060200260200160405190810160405280929190818152602001828054801561066f57602002820191906000526020600020905b8160009054906101000a900473ffffffffffffffffffffffffffffffffffffffff1673ffffffffffffffffffffffffffffffffffffffff1681526020019060010190808311610625575b5050505050866121af565b905060008190505b6001600c805490506106949190612abb565b81101561075557600c6001826106aa9190612aef565b815481106106bb576106ba612b23565b5b9060005260206000200160009054906101000a900473ffffffffffffffffffffffffffffffffffffffff16600c82815481106106fa576106f9612b23565b5b9060005260206000200160006101000a81548173ffffffffffffffffffffffffffffffffffffffff021916908373ffffffffffffffffffffffffffffffffffffffff160217905550808061074d90612b52565b915050610682565b50600c80548061076857610767612b9a565b5b6001900381819060005260206000200160006101000a81549073ffffffffffffffffffffffffffffffffffffffff02191690559055428573ffffffffffffffffffffffffffffffffffffffff163073ffffffffffffffffffffffffffffffffffffffff167f31aa85030f2ea4aebae73e40795e8201f9d2b9fe760d68a36a992f5f8e79ddf760405160405180910390a45050505050565b60006008600084815260200190815260200160002060008373ffffffffffffffffffffffffffffffffffffffff1673ffffffffffffffffffffffffffffffffffffffff16815260200190815260200160002060009054906101000a900460ff16905092915050565b806000600260009054906101000a900473ffffffffffffffffffffffffffffffffffffffff1690508073ffffffffffffffffffffffffffffffffffffffff1663ff17e232836003546040518363ffffffff1660e01b81526004016108cc929190612bc9565b602060405180830381865afa1580156108e9573d6000803e3d6000fd5b505050506040513d601f19601f8201168201806040525081019061090d9190612c1e565b61097057600260009054906101000a900473ffffffffffffffffffffffffffffffffffffffff166040517f4ad0dfe50000000000000000000000000000000000000000000000000000000081526004016109679190612511565b60405180910390fd5b33600b60009054906101000a900473ffffffffffffffffffffffffffffffffffffffff1673ffffffffffffffffffffffffffffffffffffffff168173ffffffffffffffffffffffffffffffffffffffff1614610a01576040517f08c379a00000000000000000000000000000000000000000000000000000000081526004016109f890612cbd565b60405180910390fd5b848680600760008473ffffffffffffffffffffffffffffffffffffffff1673ffffffffffffffffffffffffffffffffffffffff1681526020019081526020016000205414610a84576040517f08c379a0000000000000000000000000000000000000000000000000000000008152600401610a7b90612d4f565b60405180910390fd5b85600073ffffffffffffffffffffffffffffffffffffffff168173ffffffffffffffffffffffffffffffffffffffff1603610af4576040517f08c379a0000000000000000000000000000000000000000000000000000000008152600401610aeb906129b4565b60405180910390fd5b866000600760008373ffffffffffffffffffffffffffffffffffffffff1673ffffffffffffffffffffffffffffffffffffffff1681526020019081526020016000205414610b77576040517f08c379a0000000000000000000000000000000000000000000000000000000008152600401610b6e90612de1565b60405180910390fd5b600760008a73ffffffffffffffffffffffffffffffffffffffff1673ffffffffffffffffffffffffffffffffffffffff1681526020019081526020016000206000905560005b600c80549050811015610c84576000600860008d81526020019081526020016000206000600c8481548110610bf557610bf4612b23565b5b9060005260206000200160009054906101000a900473ffffffffffffffffffffffffffffffffffffffff1673ffffffffffffffffffffffffffffffffffffffff1673ffffffffffffffffffffffffffffffffffffffff16815260200190815260200160002060006101000a81548160ff0219169083151502179055508080610c7c90612b52565b915050610bbd565b5089600760008a73ffffffffffffffffffffffffffffffffffffffff1673ffffffffffffffffffffffffffffffffffffffff16815260200190815260200160002081905550898873ffffffffffffffffffffffffffffffffffffffff168a73ffffffffffffffffffffffffffffffffffffffff167fddf252ad1be2c89b69c2b068fc378daa952ba7f163c4a11628f55a4df523b3ef60405160405180910390a450505050505050505050565b600080600760008473ffffffffffffffffffffffffffffffffffffffff1673ffffffffffffffffffffffffffffffffffffffff16815260200190815260200160002054119050919050565b6000600b60009054906101000a900473ffffffffffffffffffffffffffffffffffffffff16905090565b60606009600084815260200190815260200160002060008373ffffffffffffffffffffffffffffffffffffffff1673ffffffffffffffffffffffffffffffffffffffff1681526020019081526020016000208054610e029061287f565b80601f0160208091040260200160405190810160405280929190818152602001828054610e2e9061287f565b8015610e7b5780601f10610e5057610100808354040283529160200191610e7b565b820191906000526020600020905b815481529060010190602001808311610e5e57829003601f168201915b5050505050905092915050565b336000600760008373ffffffffffffffffffffffffffffffffffffffff1673ffffffffffffffffffffffffffffffffffffffff1681526020019081526020016000205411610f0b576040517f08c379a0000000000000000000000000000000000000000000000000000000008152600401610f0290612e73565b60405180910390fd5b33828073ffffffffffffffffffffffffffffffffffffffff168273ffffffffffffffffffffffffffffffffffffffff1603610f7b576040517f08c379a0000000000000000000000000000000000000000000000000000000008152600401610f7290612edf565b60405180910390fd5b6000600760003373ffffffffffffffffffffffffffffffffffffffff1673ffffffffffffffffffffffffffffffffffffffff168152602001908152602001600020549050600115156008600083815260200190815260200160002060008773ffffffffffffffffffffffffffffffffffffffff1673ffffffffffffffffffffffffffffffffffffffff16815260200190815260200160002060009054906101000a900460ff16151514611063576040517f08c379a000000000000000000000000000000000000000000000000000000000815260040161105a90612f71565b60405180910390fd5b60006008600083815260200190815260200160002060008773ffffffffffffffffffffffffffffffffffffffff1673ffffffffffffffffffffffffffffffffffffffff16815260200190815260200160002060006101000a81548160ff0219169083151502179055505050505050565b6000600654905090565b6060600580546110ec9061287f565b80601f01602080910402602001604051908101604052809291908181526020018280546111189061287f565b80156111655780601f1061113a57610100808354040283529160200191611165565b820191906000526020600020905b81548152906001019060200180831161114857829003601f168201915b5050505050905090565b6000600760008373ffffffffffffffffffffffffffffffffffffffff1673ffffffffffffffffffffffffffffffffffffffff168152602001908152602001600020549050919050565b336000600760008373ffffffffffffffffffffffffffffffffffffffff1673ffffffffffffffffffffffffffffffffffffffff168152602001908152602001600020541161123b576040517f08c379a000000000000000000000000000000000000000000000000000000000815260040161123290612e73565b60405180910390fd5b6000600760003373ffffffffffffffffffffffffffffffffffffffff1673ffffffffffffffffffffffffffffffffffffffff16815260200190815260200160002054905060005b600c80549050811015611349576000600860008481526020019081526020016000206000600c84815481106112ba576112b9612b23565b5b9060005260206000200160009054906101000a900473ffffffffffffffffffffffffffffffffffffffff1673ffffffffffffffffffffffffffffffffffffffff1673ffffffffffffffffffffffffffffffffffffffff16815260200190815260200160002060006101000a81548160ff021916908315150217905550808061134190612b52565b915050611282565b505050565b6000806000905060005b600c805490508110156113ef578373ffffffffffffffffffffffffffffffffffffffff16600c60008154811061139157611390612b23565b5b9060005260206000200160009054906101000a900473ffffffffffffffffffffffffffffffffffffffff1673ffffffffffffffffffffffffffffffffffffffff16036113dc57600191505b80806113e790612b52565b915050611358565b5080915050919050565b60606009600083815260200190815260200160002060003073ffffffffffffffffffffffffffffffffffffffff1673ffffffffffffffffffffffffffffffffffffffff16815260200190815260200160002080546114569061287f565b80601f01602080910402602001604051908101604052809291908181526020018280546114829061287f565b80156114cf5780601f106114a4576101008083540402835291602001916114cf565b820191906000526020600020905b8154815290600101906020018083116114b257829003601f168201915b50505050509050919050565b6000600a60009054906101000a900473ffffffffffffffffffffffffffffffffffffffff16905090565b60008060009054906101000a900473ffffffffffffffffffffffffffffffffffffffff1690508073ffffffffffffffffffffffffffffffffffffffff1663ff17e232336001546040518363ffffffff1660e01b8152600401611568929190612bc9565b602060405180830381865afa158015611585573d6000803e3d6000fd5b505050506040513d601f19601f820116820180604052508101906115a99190612c1e565b61160a5760008054906101000a900473ffffffffffffffffffffffffffffffffffffffff166040517fabd937f60000000000000000000000000000000000000000000000000000000081526004016116019190612511565b60405180910390fd5b33600073ffffffffffffffffffffffffffffffffffffffff168173ffffffffffffffffffffffffffffffffffffffff160361167a576040517f08c379a0000000000000000000000000000000000000000000000000000000008152600401611671906129b4565b60405180910390fd5b336000600760008373ffffffffffffffffffffffffffffffffffffffff1673ffffffffffffffffffffffffffffffffffffffff16815260200190815260200160002054146116fd576040517f08c379a00000000000000000000000000000000000000000000000000000000081526004016116f490612de1565b60405180910390fd5b6000600160065461170e9190612aef565b905080600760003373ffffffffffffffffffffffffffffffffffffffff1673ffffffffffffffffffffffffffffffffffffffff16815260200190815260200160002081905550846009600083815260200190815260200160002060003073ffffffffffffffffffffffffffffffffffffffff1673ffffffffffffffffffffffffffffffffffffffff16815260200190815260200160002090816117b1919061313d565b5080600681905550803373ffffffffffffffffffffffffffffffffffffffff16600073ffffffffffffffffffffffffffffffffffffffff167fddf252ad1be2c89b69c2b068fc378daa952ba7f163c4a11628f55a4df523b3ef60405160405180910390a45050505050565b336000600760008373ffffffffffffffffffffffffffffffffffffffff1673ffffffffffffffffffffffffffffffffffffffff168152602001908152602001600020541161189f576040517f08c379a000000000000000000000000000000000000000000000000000000000815260040161189690612e73565b60405180910390fd5b33828073ffffffffffffffffffffffffffffffffffffffff168273ffffffffffffffffffffffffffffffffffffffff160361190f576040517f08c379a000000000000000000000000000000000000000000000000000000000815260040161190690612edf565b60405180910390fd5b8360008173ffffffffffffffffffffffffffffffffffffffff163b1161196a576040517f08c379a000000000000000000000000000000000000000000000000000000000815260040161196190612a6c565b60405180910390fd5b60006119758661134e565b90508015611b2f576000600760003373ffffffffffffffffffffffffffffffffffffffff1673ffffffffffffffffffffffffffffffffffffffff168152602001908152602001600020549050600015156008600083815260200190815260200160002060008973ffffffffffffffffffffffffffffffffffffffff1673ffffffffffffffffffffffffffffffffffffffff16815260200190815260200160002060009054906101000a900460ff16151514611a65576040517f08c379a0000000000000000000000000000000000000000000000000000000008152600401611a5c90613281565b60405180910390fd5b60016008600083815260200190815260200160002060008973ffffffffffffffffffffffffffffffffffffffff1673ffffffffffffffffffffffffffffffffffffffff16815260200190815260200160002060006101000a81548160ff021916908315150217905550808773ffffffffffffffffffffffffffffffffffffffff163373ffffffffffffffffffffffffffffffffffffffff167f8c5be1e5ebec7d5bd14f71427d1e84f3dd0314c0f7b2291e5b200ac8c7c3b92560405160405180910390a450611b6a565b6040517f08c379a0000000000000000000000000000000000000000000000000000000008152600401611b6190613313565b60405180910390fd5b505050505050565b6060600c805480602002602001604051908101604052809291908181526020018280548015611bf657602002820191906000526020600020905b8160009054906101000a900473ffffffffffffffffffffffffffffffffffffffff1673ffffffffffffffffffffffffffffffffffffffff1681526020019060010190808311611bac575b5050505050905090565b33600a60009054906101000a900473ffffffffffffffffffffffffffffffffffffffff1673ffffffffffffffffffffffffffffffffffffffff168173ffffffffffffffffffffffffffffffffffffffff1614611c91576040517f08c379a0000000000000000000000000000000000000000000000000000000008152600401611c8890612922565b60405180910390fd5b81600073ffffffffffffffffffffffffffffffffffffffff168173ffffffffffffffffffffffffffffffffffffffff1603611d01576040517f08c379a0000000000000000000000000000000000000000000000000000000008152600401611cf8906129b4565b60405180910390fd5b8260008173ffffffffffffffffffffffffffffffffffffffff163b11611d5c576040517f08c379a0000000000000000000000000000000000000000000000000000000008152600401611d5390612a6c565b60405180910390fd5b600c849080600181540180825580915050600190039060005260206000200160009091909190916101000a81548173ffffffffffffffffffffffffffffffffffffffff021916908373ffffffffffffffffffffffffffffffffffffffff160217905550428473ffffffffffffffffffffffffffffffffffffffff163073ffffffffffffffffffffffffffffffffffffffff167f83834ad44d17ca9d2e4eaa5592bf7ff069d255a667a87383cacd213f53a2c87760405160405180910390a450505050565b33600a60009054906101000a900473ffffffffffffffffffffffffffffffffffffffff1673ffffffffffffffffffffffffffffffffffffffff168173ffffffffffffffffffffffffffffffffffffffff1614611eb1576040517f08c379a0000000000000000000000000000000000000000000000000000000008152600401611ea890612922565b60405180910390fd5b81600073ffffffffffffffffffffffffffffffffffffffff168173ffffffffffffffffffffffffffffffffffffffff1603611f21576040517f08c379a0000000000000000000000000000000000000000000000000000000008152600401611f18906129b4565b60405180910390fd5b8260008173ffffffffffffffffffffffffffffffffffffffff163b11611f7c576040517f08c379a0000000000000000000000000000000000000000000000000000000008152600401611f7390612a6c565b60405180910390fd5b83600b60006101000a81548173ffffffffffffffffffffffffffffffffffffffff021916908373ffffffffffffffffffffffffffffffffffffffff16021790555050505050565b3360008173ffffffffffffffffffffffffffffffffffffffff163b1161201e576040517f08c379a000000000000000000000000000000000000000000000000000000000815260040161201590612a6c565b60405180910390fd5b8233600115156008600084815260200190815260200160002060008373ffffffffffffffffffffffffffffffffffffffff1673ffffffffffffffffffffffffffffffffffffffff16815260200190815260200160002060009054906101000a900460ff161515146120c4576040517f08c379a00000000000000000000000000000000000000000000000000000000081526004016120bb90612f71565b60405180910390fd5b858580600760008473ffffffffffffffffffffffffffffffffffffffff1673ffffffffffffffffffffffffffffffffffffffff1681526020019081526020016000205414612147576040517f08c379a000000000000000000000000000000000000000000000000000000000815260040161213e90612d4f565b60405180910390fd5b856009600089815260200190815260200160002060003373ffffffffffffffffffffffffffffffffffffffff1673ffffffffffffffffffffffffffffffffffffffff16815260200190815260200160002090816121a4919061313d565b505050505050505050565b6000807fffffffffffffffffffffffffffffffffffffffffffffffffffffffffffffffff905060005b8451811015612245578373ffffffffffffffffffffffffffffffffffffffff1685828151811061220b5761220a612b23565b5b602002602001015173ffffffffffffffffffffffffffffffffffffffff1603612232578091505b808061223d90612b52565b9150506121d8565b507fffffffffffffffffffffffffffffffffffffffffffffffffffffffffffffffff81036122a8576040517f08c379a000000000000000000000000000000000000000000000000000000000815260040161229f906133a5565b60405180910390fd5b8091505092915050565b600081519050919050565b600082825260208201905092915050565b60005b838110156122ec5780820151818401526020810190506122d1565b60008484015250505050565b6000601f19601f8301169050919050565b6000612314826122b2565b61231e81856122bd565b935061232e8185602086016122ce565b612337816122f8565b840191505092915050565b6000602082019050818103600083015261235c8184612309565b905092915050565b6000604051905090565b600080fd5b600080fd5b600073ffffffffffffffffffffffffffffffffffffffff82169050919050565b60006123a382612378565b9050919050565b6123b381612398565b81146123be57600080fd5b50565b6000813590506123d0816123aa565b92915050565b6000602082840312156123ec576123eb61236e565b5b60006123fa848285016123c1565b91505092915050565b6000819050919050565b61241681612403565b811461242157600080fd5b50565b6000813590506124338161240d565b92915050565b600080604083850312156124505761244f61236e565b5b600061245e85828601612424565b925050602061246f858286016123c1565b9150509250929050565b60008115159050919050565b61248e81612479565b82525050565b60006020820190506124a96000830184612485565b92915050565b6000806000606084860312156124c8576124c761236e565b5b60006124d686828701612424565b93505060206124e7868287016123c1565b92505060406124f8868287016123c1565b9150509250925092565b61250b81612398565b82525050565b60006020820190506125266000830184612502565b92915050565b61253581612403565b82525050565b6000602082019050612550600083018461252c565b92915050565b60006020828403121561256c5761256b61236e565b5b600061257a84828501612424565b91505092915050565b600080fd5b600080fd5b7f4e487b7100000000000000000000000000000000000000000000000000000000600052604160045260246000fd5b6125c5826122f8565b810181811067ffffffffffffffff821117156125e4576125e361258d565b5b80604052505050565b60006125f7612364565b905061260382826125bc565b919050565b600067ffffffffffffffff8211156126235761262261258d565b5b61262c826122f8565b9050602081019050919050565b82818337600083830152505050565b600061265b61265684612608565b6125ed565b90508281526020810184848401111561267757612676612588565b5b612682848285612639565b509392505050565b600082601f83011261269f5761269e612583565b5b81356126af848260208601612648565b91505092915050565b6000602082840312156126ce576126cd61236e565b5b600082013567ffffffffffffffff8111156126ec576126eb612373565b5b6126f88482850161268a565b91505092915050565b600081519050919050565b600082825260208201905092915050565b6000819050602082019050919050565b61273681612398565b82525050565b6000612748838361272d565b60208301905092915050565b6000602082019050919050565b600061276c82612701565b612776818561270c565b93506127818361271d565b8060005b838110156127b2578151612799888261273c565b97506127a483612754565b925050600181019050612785565b5085935050505092915050565b600060208201905081810360008301526127d98184612761565b905092915050565b6000806000606084860312156127fa576127f961236e565b5b6000612808868287016123c1565b935050602061281986828701612424565b925050604084013567ffffffffffffffff81111561283a57612839612373565b5b6128468682870161268a565b9150509250925092565b7f4e487b7100000000000000000000000000000000000000000000000000000000600052602260045260246000fd5b6000600282049050600182168061289757607f821691505b6020821081036128aa576128a9612850565b5b50919050565b7f5342545f455252353a2043616c6c6572206973206e6f7420636f6e747261637460008201527f206f776e65720000000000000000000000000000000000000000000000000000602082015250565b600061290c6026836122bd565b9150612917826128b0565b604082019050919050565b6000602082019050818103600083015261293b816128ff565b9050919050565b7f5342545f455252313a20496e76616c69642061646472657373287a65726f292060008201527f7061737365640000000000000000000000000000000000000000000000000000602082015250565b600061299e6026836122bd565b91506129a982612942565b604082019050919050565b600060208201905081810360008301526129cd81612991565b9050919050565b7f5342545f455252383a2063616c6c6572206f72206163636f756e74207061737360008201527f6564206973206e6f7420612076616c696420636f6e7472616374206163636f7560208201527f6e74000000000000000000000000000000000000000000000000000000000000604082015250565b6000612a566042836122bd565b9150612a61826129d4565b606082019050919050565b60006020820190508181036000830152612a8581612a49565b9050919050565b7f4e487b7100000000000000000000000000000000000000000000000000000000600052601160045260246000fd5b6000612ac682612403565b9150612ad183612403565b9250828203905081811115612ae957612ae8612a8c565b5b92915050565b6000612afa82612403565b9150612b0583612403565b9250828201905080821115612b1d57612b1c612a8c565b5b92915050565b7f4e487b7100000000000000000000000000000000000000000000000000000000600052603260045260246000fd5b6000612b5d82612403565b91507fffffffffffffffffffffffffffffffffffffffffffffffffffffffffffffffff8203612b8f57612b8e612a8c565b5b600182019050919050565b7f4e487b7100000000000000000000000000000000000000000000000000000000600052603160045260246000fd5b6000604082019050612bde6000830185612502565b612beb602083018461252c565b9392505050565b612bfb81612479565b8114612c0657600080fd5b50565b600081519050612c1881612bf2565b92915050565b600060208284031215612c3457612c3361236e565b5b6000612c4284828501612c09565b91505092915050565b7f5342545f455252373a2063616c6c6572206973206e6f7420636c61696d20636f60008201527f6e74726163740000000000000000000000000000000000000000000000000000602082015250565b6000612ca76026836122bd565b9150612cb282612c4b565b604082019050919050565b60006020820190508181036000830152612cd681612c9a565b9050919050565b7f5342545f455252343a206163636f756e7420706173736564206973206e6f742060008201527f636f72726573706f6e64696e6720746f6b656e206f776e657200000000000000602082015250565b6000612d396039836122bd565b9150612d4482612cdd565b604082019050919050565b60006020820190508181036000830152612d6881612d2c565b9050919050565b7f5342545f45525231303a206163636f756e7420697320616c726564792061207460008201527f6f6b656e20686f6c646572000000000000000000000000000000000000000000602082015250565b6000612dcb602b836122bd565b9150612dd682612d6f565b604082019050919050565b60006020820190508181036000830152612dfa81612dbe565b9050919050565b7f5342545f455252393a206163636f756e74206973206e6f74206120746f6b656e60008201527f20686f6c64657200000000000000000000000000000000000000000000000000602082015250565b6000612e5d6027836122bd565b9150612e6882612e01565b604082019050919050565b60006020820190508181036000830152612e8c81612e50565b9050919050565b7f5342545f455252333a2053616d65206163636f756e7473206465746563746564600082015250565b6000612ec96020836122bd565b9150612ed482612e93565b602082019050919050565b60006020820190508181036000830152612ef881612ebc565b9050919050565b7f5342545f455252363a2063616c6c6572206f72206163636f756e74207061737360008201527f6564206973206e6f7420617070726f7665000000000000000000000000000000602082015250565b6000612f5b6031836122bd565b9150612f6682612eff565b604082019050919050565b60006020820190508181036000830152612f8a81612f4e565b9050919050565b60008190508160005260206000209050919050565b60006020601f8301049050919050565b600082821b905092915050565b600060088302612ff37fffffffffffffffffffffffffffffffffffffffffffffffffffffffffffffffff82612fb6565b612ffd8683612fb6565b95508019841693508086168417925050509392505050565b6000819050919050565b600061303a61303561303084612403565b613015565b612403565b9050919050565b6000819050919050565b6130548361301f565b61306861306082613041565b848454612fc3565b825550505050565b600090565b61307d613070565b61308881848461304b565b505050565b5b818110156130ac576130a1600082613075565b60018101905061308e565b5050565b601f8211156130f1576130c281612f91565b6130cb84612fa6565b810160208510156130da578190505b6130ee6130e685612fa6565b83018261308d565b50505b505050565b600082821c905092915050565b6000613114600019846008026130f6565b1980831691505092915050565b600061312d8383613103565b9150826002028217905092915050565b613146826122b2565b67ffffffffffffffff81111561315f5761315e61258d565b5b613169825461287f565b6131748282856130b0565b600060209050601f8311600181146131a75760008415613195578287015190505b61319f8582613121565b865550613207565b601f1984166131b586612f91565b60005b828110156131dd578489015182556001820191506020850194506020810190506131b8565b868310156131fa57848901516131f6601f891682613103565b8355505b6001600288020188555050505b505050505050565b7f5342545f45525231313a206163636f756e742070617373656420697320616c7260008201527f6561647920617070726f76656400000000000000000000000000000000000000602082015250565b600061326b602d836122bd565b91506132768261320f565b604082019050919050565b6000602082019050818103600083015261329a8161325e565b9050919050565b7f5342545f45525231323a206163636f756e74206973206e6f742061207665726960008201527f6669656420636f6e747261637400000000000000000000000000000000000000602082015250565b60006132fd602d836122bd565b9150613308826132a1565b604082019050919050565b6000602082019050818103600083015261332c816132f0565b9050919050565b7f5342545f45525231323a2063616e277420626c61636b6c69737420616e20756e60008201527f7665726966696564206163636f756e7400000000000000000000000000000000602082015250565b600061338f6030836122bd565b915061339a82613333565b604082019050919050565b600060208201905081810360008301526133be81613382565b905091905056fea2646970667358221220889825cef141e81db0feb2acbe0eb0ef6445fbfe6af4f861cdc5953bf6085b9f64736f6c63430008110033",
  "immutableReferences": {},
  "source": "// SPDX-License-Identifier: MIT\n\npragma solidity >=0.5.11 < 0.9.0;\n\nimport \"./SbtGated.sol\";\nimport \"@identity.com/gateway-protocol-eth/contracts/Gated.sol\";\n\ninterface ISBT {\n\n    //------READ FUNCTIONS-----//\n    function name() external view returns (string memory);\n    function symbol() external view returns (string memory);\n    function isTokenHolder(address account) external view returns(bool) ;\n    function tokenOwned(address account) external view returns(uint256);\n    function isApproved(uint256 tokenId, address account) external view returns(bool);\n    function tokenURI(uint256 tokenId) external view returns(string memory);\n    function getRecordURI(uint256 tokenId, address contractAddress) external view returns(string memory);\n    function totalTokenCount() external view returns(uint256);\n    function contractOwner() external view returns(address);\n    function claimContract() external view returns(address);\n    function AllVerifiedContracts() external view returns(address [] memory);\n    function isVerified(address account) external view returns(bool);\n\n\n    //-------WRITE FUNCTIONS-----//\n    function mint(string memory tokenUri) external;\n    function approve(address account) external;\n    function revoke(address account) external;\n    function revokeAll() external;\n    function addRecordURI(address account, uint256 tokenId, string memory tokenUri) external;\n    function updateClaimContract(address account) external;\n    function welcomeContract(address account) external;\n    function blacklistContract(address account) external;\n    function reclaimToken(uint256 tokenId, address prevOwner, address reclaimer) external;\n}\n\ncontract SBT is Gated, SbtGated {\n\n    // Token name\n    string private _name;\n\n    // Token symbol\n    string private _symbol;\n\n    // Last token id Minted\n    uint256 private _lastTokenId;\n\n    // Mapping from address to tokenid owned\n    mapping(address => uint256) private _owners;\n\n    // Mapping token to various approved accounts\n    mapping(uint256 => mapping(address => bool)) private _tokenApprovals;\n\n    // Mapping token to various records from verified contracts\n    mapping(uint256 => mapping(address => string)) private _tokenRecords;\n\n    // contract owner\n    address private _contractOwner;\n\n    // contract address of claimcontract(to reclaim token)\n    address private _claimContract;\n\n    // lists of verified contracts that can save record for tokens\n    address[] private _verifiedContracts;\n\n//------EVENTS---------\n\n    event Transfer(address indexed from, address indexed to, uint256 indexed tokenId);\n\n    event Approval(address indexed owner, address indexed approved, uint256 indexed tokenId);\n\n    event Welcoming(address indexed from, address indexed to, uint indexed time);\n\n    event Blacklisting(address indexed from, address indexed to, uint indexed time);\n\n\n    constructor(string memory name_, string memory symbol_, address gatewayTokenContract, uint256 gatekeeperNetwork) Gated(gatewayTokenContract, gatekeeperNetwork) SbtGated(gatewayTokenContract, gatekeeperNetwork) {\n        _name = name_;\n        _symbol = symbol_;\n        _contractOwner = msg.sender;\n    }\n\n//------MODIFIERS---------\n    modifier validateAddress(address account) {\n        require(account != address(0), \"SBT_ERR1: Invalid address(zero) passed\");\n        _;\n    }\n\n    modifier validateDifferentAddress(address from, address to) {\n        require(from != to, \"SBT_ERR3: Same accounts detected\");\n        _;\n    }\n\n    modifier validateTokenOwner(address account, uint256 tokenId) {\n        require(_owners[account] == tokenId, \"SBT_ERR4: account passed is not corresponding token owner\");\n        _;\n    }\n\n    modifier validateContractOwner(address account) {\n        require(account == _contractOwner, \"SBT_ERR5: Caller is not contract owner\");\n        _;\n    }\n\n    modifier validateApproval(uint256 tokenId, address account) {\n        require(_tokenApprovals[tokenId][account] == true, \"SBT_ERR6: caller or account passed is not approve\");\n        _;\n    }\n\n    modifier validateClaimContract(address account) {\n        require(account == _claimContract, \"SBT_ERR7: caller is not claim contract\");\n        _;\n    }\n\n    modifier validateIsContract(address account) {\n        require(account.code.length > 0, \"SBT_ERR8: caller or account passed is not a valid contract account\");\n        _;\n    }\n\n    modifier validateTokenHolder(address account) {\n        require(_owners[account] > uint256(0), \"SBT_ERR9: account is not a token holder\");\n        _;\n    }\n\n    modifier validateNotTokenHolder(address account) {\n        require(_owners[account] == uint256(0), \"SBT_ERR10: account is alredy a token holder\");\n        _;\n    }\n\n\n//-----READ FUNCTIONS-------\n\n    function name() external view returns (string memory) {\n        return _name;\n    }\n\n    function symbol() external view returns (string memory) {\n        return _symbol;\n    }\n\n    function isTokenHolder(address account) external view returns(bool) {\n        return  _owners[account] > uint256(0);\n    }\n\n    function tokenOwned(address account) external view returns(uint256) {\n        return _owners[account];\n    }\n\n    function isApproved(uint256 tokenId, address account) external view returns(bool) {\n        return _tokenApprovals[tokenId][account];\n    }\n\n    function tokenURI(uint256 tokenId) external view returns(string memory) {\n        return _tokenRecords[tokenId][address(this)];\n    }\n\n    function getRecordURI(uint256 tokenId, address contractAddress) external view returns(string memory) {\n        return _tokenRecords[tokenId][contractAddress];\n    }\n\n    function totalTokenCount() external view returns(uint256) {\n        return _lastTokenId;\n    }\n\n    function contractOwner() external view returns(address) {\n        return _contractOwner;\n    }\n\n    function claimContract() external view returns(address) {\n        return _claimContract;\n    }\n\n    function AllVerifiedContracts() external view returns(address [] memory) {\n        return _verifiedContracts;\n    }\n\n    function isVerified(address account) public view returns(bool) {\n        bool _isVerified = false;\n        for(uint i = 0; i < _verifiedContracts.length; i++) {\n            if(_verifiedContracts[0] == account) {\n                _isVerified = true;\n            }\n        }\n        return _isVerified;\n    }\n\n\n//-------WRITE FUNCTIONS-----\n\n    function mint(string memory tokenUri) external gated validateAddress(msg.sender) validateNotTokenHolder(msg.sender)  {\n       uint256 newTokenId = _lastTokenId + 1;\n        _owners[msg.sender] = newTokenId;\n        _tokenRecords[newTokenId][address(this)] = tokenUri;\n        _lastTokenId = newTokenId;\n        emit Transfer(address(0), msg.sender, newTokenId);\n    }\n\n\n    function approve(address account) external validateTokenHolder(msg.sender) validateDifferentAddress(msg.sender, account) validateIsContract(account) {\n        bool _isVerified = isVerified(account);\n        if(_isVerified) {\n        uint tokenId = _owners[msg.sender];\n        require(_tokenApprovals[tokenId][account] == false, \"SBT_ERR11: account passed is already approved\");\n        _tokenApprovals[tokenId][account] = true;\n        emit Approval(msg.sender, account, tokenId);\n        }else{\n            revert(\"SBT_ERR12: account is not a verified contract\");\n        }\n    }\n\n    function revoke(address account) external validateTokenHolder(msg.sender) validateDifferentAddress(msg.sender, account) {\n        uint tokenId = _owners[msg.sender];\n        require(_tokenApprovals[tokenId][account] == true, \"SBT_ERR6: caller or account passed is not approve\");\n        _tokenApprovals[tokenId][account] = false;\n    }\n\n    function revokeAll() external validateTokenHolder(msg.sender) {\n        uint tokenId = _owners[msg.sender];\n        for(uint i = 0; i < _verifiedContracts.length; i++) {\n             _tokenApprovals[tokenId][ _verifiedContracts[i]] = false;\n        }\n    }\n    \n\n    function addRecordURI(address account, uint256 tokenId, string memory tokenUri) external validateIsContract(msg.sender) validateApproval(tokenId, msg.sender) validateTokenOwner(account, tokenId) {\n        _tokenRecords[tokenId][msg.sender] = tokenUri;\n    }\n\n    function updateClaimContract(address account) external validateContractOwner(msg.sender) validateAddress(account) validateIsContract(account) {\n        _claimContract = account;\n    }\n\n    function welcomeContract(address account) external validateContractOwner(msg.sender) validateAddress(account) validateIsContract(account) {\n        _verifiedContracts.push(account);\n        emit Welcoming(address(this), account, block.timestamp);\n    }\n\n    function _getIndex(address [] memory array, address account) internal pure returns(uint) {\n        uint256 index = type(uint256).max;\n        for(uint i = 0; i < array.length; i++) {\n           if(array[i] == account) {\n               index = i;\n           }\n        }\n        if(index == type(uint256).max) {\n            revert(\"SBT_ERR12: can't blacklist an unverified account\");\n        }else{\n            return index;\n        }\n    }\n\n    function blacklistContract(address account) external validateContractOwner(msg.sender) validateAddress(account) validateIsContract(account) {\n        uint index = _getIndex(_verifiedContracts, account);\n        for (uint i = index; i < _verifiedContracts.length - 1; i++) {\n            _verifiedContracts[i] = _verifiedContracts[i + 1];\n        }\n        _verifiedContracts.pop();\n        emit Blacklisting(address(this), account, block.timestamp);\n    }\n    \n    function reclaimToken(uint256 tokenId, address prevOwner, address reclaimer) external isGated(reclaimer) validateClaimContract(msg.sender) validateTokenOwner(prevOwner, tokenId) validateAddress(reclaimer) validateNotTokenHolder(reclaimer) {\n        delete(_owners[prevOwner]);\n        for(uint i = 0; i < _verifiedContracts.length; i++) {\n             _tokenApprovals[tokenId][_verifiedContracts[i]] = false;\n        }\n        _owners[reclaimer] = tokenId;\n        emit Transfer(prevOwner, reclaimer, tokenId);\n    }\n}",
  "sourcePath": "/home/mohzcrea9me/XDC/STB/stable-borrow-mvp/src/backend/contracts/Sbt.sol",
  "compiler": {
    "name": "solc",
    "version": "0.8.17+commit.8df45f5f.Emscripten.clang"
  },
  "schemaVersion": "3.4.11",
  "updatedAt": "2023-06-01T00:14:21.331Z",
  "networkType": "ethereum",
  "devdoc": {
    "kind": "dev",
    "methods": {},
    "version": 1
  },
  "userdoc": {
    "errors": {
      "IsGated__InvalidGateway(address)": [
        {
          "notice": "The gateway token is not valid."
        }
      ],
      "IsGated__InvalidGatewayToken(address)": [
        {
          "notice": "The gateway token is not valid."
        }
      ]
    },
    "kind": "user",
    "methods": {},
    "version": 1
  }
}