{
  "contractName": "SBT",
  "abi": [
    {
      "inputs": [
        {
          "internalType": "string",
          "name": "name_",
          "type": "string"
        },
        {
          "internalType": "string",
          "name": "symbol_",
          "type": "string"
        }
      ],
      "stateMutability": "nonpayable",
      "type": "constructor"
    },
    {
      "anonymous": false,
      "inputs": [
        {
          "indexed": true,
          "internalType": "address",
          "name": "owner",
          "type": "address"
        },
        {
          "indexed": true,
          "internalType": "address",
          "name": "approved",
          "type": "address"
        },
        {
          "indexed": true,
          "internalType": "uint256",
          "name": "tokenId",
          "type": "uint256"
        }
      ],
      "name": "Approval",
      "type": "event"
    },
    {
      "anonymous": false,
      "inputs": [
        {
          "indexed": true,
          "internalType": "address",
          "name": "from",
          "type": "address"
        },
        {
          "indexed": true,
          "internalType": "address",
          "name": "to",
          "type": "address"
        },
        {
          "indexed": true,
          "internalType": "uint256",
          "name": "time",
          "type": "uint256"
        }
      ],
      "name": "Blacklisting",
      "type": "event"
    },
    {
      "anonymous": false,
      "inputs": [
        {
          "indexed": true,
          "internalType": "address",
          "name": "from",
          "type": "address"
        },
        {
          "indexed": true,
          "internalType": "address",
          "name": "to",
          "type": "address"
        },
        {
          "indexed": true,
          "internalType": "uint256",
          "name": "tokenId",
          "type": "uint256"
        }
      ],
      "name": "Transfer",
      "type": "event"
    },
    {
      "anonymous": false,
      "inputs": [
        {
          "indexed": true,
          "internalType": "address",
          "name": "from",
          "type": "address"
        },
        {
          "indexed": true,
          "internalType": "address",
          "name": "to",
          "type": "address"
        },
        {
          "indexed": true,
          "internalType": "uint256",
          "name": "time",
          "type": "uint256"
        }
      ],
      "name": "Welcoming",
      "type": "event"
    },
    {
      "inputs": [],
      "name": "name",
      "outputs": [
        {
          "internalType": "string",
          "name": "",
          "type": "string"
        }
      ],
      "stateMutability": "view",
      "type": "function",
      "constant": true
    },
    {
      "inputs": [],
      "name": "symbol",
      "outputs": [
        {
          "internalType": "string",
          "name": "",
          "type": "string"
        }
      ],
      "stateMutability": "view",
      "type": "function",
      "constant": true
    },
    {
      "inputs": [
        {
          "internalType": "address",
          "name": "account",
          "type": "address"
        }
      ],
      "name": "isTokenHolder",
      "outputs": [
        {
          "internalType": "bool",
          "name": "",
          "type": "bool"
        }
      ],
      "stateMutability": "view",
      "type": "function",
      "constant": true
    },
    {
      "inputs": [
        {
          "internalType": "address",
          "name": "account",
          "type": "address"
        }
      ],
      "name": "tokenOwned",
      "outputs": [
        {
          "internalType": "uint256",
          "name": "",
          "type": "uint256"
        }
      ],
      "stateMutability": "view",
      "type": "function",
      "constant": true
    },
    {
      "inputs": [
        {
          "internalType": "uint256",
          "name": "tokenId",
          "type": "uint256"
        },
        {
          "internalType": "address",
          "name": "account",
          "type": "address"
        }
      ],
      "name": "isApproved",
      "outputs": [
        {
          "internalType": "bool",
          "name": "",
          "type": "bool"
        }
      ],
      "stateMutability": "view",
      "type": "function",
      "constant": true
    },
    {
      "inputs": [
        {
          "internalType": "uint256",
          "name": "tokenId",
          "type": "uint256"
        }
      ],
      "name": "tokenURI",
      "outputs": [
        {
          "internalType": "string",
          "name": "",
          "type": "string"
        }
      ],
      "stateMutability": "view",
      "type": "function",
      "constant": true
    },
    {
      "inputs": [
        {
          "internalType": "uint256",
          "name": "tokenId",
          "type": "uint256"
        },
        {
          "internalType": "address",
          "name": "contractAddress",
          "type": "address"
        }
      ],
      "name": "getRecordURI",
      "outputs": [
        {
          "internalType": "string",
          "name": "",
          "type": "string"
        }
      ],
      "stateMutability": "view",
      "type": "function",
      "constant": true
    },
    {
      "inputs": [],
      "name": "totalTokenCount",
      "outputs": [
        {
          "internalType": "uint256",
          "name": "",
          "type": "uint256"
        }
      ],
      "stateMutability": "view",
      "type": "function",
      "constant": true
    },
    {
      "inputs": [],
      "name": "contractOwner",
      "outputs": [
        {
          "internalType": "address",
          "name": "",
          "type": "address"
        }
      ],
      "stateMutability": "view",
      "type": "function",
      "constant": true
    },
    {
      "inputs": [],
      "name": "claimContract",
      "outputs": [
        {
          "internalType": "address",
          "name": "",
          "type": "address"
        }
      ],
      "stateMutability": "view",
      "type": "function",
      "constant": true
    },
    {
      "inputs": [],
      "name": "AllVerifiedContracts",
      "outputs": [
        {
          "internalType": "address[]",
          "name": "",
          "type": "address[]"
        }
      ],
      "stateMutability": "view",
      "type": "function",
      "constant": true
    },
    {
      "inputs": [
        {
          "internalType": "address",
          "name": "account",
          "type": "address"
        }
      ],
      "name": "isVerified",
      "outputs": [
        {
          "internalType": "bool",
          "name": "",
          "type": "bool"
        }
      ],
      "stateMutability": "view",
      "type": "function",
      "constant": true
    },
    {
      "inputs": [
        {
          "internalType": "string",
          "name": "tokenUri",
          "type": "string"
        }
      ],
      "name": "mint",
      "outputs": [],
      "stateMutability": "nonpayable",
      "type": "function"
    },
    {
      "inputs": [
        {
          "internalType": "address",
          "name": "account",
          "type": "address"
        }
      ],
      "name": "approve",
      "outputs": [],
      "stateMutability": "nonpayable",
      "type": "function"
    },
    {
      "inputs": [
        {
          "internalType": "address",
          "name": "account",
          "type": "address"
        }
      ],
      "name": "revoke",
      "outputs": [],
      "stateMutability": "nonpayable",
      "type": "function"
    },
    {
      "inputs": [],
      "name": "revokeAll",
      "outputs": [],
      "stateMutability": "nonpayable",
      "type": "function"
    },
    {
      "inputs": [
        {
          "internalType": "address",
          "name": "account",
          "type": "address"
        },
        {
          "internalType": "uint256",
          "name": "tokenId",
          "type": "uint256"
        },
        {
          "internalType": "string",
          "name": "tokenUri",
          "type": "string"
        }
      ],
      "name": "addRecordURI",
      "outputs": [],
      "stateMutability": "nonpayable",
      "type": "function"
    },
    {
      "inputs": [
        {
          "internalType": "address",
          "name": "account",
          "type": "address"
        }
      ],
      "name": "updateClaimContract",
      "outputs": [],
      "stateMutability": "nonpayable",
      "type": "function"
    },
    {
      "inputs": [
        {
          "internalType": "address",
          "name": "account",
          "type": "address"
        }
      ],
      "name": "welcomeContract",
      "outputs": [],
      "stateMutability": "nonpayable",
      "type": "function"
    },
    {
      "inputs": [
        {
          "internalType": "address",
          "name": "account",
          "type": "address"
        }
      ],
      "name": "blacklistContract",
      "outputs": [],
      "stateMutability": "nonpayable",
      "type": "function"
    },
    {
      "inputs": [
        {
          "internalType": "uint256",
          "name": "tokenId",
          "type": "uint256"
        },
        {
          "internalType": "address",
          "name": "prevOwner",
          "type": "address"
        },
        {
          "internalType": "address",
          "name": "reclaimer",
          "type": "address"
        }
      ],
      "name": "reclaimToken",
      "outputs": [],
      "stateMutability": "nonpayable",
      "type": "function"
    }
  ],
  "bytecode": "0x60806040523480156200001157600080fd5b506040516200372438038062003724833981810160405281019062000037919062000237565b816000908162000048919062000507565b5080600190816200005a919062000507565b5033600660006101000a81548173ffffffffffffffffffffffffffffffffffffffff021916908373ffffffffffffffffffffffffffffffffffffffff1602179055505050620005ee565b6000604051905090565b600080fd5b600080fd5b600080fd5b600080fd5b6000601f19601f8301169050919050565b7f4e487b7100000000000000000000000000000000000000000000000000000000600052604160045260246000fd5b6200010d82620000c2565b810181811067ffffffffffffffff821117156200012f576200012e620000d3565b5b80604052505050565b600062000144620000a4565b905062000152828262000102565b919050565b600067ffffffffffffffff821115620001755762000174620000d3565b5b6200018082620000c2565b9050602081019050919050565b60005b83811015620001ad57808201518184015260208101905062000190565b60008484015250505050565b6000620001d0620001ca8462000157565b62000138565b905082815260208101848484011115620001ef57620001ee620000bd565b5b620001fc8482856200018d565b509392505050565b600082601f8301126200021c576200021b620000b8565b5b81516200022e848260208601620001b9565b91505092915050565b60008060408385031215620002515762000250620000ae565b5b600083015167ffffffffffffffff811115620002725762000271620000b3565b5b620002808582860162000204565b925050602083015167ffffffffffffffff811115620002a457620002a3620000b3565b5b620002b28582860162000204565b9150509250929050565b600081519050919050565b7f4e487b7100000000000000000000000000000000000000000000000000000000600052602260045260246000fd5b600060028204905060018216806200030f57607f821691505b602082108103620003255762000324620002c7565b5b50919050565b60008190508160005260206000209050919050565b60006020601f8301049050919050565b600082821b905092915050565b6000600883026200038f7fffffffffffffffffffffffffffffffffffffffffffffffffffffffffffffffff8262000350565b6200039b868362000350565b95508019841693508086168417925050509392505050565b6000819050919050565b6000819050919050565b6000620003e8620003e2620003dc84620003b3565b620003bd565b620003b3565b9050919050565b6000819050919050565b6200040483620003c7565b6200041c6200041382620003ef565b8484546200035d565b825550505050565b600090565b6200043362000424565b62000440818484620003f9565b505050565b5b8181101562000468576200045c60008262000429565b60018101905062000446565b5050565b601f821115620004b75762000481816200032b565b6200048c8462000340565b810160208510156200049c578190505b620004b4620004ab8562000340565b83018262000445565b50505b505050565b600082821c905092915050565b6000620004dc60001984600802620004bc565b1980831691505092915050565b6000620004f78383620004c9565b9150826002028217905092915050565b6200051282620002bc565b67ffffffffffffffff8111156200052e576200052d620000d3565b5b6200053a8254620002f6565b620005478282856200046c565b600060209050601f8311600181146200057f57600084156200056a578287015190505b620005768582620004e9565b865550620005e6565b601f1984166200058f866200032b565b60005b82811015620005b95784890151825560018201915060208501945060208101905062000592565b86831015620005d95784890151620005d5601f891682620004c9565b8355505b6001600288020188555050505b505050505050565b61312680620005fe6000396000f3fe608060405234801561001057600080fd5b50600436106101375760003560e01c8063966595dc116100b8578063d85d3d271161007c578063d85d3d2714610350578063daea85c51461036c578063e2dd857614610388578063ea9fa6e7146103a6578063f1794d7e146103c2578063fc3f63b7146103de57610137565b8063966595dc14610298578063a340fff4146102c8578063b9209e33146102d2578063c87b56dd14610302578063ce606ee01461033257610137565b806366345da4116100ff57806366345da4146101f257806366e3fe2a1461021057806374a8f10314610240578063764912ef1461025c57806395d89b411461027a57610137565b806306fdde031461013c57806349b323aa1461015a57806356c3163714610176578063571621e5146101a657806365731fe9146101c2575b600080fd5b6101446103fa565b60405161015191906120ef565b60405180910390f35b610174600480360381019061016f9190612183565b61048c565b005b610190600480360381019061018b91906121e6565b6107ff565b60405161019d9190612241565b60405180910390f35b6101c060048036038101906101bb919061225c565b610867565b005b6101dc60048036038101906101d79190612183565b610c25565b6040516101e99190612241565b60405180910390f35b6101fa610c70565b60405161020791906122be565b60405180910390f35b61022a600480360381019061022591906121e6565b610c9a565b60405161023791906120ef565b60405180910390f35b61025a60048036038101906102559190612183565b610d7d565b005b610264610fc8565b60405161027191906122e8565b60405180910390f35b610282610fd2565b60405161028f91906120ef565b60405180910390f35b6102b260048036038101906102ad9190612183565b611064565b6040516102bf91906122e8565b60405180910390f35b6102d06110ad565b005b6102ec60048036038101906102e79190612183565b611243565b6040516102f99190612241565b60405180910390f35b61031c60048036038101906103179190612303565b6112ee565b60405161032991906120ef565b60405180910390f35b61033a6113d0565b60405161034791906122be565b60405180910390f35b61036a60048036038101906103659190612465565b6113fa565b005b61038660048036038101906103819190612183565b61160b565b005b610390611961565b60405161039d919061256c565b60405180910390f35b6103c060048036038101906103bb9190612183565b6119ef565b005b6103dc60048036038101906103d79190612183565b611c0f565b005b6103f860048036038101906103f3919061258e565b611db2565b005b6060600080546104099061262c565b80601f01602080910402602001604051908101604052809291908181526020018280546104359061262c565b80156104825780601f1061045757610100808354040283529160200191610482565b820191906000526020600020905b81548152906001019060200180831161046557829003601f168201915b5050505050905090565b33600660009054906101000a900473ffffffffffffffffffffffffffffffffffffffff1673ffffffffffffffffffffffffffffffffffffffff168173ffffffffffffffffffffffffffffffffffffffff161461051d576040517f08c379a0000000000000000000000000000000000000000000000000000000008152600401610514906126cf565b60405180910390fd5b81600073ffffffffffffffffffffffffffffffffffffffff168173ffffffffffffffffffffffffffffffffffffffff160361058d576040517f08c379a000000000000000000000000000000000000000000000000000000000815260040161058490612761565b60405180910390fd5b8260008173ffffffffffffffffffffffffffffffffffffffff163b116105e8576040517f08c379a00000000000000000000000000000000000000000000000000000000081526004016105df90612819565b60405180910390fd5b600061067a600880548060200260200160405190810160405280929190818152602001828054801561066f57602002820191906000526020600020905b8160009054906101000a900473ffffffffffffffffffffffffffffffffffffffff1673ffffffffffffffffffffffffffffffffffffffff1681526020019060010190808311610625575b505050505086611f9e565b905060008190505b60016008805490506106949190612868565b8110156107555760086001826106aa919061289c565b815481106106bb576106ba6128d0565b5b9060005260206000200160009054906101000a900473ffffffffffffffffffffffffffffffffffffffff16600882815481106106fa576106f96128d0565b5b9060005260206000200160006101000a81548173ffffffffffffffffffffffffffffffffffffffff021916908373ffffffffffffffffffffffffffffffffffffffff160217905550808061074d906128ff565b915050610682565b50600880548061076857610767612947565b5b6001900381819060005260206000200160006101000a81549073ffffffffffffffffffffffffffffffffffffffff02191690559055428573ffffffffffffffffffffffffffffffffffffffff163073ffffffffffffffffffffffffffffffffffffffff167f31aa85030f2ea4aebae73e40795e8201f9d2b9fe760d68a36a992f5f8e79ddf760405160405180910390a45050505050565b60006004600084815260200190815260200160002060008373ffffffffffffffffffffffffffffffffffffffff1673ffffffffffffffffffffffffffffffffffffffff16815260200190815260200160002060009054906101000a900460ff16905092915050565b33600760009054906101000a900473ffffffffffffffffffffffffffffffffffffffff1673ffffffffffffffffffffffffffffffffffffffff168173ffffffffffffffffffffffffffffffffffffffff16146108f8576040517f08c379a00000000000000000000000000000000000000000000000000000000081526004016108ef906129e8565b60405180910390fd5b828480600360008473ffffffffffffffffffffffffffffffffffffffff1673ffffffffffffffffffffffffffffffffffffffff168152602001908152602001600020541461097b576040517f08c379a000000000000000000000000000000000000000000000000000000000815260040161097290612a7a565b60405180910390fd5b83600073ffffffffffffffffffffffffffffffffffffffff168173ffffffffffffffffffffffffffffffffffffffff16036109eb576040517f08c379a00000000000000000000000000000000000000000000000000000000081526004016109e290612761565b60405180910390fd5b846000600360008373ffffffffffffffffffffffffffffffffffffffff1673ffffffffffffffffffffffffffffffffffffffff1681526020019081526020016000205414610a6e576040517f08c379a0000000000000000000000000000000000000000000000000000000008152600401610a6590612b0c565b60405180910390fd5b600360008873ffffffffffffffffffffffffffffffffffffffff1673ffffffffffffffffffffffffffffffffffffffff1681526020019081526020016000206000905560005b600880549050811015610b7b576000600460008b8152602001908152602001600020600060088481548110610aec57610aeb6128d0565b5b9060005260206000200160009054906101000a900473ffffffffffffffffffffffffffffffffffffffff1673ffffffffffffffffffffffffffffffffffffffff1673ffffffffffffffffffffffffffffffffffffffff16815260200190815260200160002060006101000a81548160ff0219169083151502179055508080610b73906128ff565b915050610ab4565b5087600360008873ffffffffffffffffffffffffffffffffffffffff1673ffffffffffffffffffffffffffffffffffffffff16815260200190815260200160002081905550878673ffffffffffffffffffffffffffffffffffffffff168873ffffffffffffffffffffffffffffffffffffffff167fddf252ad1be2c89b69c2b068fc378daa952ba7f163c4a11628f55a4df523b3ef60405160405180910390a45050505050505050565b600080600360008473ffffffffffffffffffffffffffffffffffffffff1673ffffffffffffffffffffffffffffffffffffffff16815260200190815260200160002054119050919050565b6000600760009054906101000a900473ffffffffffffffffffffffffffffffffffffffff16905090565b60606005600084815260200190815260200160002060008373ffffffffffffffffffffffffffffffffffffffff1673ffffffffffffffffffffffffffffffffffffffff1681526020019081526020016000208054610cf79061262c565b80601f0160208091040260200160405190810160405280929190818152602001828054610d239061262c565b8015610d705780601f10610d4557610100808354040283529160200191610d70565b820191906000526020600020905b815481529060010190602001808311610d5357829003601f168201915b5050505050905092915050565b336000600360008373ffffffffffffffffffffffffffffffffffffffff1673ffffffffffffffffffffffffffffffffffffffff1681526020019081526020016000205411610e00576040517f08c379a0000000000000000000000000000000000000000000000000000000008152600401610df790612b9e565b60405180910390fd5b33828073ffffffffffffffffffffffffffffffffffffffff168273ffffffffffffffffffffffffffffffffffffffff1603610e70576040517f08c379a0000000000000000000000000000000000000000000000000000000008152600401610e6790612c0a565b60405180910390fd5b6000600360003373ffffffffffffffffffffffffffffffffffffffff1673ffffffffffffffffffffffffffffffffffffffff168152602001908152602001600020549050600115156004600083815260200190815260200160002060008773ffffffffffffffffffffffffffffffffffffffff1673ffffffffffffffffffffffffffffffffffffffff16815260200190815260200160002060009054906101000a900460ff16151514610f58576040517f08c379a0000000000000000000000000000000000000000000000000000000008152600401610f4f90612c9c565b60405180910390fd5b60006004600083815260200190815260200160002060008773ffffffffffffffffffffffffffffffffffffffff1673ffffffffffffffffffffffffffffffffffffffff16815260200190815260200160002060006101000a81548160ff0219169083151502179055505050505050565b6000600254905090565b606060018054610fe19061262c565b80601f016020809104026020016040519081016040528092919081815260200182805461100d9061262c565b801561105a5780601f1061102f5761010080835404028352916020019161105a565b820191906000526020600020905b81548152906001019060200180831161103d57829003601f168201915b5050505050905090565b6000600360008373ffffffffffffffffffffffffffffffffffffffff1673ffffffffffffffffffffffffffffffffffffffff168152602001908152602001600020549050919050565b336000600360008373ffffffffffffffffffffffffffffffffffffffff1673ffffffffffffffffffffffffffffffffffffffff1681526020019081526020016000205411611130576040517f08c379a000000000000000000000000000000000000000000000000000000000815260040161112790612b9e565b60405180910390fd5b6000600360003373ffffffffffffffffffffffffffffffffffffffff1673ffffffffffffffffffffffffffffffffffffffff16815260200190815260200160002054905060005b60088054905081101561123e576000600460008481526020019081526020016000206000600884815481106111af576111ae6128d0565b5b9060005260206000200160009054906101000a900473ffffffffffffffffffffffffffffffffffffffff1673ffffffffffffffffffffffffffffffffffffffff1673ffffffffffffffffffffffffffffffffffffffff16815260200190815260200160002060006101000a81548160ff0219169083151502179055508080611236906128ff565b915050611177565b505050565b6000806000905060005b6008805490508110156112e4578373ffffffffffffffffffffffffffffffffffffffff166008600081548110611286576112856128d0565b5b9060005260206000200160009054906101000a900473ffffffffffffffffffffffffffffffffffffffff1673ffffffffffffffffffffffffffffffffffffffff16036112d157600191505b80806112dc906128ff565b91505061124d565b5080915050919050565b60606005600083815260200190815260200160002060003073ffffffffffffffffffffffffffffffffffffffff1673ffffffffffffffffffffffffffffffffffffffff168152602001908152602001600020805461134b9061262c565b80601f01602080910402602001604051908101604052809291908181526020018280546113779061262c565b80156113c45780601f10611399576101008083540402835291602001916113c4565b820191906000526020600020905b8154815290600101906020018083116113a757829003601f168201915b50505050509050919050565b6000600660009054906101000a900473ffffffffffffffffffffffffffffffffffffffff16905090565b33600073ffffffffffffffffffffffffffffffffffffffff168173ffffffffffffffffffffffffffffffffffffffff160361146a576040517f08c379a000000000000000000000000000000000000000000000000000000000815260040161146190612761565b60405180910390fd5b336000600360008373ffffffffffffffffffffffffffffffffffffffff1673ffffffffffffffffffffffffffffffffffffffff16815260200190815260200160002054146114ed576040517f08c379a00000000000000000000000000000000000000000000000000000000081526004016114e490612b0c565b60405180910390fd5b600060016002546114fe919061289c565b905080600360003373ffffffffffffffffffffffffffffffffffffffff1673ffffffffffffffffffffffffffffffffffffffff16815260200190815260200160002081905550836005600083815260200190815260200160002060003073ffffffffffffffffffffffffffffffffffffffff1673ffffffffffffffffffffffffffffffffffffffff16815260200190815260200160002090816115a19190612e68565b5080600281905550803373ffffffffffffffffffffffffffffffffffffffff16600073ffffffffffffffffffffffffffffffffffffffff167fddf252ad1be2c89b69c2b068fc378daa952ba7f163c4a11628f55a4df523b3ef60405160405180910390a450505050565b336000600360008373ffffffffffffffffffffffffffffffffffffffff1673ffffffffffffffffffffffffffffffffffffffff168152602001908152602001600020541161168e576040517f08c379a000000000000000000000000000000000000000000000000000000000815260040161168590612b9e565b60405180910390fd5b33828073ffffffffffffffffffffffffffffffffffffffff168273ffffffffffffffffffffffffffffffffffffffff16036116fe576040517f08c379a00000000000000000000000000000000000000000000000000000000081526004016116f590612c0a565b60405180910390fd5b8360008173ffffffffffffffffffffffffffffffffffffffff163b11611759576040517f08c379a000000000000000000000000000000000000000000000000000000000815260040161175090612819565b60405180910390fd5b600061176486611243565b9050801561191e576000600360003373ffffffffffffffffffffffffffffffffffffffff1673ffffffffffffffffffffffffffffffffffffffff168152602001908152602001600020549050600015156004600083815260200190815260200160002060008973ffffffffffffffffffffffffffffffffffffffff1673ffffffffffffffffffffffffffffffffffffffff16815260200190815260200160002060009054906101000a900460ff16151514611854576040517f08c379a000000000000000000000000000000000000000000000000000000000815260040161184b90612fac565b60405180910390fd5b60016004600083815260200190815260200160002060008973ffffffffffffffffffffffffffffffffffffffff1673ffffffffffffffffffffffffffffffffffffffff16815260200190815260200160002060006101000a81548160ff021916908315150217905550808773ffffffffffffffffffffffffffffffffffffffff163373ffffffffffffffffffffffffffffffffffffffff167f8c5be1e5ebec7d5bd14f71427d1e84f3dd0314c0f7b2291e5b200ac8c7c3b92560405160405180910390a450611959565b6040517f08c379a00000000000000000000000000000000000000000000000000000000081526004016119509061303e565b60405180910390fd5b505050505050565b606060088054806020026020016040519081016040528092919081815260200182805480156119e557602002820191906000526020600020905b8160009054906101000a900473ffffffffffffffffffffffffffffffffffffffff1673ffffffffffffffffffffffffffffffffffffffff168152602001906001019080831161199b575b5050505050905090565b33600660009054906101000a900473ffffffffffffffffffffffffffffffffffffffff1673ffffffffffffffffffffffffffffffffffffffff168173ffffffffffffffffffffffffffffffffffffffff1614611a80576040517f08c379a0000000000000000000000000000000000000000000000000000000008152600401611a77906126cf565b60405180910390fd5b81600073ffffffffffffffffffffffffffffffffffffffff168173ffffffffffffffffffffffffffffffffffffffff1603611af0576040517f08c379a0000000000000000000000000000000000000000000000000000000008152600401611ae790612761565b60405180910390fd5b8260008173ffffffffffffffffffffffffffffffffffffffff163b11611b4b576040517f08c379a0000000000000000000000000000000000000000000000000000000008152600401611b4290612819565b60405180910390fd5b6008849080600181540180825580915050600190039060005260206000200160009091909190916101000a81548173ffffffffffffffffffffffffffffffffffffffff021916908373ffffffffffffffffffffffffffffffffffffffff160217905550428473ffffffffffffffffffffffffffffffffffffffff163073ffffffffffffffffffffffffffffffffffffffff167f83834ad44d17ca9d2e4eaa5592bf7ff069d255a667a87383cacd213f53a2c87760405160405180910390a450505050565b33600660009054906101000a900473ffffffffffffffffffffffffffffffffffffffff1673ffffffffffffffffffffffffffffffffffffffff168173ffffffffffffffffffffffffffffffffffffffff1614611ca0576040517f08c379a0000000000000000000000000000000000000000000000000000000008152600401611c97906126cf565b60405180910390fd5b81600073ffffffffffffffffffffffffffffffffffffffff168173ffffffffffffffffffffffffffffffffffffffff1603611d10576040517f08c379a0000000000000000000000000000000000000000000000000000000008152600401611d0790612761565b60405180910390fd5b8260008173ffffffffffffffffffffffffffffffffffffffff163b11611d6b576040517f08c379a0000000000000000000000000000000000000000000000000000000008152600401611d6290612819565b60405180910390fd5b83600760006101000a81548173ffffffffffffffffffffffffffffffffffffffff021916908373ffffffffffffffffffffffffffffffffffffffff16021790555050505050565b3360008173ffffffffffffffffffffffffffffffffffffffff163b11611e0d576040517f08c379a0000000000000000000000000000000000000000000000000000000008152600401611e0490612819565b60405180910390fd5b8233600115156004600084815260200190815260200160002060008373ffffffffffffffffffffffffffffffffffffffff1673ffffffffffffffffffffffffffffffffffffffff16815260200190815260200160002060009054906101000a900460ff16151514611eb3576040517f08c379a0000000000000000000000000000000000000000000000000000000008152600401611eaa90612c9c565b60405180910390fd5b858580600360008473ffffffffffffffffffffffffffffffffffffffff1673ffffffffffffffffffffffffffffffffffffffff1681526020019081526020016000205414611f36576040517f08c379a0000000000000000000000000000000000000000000000000000000008152600401611f2d90612a7a565b60405180910390fd5b856005600089815260200190815260200160002060003373ffffffffffffffffffffffffffffffffffffffff1673ffffffffffffffffffffffffffffffffffffffff1681526020019081526020016000209081611f939190612e68565b505050505050505050565b60008060005b8451811015612011578373ffffffffffffffffffffffffffffffffffffffff16858281518110611fd757611fd66128d0565b5b602002602001015173ffffffffffffffffffffffffffffffffffffffff1603611ffe578091505b8080612009906128ff565b915050611fa4565b5060008103612055576040517f08c379a000000000000000000000000000000000000000000000000000000000815260040161204c906130d0565b60405180910390fd5b8091505092915050565b600081519050919050565b600082825260208201905092915050565b60005b8381101561209957808201518184015260208101905061207e565b60008484015250505050565b6000601f19601f8301169050919050565b60006120c18261205f565b6120cb818561206a565b93506120db81856020860161207b565b6120e4816120a5565b840191505092915050565b6000602082019050818103600083015261210981846120b6565b905092915050565b6000604051905090565b600080fd5b600080fd5b600073ffffffffffffffffffffffffffffffffffffffff82169050919050565b600061215082612125565b9050919050565b61216081612145565b811461216b57600080fd5b50565b60008135905061217d81612157565b92915050565b6000602082840312156121995761219861211b565b5b60006121a78482850161216e565b91505092915050565b6000819050919050565b6121c3816121b0565b81146121ce57600080fd5b50565b6000813590506121e0816121ba565b92915050565b600080604083850312156121fd576121fc61211b565b5b600061220b858286016121d1565b925050602061221c8582860161216e565b9150509250929050565b60008115159050919050565b61223b81612226565b82525050565b60006020820190506122566000830184612232565b92915050565b6000806000606084860312156122755761227461211b565b5b6000612283868287016121d1565b93505060206122948682870161216e565b92505060406122a58682870161216e565b9150509250925092565b6122b881612145565b82525050565b60006020820190506122d360008301846122af565b92915050565b6122e2816121b0565b82525050565b60006020820190506122fd60008301846122d9565b92915050565b6000602082840312156123195761231861211b565b5b6000612327848285016121d1565b91505092915050565b600080fd5b600080fd5b7f4e487b7100000000000000000000000000000000000000000000000000000000600052604160045260246000fd5b612372826120a5565b810181811067ffffffffffffffff821117156123915761239061233a565b5b80604052505050565b60006123a4612111565b90506123b08282612369565b919050565b600067ffffffffffffffff8211156123d0576123cf61233a565b5b6123d9826120a5565b9050602081019050919050565b82818337600083830152505050565b6000612408612403846123b5565b61239a565b90508281526020810184848401111561242457612423612335565b5b61242f8482856123e6565b509392505050565b600082601f83011261244c5761244b612330565b5b813561245c8482602086016123f5565b91505092915050565b60006020828403121561247b5761247a61211b565b5b600082013567ffffffffffffffff81111561249957612498612120565b5b6124a584828501612437565b91505092915050565b600081519050919050565b600082825260208201905092915050565b6000819050602082019050919050565b6124e381612145565b82525050565b60006124f583836124da565b60208301905092915050565b6000602082019050919050565b6000612519826124ae565b61252381856124b9565b935061252e836124ca565b8060005b8381101561255f57815161254688826124e9565b975061255183612501565b925050600181019050612532565b5085935050505092915050565b60006020820190508181036000830152612586818461250e565b905092915050565b6000806000606084860312156125a7576125a661211b565b5b60006125b58682870161216e565b93505060206125c6868287016121d1565b925050604084013567ffffffffffffffff8111156125e7576125e6612120565b5b6125f386828701612437565b9150509250925092565b7f4e487b7100000000000000000000000000000000000000000000000000000000600052602260045260246000fd5b6000600282049050600182168061264457607f821691505b602082108103612657576126566125fd565b5b50919050565b7f5342545f455252353a2043616c6c6572206973206e6f7420636f6e747261637460008201527f206f776e65720000000000000000000000000000000000000000000000000000602082015250565b60006126b960268361206a565b91506126c48261265d565b604082019050919050565b600060208201905081810360008301526126e8816126ac565b9050919050565b7f5342545f455252313a20496e76616c69642061646472657373287a65726f292060008201527f7061737365640000000000000000000000000000000000000000000000000000602082015250565b600061274b60268361206a565b9150612756826126ef565b604082019050919050565b6000602082019050818103600083015261277a8161273e565b9050919050565b7f5342545f455252383a2063616c6c6572206f72206163636f756e74207061737360008201527f6564206973206e6f7420612076616c696420636f6e7472616374206163636f7560208201527f6e74000000000000000000000000000000000000000000000000000000000000604082015250565b600061280360428361206a565b915061280e82612781565b606082019050919050565b60006020820190508181036000830152612832816127f6565b9050919050565b7f4e487b7100000000000000000000000000000000000000000000000000000000600052601160045260246000fd5b6000612873826121b0565b915061287e836121b0565b925082820390508181111561289657612895612839565b5b92915050565b60006128a7826121b0565b91506128b2836121b0565b92508282019050808211156128ca576128c9612839565b5b92915050565b7f4e487b7100000000000000000000000000000000000000000000000000000000600052603260045260246000fd5b600061290a826121b0565b91507fffffffffffffffffffffffffffffffffffffffffffffffffffffffffffffffff820361293c5761293b612839565b5b600182019050919050565b7f4e487b7100000000000000000000000000000000000000000000000000000000600052603160045260246000fd5b7f5342545f455252373a2063616c6c6572206973206e6f7420636c61696d20636f60008201527f6e74726163740000000000000000000000000000000000000000000000000000602082015250565b60006129d260268361206a565b91506129dd82612976565b604082019050919050565b60006020820190508181036000830152612a01816129c5565b9050919050565b7f5342545f455252343a206163636f756e7420706173736564206973206e6f742060008201527f636f72726573706f6e64696e6720746f6b656e206f776e657200000000000000602082015250565b6000612a6460398361206a565b9150612a6f82612a08565b604082019050919050565b60006020820190508181036000830152612a9381612a57565b9050919050565b7f5342545f45525231303a206163636f756e7420697320616c726564792061207460008201527f6f6b656e20686f6c646572000000000000000000000000000000000000000000602082015250565b6000612af6602b8361206a565b9150612b0182612a9a565b604082019050919050565b60006020820190508181036000830152612b2581612ae9565b9050919050565b7f5342545f455252393a206163636f756e74206973206e6f74206120746f6b656e60008201527f20686f6c64657200000000000000000000000000000000000000000000000000602082015250565b6000612b8860278361206a565b9150612b9382612b2c565b604082019050919050565b60006020820190508181036000830152612bb781612b7b565b9050919050565b7f5342545f455252333a2053616d65206163636f756e7473206465746563746564600082015250565b6000612bf460208361206a565b9150612bff82612bbe565b602082019050919050565b60006020820190508181036000830152612c2381612be7565b9050919050565b7f5342545f455252363a2063616c6c6572206f72206163636f756e74207061737360008201527f6564206973206e6f7420617070726f7665000000000000000000000000000000602082015250565b6000612c8660318361206a565b9150612c9182612c2a565b604082019050919050565b60006020820190508181036000830152612cb581612c79565b9050919050565b60008190508160005260206000209050919050565b60006020601f8301049050919050565b600082821b905092915050565b600060088302612d1e7fffffffffffffffffffffffffffffffffffffffffffffffffffffffffffffffff82612ce1565b612d288683612ce1565b95508019841693508086168417925050509392505050565b6000819050919050565b6000612d65612d60612d5b846121b0565b612d40565b6121b0565b9050919050565b6000819050919050565b612d7f83612d4a565b612d93612d8b82612d6c565b848454612cee565b825550505050565b600090565b612da8612d9b565b612db3818484612d76565b505050565b5b81811015612dd757612dcc600082612da0565b600181019050612db9565b5050565b601f821115612e1c57612ded81612cbc565b612df684612cd1565b81016020851015612e05578190505b612e19612e1185612cd1565b830182612db8565b50505b505050565b600082821c905092915050565b6000612e3f60001984600802612e21565b1980831691505092915050565b6000612e588383612e2e565b9150826002028217905092915050565b612e718261205f565b67ffffffffffffffff811115612e8a57612e8961233a565b5b612e94825461262c565b612e9f828285612ddb565b600060209050601f831160018114612ed25760008415612ec0578287015190505b612eca8582612e4c565b865550612f32565b601f198416612ee086612cbc565b60005b82811015612f0857848901518255600182019150602085019450602081019050612ee3565b86831015612f255784890151612f21601f891682612e2e565b8355505b6001600288020188555050505b505050505050565b7f5342545f45525231313a206163636f756e742070617373656420697320616c7260008201527f6561647920617070726f76656400000000000000000000000000000000000000602082015250565b6000612f96602d8361206a565b9150612fa182612f3a565b604082019050919050565b60006020820190508181036000830152612fc581612f89565b9050919050565b7f5342545f45525231323a206163636f756e74206973206e6f742061207665726960008201527f6669656420636f6e747261637400000000000000000000000000000000000000602082015250565b6000613028602d8361206a565b915061303382612fcc565b604082019050919050565b600060208201905081810360008301526130578161301b565b9050919050565b7f5342545f45525231323a2063616e277420626c61636b6c69737420616e20756e60008201527f7665726966696564206163636f756e7400000000000000000000000000000000602082015250565b60006130ba60308361206a565b91506130c58261305e565b604082019050919050565b600060208201905081810360008301526130e9816130ad565b905091905056fea26469706673582212201f661aaba3cac600de3b7462164d6ab30988794ad47002886c5124c0a5969ea364736f6c63430008110033",
  "immutableReferences": {},
  "source": "// SPDX-License-Identifier: MIT\n\npragma solidity >=0.5.11 < 0.9.0;\n\ninterface ISBT {\n\n    //------READ FUNCTIONS-----//\n    function name() external view returns (string memory);\n    function symbol() external view returns (string memory);\n    function isTokenHolder(address account) external view returns(bool) ;\n    function tokenOwned(address account) external view returns(uint256);\n    function isApproved(uint256 tokenId, address account) external view returns(bool);\n    function tokenURI(uint256 tokenId) external view returns(string memory);\n    function getRecordURI(uint256 tokenId, address contractAddress) external view returns(string memory);\n    function totalTokenCount() external view returns(uint256);\n    function contractOwner() external view returns(address);\n    function claimContract() external view returns(address);\n    function AllVerifiedContracts() external view returns(address [] memory);\n    function isVerified(address account) external view returns(bool);\n\n\n    //-------WRITE FUNCTIONS-----//\n    function mint(string memory tokenUri) external;\n    function approve(address account) external;\n    function revoke(address account) external;\n    function revokeAll() external;\n    function addRecordURI(address account, uint256 tokenId, string memory tokenUri) external;\n    function updateClaimContract(address account) external;\n    function welcomeContract(address account) external;\n    function blacklistContract(address account) external;\n    function reclaimToken(uint256 tokenId, address prevOwner, address reclaimer) external;\n}\n\ncontract SBT  {\n\n    // Token name\n    string private _name;\n\n    // Token symbol\n    string private _symbol;\n\n    // Last token id Minted\n    uint256 private _lastTokenId;\n\n    // Mapping from address to tokenid owned\n    mapping(address => uint256) private _owners;\n\n    // Mapping token to various approved accounts\n    mapping(uint256 => mapping(address => bool)) private _tokenApprovals;\n\n    // Mapping token to various records from verified contracts\n    mapping(uint256 => mapping(address => string)) private _tokenRecords;\n\n    // contract owner\n    address private _contractOwner;\n\n    // contract address of claimcontract(to reclaim token)\n    address private _claimContract;\n\n    // lists of verified contracts that can save record for tokens\n    address[] private _verifiedContracts;\n\n//------EVENTS---------\n\n    event Transfer(address indexed from, address indexed to, uint256 indexed tokenId);\n\n    event Approval(address indexed owner, address indexed approved, uint256 indexed tokenId);\n\n    event Welcoming(address indexed from, address indexed to, uint indexed time);\n\n    event Blacklisting(address indexed from, address indexed to, uint indexed time);\n\n\n    constructor(string memory name_, string memory symbol_)  {\n        _name = name_;\n        _symbol = symbol_;\n        _contractOwner = msg.sender;\n    }\n\n//------MODIFIERS---------\n    modifier validateAddress(address account) {\n        require(account != address(0), \"SBT_ERR1: Invalid address(zero) passed\");\n        _;\n    }\n\n    modifier validateDifferentAddress(address from, address to) {\n        require(from != to, \"SBT_ERR3: Same accounts detected\");\n        _;\n    }\n\n    modifier validateTokenOwner(address account, uint256 tokenId) {\n        require(_owners[account] == tokenId, \"SBT_ERR4: account passed is not corresponding token owner\");\n        _;\n    }\n\n    modifier validateContractOwner(address account) {\n        require(account == _contractOwner, \"SBT_ERR5: Caller is not contract owner\");\n        _;\n    }\n\n    modifier validateApproval(uint256 tokenId, address account) {\n        require(_tokenApprovals[tokenId][account] == true, \"SBT_ERR6: caller or account passed is not approve\");\n        _;\n    }\n\n    modifier validateClaimContract(address account) {\n        require(account == _claimContract, \"SBT_ERR7: caller is not claim contract\");\n        _;\n    }\n\n    modifier validateIsContract(address account) {\n        require(account.code.length > 0, \"SBT_ERR8: caller or account passed is not a valid contract account\");\n        _;\n    }\n\n    modifier validateTokenHolder(address account) {\n        require(_owners[account] > uint256(0), \"SBT_ERR9: account is not a token holder\");\n        _;\n    }\n\n    modifier validateNotTokenHolder(address account) {\n        require(_owners[account] == uint256(0), \"SBT_ERR10: account is alredy a token holder\");\n        _;\n    }\n\n\n//-----READ FUNCTIONS-------\n\n    function name() external view returns (string memory) {\n        return _name;\n    }\n\n    function symbol() external view returns (string memory) {\n        return _symbol;\n    }\n\n    function isTokenHolder(address account) external view returns(bool) {\n        return  _owners[account] > uint256(0);\n    }\n\n    function tokenOwned(address account) external view returns(uint256) {\n        return _owners[account];\n    }\n\n    function isApproved(uint256 tokenId, address account) external view returns(bool) {\n        return _tokenApprovals[tokenId][account];\n    }\n\n    function tokenURI(uint256 tokenId) external view returns(string memory) {\n        return _tokenRecords[tokenId][address(this)];\n    }\n\n    function getRecordURI(uint256 tokenId, address contractAddress) external view returns(string memory) {\n        return _tokenRecords[tokenId][contractAddress];\n    }\n\n    function totalTokenCount() external view returns(uint256) {\n        return _lastTokenId;\n    }\n\n    function contractOwner() external view returns(address) {\n        return _contractOwner;\n    }\n\n    function claimContract() external view returns(address) {\n        return _claimContract;\n    }\n\n    function AllVerifiedContracts() external view returns(address [] memory) {\n        return _verifiedContracts;\n    }\n\n    function isVerified(address account) public view returns(bool) {\n        bool _isVerified = false;\n        for(uint i = 0; i < _verifiedContracts.length; i++) {\n            if(_verifiedContracts[0] == account) {\n                _isVerified = true;\n            }\n        }\n        return _isVerified;\n    }\n\n\n//-------WRITE FUNCTIONS-----\n\n    function mint(string memory tokenUri) external validateAddress(msg.sender) validateNotTokenHolder(msg.sender)  {\n       uint256 newTokenId = _lastTokenId + 1;\n        _owners[msg.sender] = newTokenId;\n        _tokenRecords[newTokenId][address(this)] = tokenUri;\n        _lastTokenId = newTokenId;\n        emit Transfer(address(0), msg.sender, newTokenId);\n    }\n\n\n    function approve(address account) external validateTokenHolder(msg.sender) validateDifferentAddress(msg.sender, account) validateIsContract(account) {\n        bool _isVerified = isVerified(account);\n        if(_isVerified) {\n        uint tokenId = _owners[msg.sender];\n        require(_tokenApprovals[tokenId][account] == false, \"SBT_ERR11: account passed is already approved\");\n        _tokenApprovals[tokenId][account] = true;\n        emit Approval(msg.sender, account, tokenId);\n        }else{\n            revert(\"SBT_ERR12: account is not a verified contract\");\n        }\n    }\n\n    function revoke(address account) external validateTokenHolder(msg.sender) validateDifferentAddress(msg.sender, account) {\n        uint tokenId = _owners[msg.sender];\n        require(_tokenApprovals[tokenId][account] == true, \"SBT_ERR6: caller or account passed is not approve\");\n        _tokenApprovals[tokenId][account] = false;\n    }\n\n    function revokeAll() external validateTokenHolder(msg.sender) {\n        uint tokenId = _owners[msg.sender];\n        for(uint i = 0; i < _verifiedContracts.length; i++) {\n             _tokenApprovals[tokenId][ _verifiedContracts[i]] = false;\n        }\n    }\n    \n\n    function addRecordURI(address account, uint256 tokenId, string memory tokenUri) external validateIsContract(msg.sender) validateApproval(tokenId, msg.sender) validateTokenOwner(account, tokenId) {\n        _tokenRecords[tokenId][msg.sender] = tokenUri;\n    }\n\n    function updateClaimContract(address account) external validateContractOwner(msg.sender) validateAddress(account) validateIsContract(account) {\n        _claimContract = account;\n    }\n\n    function welcomeContract(address account) external validateContractOwner(msg.sender) validateAddress(account) validateIsContract(account) {\n        _verifiedContracts.push(account);\n        emit Welcoming(address(this), account, block.timestamp);\n    }\n\n    function _getIndex(address [] memory array, address account) internal pure returns(uint) {\n        uint256 index;\n        for(uint i = 0; i < array.length; i++) {\n           if(array[i] == account) {\n               index = i;\n           }\n        }\n        if(index == 0) {\n            revert(\"SBT_ERR12: can't blacklist an unverified account\");\n        }else{\n            return index;\n        }\n    }\n\n    function blacklistContract(address account) external validateContractOwner(msg.sender) validateAddress(account) validateIsContract(account) {\n        uint index = _getIndex(_verifiedContracts, account);\n        for (uint i = index; i < _verifiedContracts.length - 1; i++) {\n            _verifiedContracts[i] = _verifiedContracts[i + 1];\n        }\n        _verifiedContracts.pop();\n        emit Blacklisting(address(this), account, block.timestamp);\n    }\n    \n    function reclaimToken(uint256 tokenId, address prevOwner, address reclaimer) external validateClaimContract(msg.sender) validateTokenOwner(prevOwner, tokenId) validateAddress(reclaimer) validateNotTokenHolder(reclaimer) {\n        delete(_owners[prevOwner]);\n        for(uint i = 0; i < _verifiedContracts.length; i++) {\n             _tokenApprovals[tokenId][_verifiedContracts[i]] = false;\n        }\n        _owners[reclaimer] = tokenId;\n        emit Transfer(prevOwner, reclaimer, tokenId);\n    }\n}",
  "sourcePath": "/home/mohzcrea9me/onynx/stb-onynx-hackathon/src/backend/contracts/Sbt.sol",
  "compiler": {
    "name": "solc",
    "version": "0.8.17+commit.8df45f5f.Emscripten.clang"
  },
  "schemaVersion": "3.4.11",
  "updatedAt": "2023-10-08T21:54:30.947Z",
  "networkType": "ethereum",
  "devdoc": {
    "kind": "dev",
    "methods": {},
    "version": 1
  },
  "userdoc": {
    "kind": "user",
    "methods": {},
    "version": 1
  }
}