{
  "contractName": "StbOracle",
  "abi": [
    {
      "inputs": [],
      "name": "requestId",
      "outputs": [
        {
          "internalType": "bytes32",
          "name": "",
          "type": "bytes32"
        }
      ],
      "stateMutability": "view",
      "type": "function"
    },
    {
      "inputs": [
        {
          "internalType": "string",
          "name": "fsyms",
          "type": "string"
        },
        {
          "internalType": "string",
          "name": "tsyms",
          "type": "string"
        }
      ],
      "name": "getPriceInfo",
      "outputs": [
        {
          "internalType": "bytes32",
          "name": "",
          "type": "bytes32"
        }
      ],
      "stateMutability": "nonpayable",
      "type": "function"
    },
    {
      "inputs": [
        {
          "internalType": "bytes32",
          "name": "reqid",
          "type": "bytes32"
        }
      ],
      "name": "show",
      "outputs": [
        {
          "internalType": "uint256",
          "name": "",
          "type": "uint256"
        }
      ],
      "stateMutability": "view",
      "type": "function"
    }
  ],
  "bytecode": "0x6080604052731acd9eb739c191689be282c2c804665c8ffd0e4e6000806101000a81548173ffffffffffffffffffffffffffffffffffffffff021916908373ffffffffffffffffffffffffffffffffffffffff16021790555034801561006457600080fd5b5061068a806100746000396000f3fe608060405234801561001057600080fd5b50600436106100405760003560e01c80626d6cae146100455780631a5c9d08146100635780635808854b14610093575b600080fd5b61004d6100c3565b60405161005a919061023a565b60405180910390f35b61007d600480360381019061007891906103af565b6100c9565b60405161008a919061023a565b60405180910390f35b6100ad60048036038101906100a89190610453565b61017d565b6040516100ba9190610499565b60405180910390f35b60015481565b60008060009054906101000a900473ffffffffffffffffffffffffffffffffffffffff1673ffffffffffffffffffffffffffffffffffffffff1663f41d5e923385856040518463ffffffff1660e01b815260040161012993929190610574565b6020604051808303816000875af1158015610148573d6000803e3d6000fd5b505050506040513d601f19601f8201168201806040525081019061016c91906105ce565b600181905550600154905092915050565b60008060009054906101000a900473ffffffffffffffffffffffffffffffffffffffff1673ffffffffffffffffffffffffffffffffffffffff1663dd953fb0836040518263ffffffff1660e01b81526004016101d9919061023a565b602060405180830381865afa1580156101f6573d6000803e3d6000fd5b505050506040513d601f19601f8201168201806040525081019061021a9190610627565b9050919050565b6000819050919050565b61023481610221565b82525050565b600060208201905061024f600083018461022b565b92915050565b6000604051905090565b600080fd5b600080fd5b600080fd5b600080fd5b6000601f19601f8301169050919050565b7f4e487b7100000000000000000000000000000000000000000000000000000000600052604160045260246000fd5b6102bc82610273565b810181811067ffffffffffffffff821117156102db576102da610284565b5b80604052505050565b60006102ee610255565b90506102fa82826102b3565b919050565b600067ffffffffffffffff82111561031a57610319610284565b5b61032382610273565b9050602081019050919050565b82818337600083830152505050565b600061035261034d846102ff565b6102e4565b90508281526020810184848401111561036e5761036d61026e565b5b610379848285610330565b509392505050565b600082601f83011261039657610395610269565b5b81356103a684826020860161033f565b91505092915050565b600080604083850312156103c6576103c561025f565b5b600083013567ffffffffffffffff8111156103e4576103e3610264565b5b6103f085828601610381565b925050602083013567ffffffffffffffff81111561041157610410610264565b5b61041d85828601610381565b9150509250929050565b61043081610221565b811461043b57600080fd5b50565b60008135905061044d81610427565b92915050565b6000602082840312156104695761046861025f565b5b60006104778482850161043e565b91505092915050565b6000819050919050565b61049381610480565b82525050565b60006020820190506104ae600083018461048a565b92915050565b600073ffffffffffffffffffffffffffffffffffffffff82169050919050565b60006104df826104b4565b9050919050565b6104ef816104d4565b82525050565b600081519050919050565b600082825260208201905092915050565b60005b8381101561052f578082015181840152602081019050610514565b60008484015250505050565b6000610546826104f5565b6105508185610500565b9350610560818560208601610511565b61056981610273565b840191505092915050565b600060608201905061058960008301866104e6565b818103602083015261059b818561053b565b905081810360408301526105af818461053b565b9050949350505050565b6000815190506105c881610427565b92915050565b6000602082840312156105e4576105e361025f565b5b60006105f2848285016105b9565b91505092915050565b61060481610480565b811461060f57600080fd5b50565b600081519050610621816105fb565b92915050565b60006020828403121561063d5761063c61025f565b5b600061064b84828501610612565b9150509291505056fea264697066735822122092c347ad342cd3c53f85f5060cd36d7f25798431b47b36b561f7b579f9b2959964736f6c63430008110033",
  "immutableReferences": {},
  "source": "// SPDX-License-Identifier: MIT\npragma solidity >=0.5.11 < 0.9.0;\n\ninterface IInvokeOracle{\n    function requestData(address _caller, string memory _fsyms,string memory _tsyms) external returns (bytes32 requestId);\n    function showPrice(bytes32 _reqid) external view returns(uint256);\n}\n\ninterface IStbOracle{\n    function getPriceInfo(string memory fsyms,string memory tsyms) external returns(bytes32);\n    function show(bytes32 reqid) external view returns(uint256);\n}\n\ncontract StbOracle{\n    address CONTRACTADDR = 0x1acd9eb739C191689Be282C2C804665c8ffd0E4e;\n    bytes32 public requestId; \n\n    //Fund this contract with sufficient PLI, before you trigger below function. \n    //Note, below function will not trigger if you do not put PLI in above contract address\n    function getPriceInfo(string memory fsyms,string memory tsyms) external returns(bytes32){\n        (requestId) = IInvokeOracle(CONTRACTADDR).requestData({_caller:msg.sender,_fsyms:fsyms,_tsyms:tsyms}); \n        return requestId;\n    }\n    //TODO - you can customize below function as you want, but below function will give you the pricing value for the input requestId\n    //This function will give you last stored value in the contract\n    function show(bytes32 reqid) external view returns(uint256){\n        return IInvokeOracle(CONTRACTADDR).showPrice({_reqid:reqid});\n    }\n}",
  "sourcePath": "/home/mohzcrea9me/XDC/STB/stable-borrow-mvp/src/backend/contracts/StbOracle.sol",
  "compiler": {
    "name": "solc",
    "version": "0.8.17+commit.8df45f5f.Emscripten.clang"
  },
  "schemaVersion": "3.4.11",
  "updatedAt": "2023-05-31T23:53:51.199Z",
  "devdoc": {
    "kind": "dev",
    "methods": {},
    "version": 1
  },
  "userdoc": {
    "kind": "user",
    "methods": {},
    "version": 1
  }
}