{
  "contractName": "STBSWAP",
  "abi": [
    {
      "inputs": [
        {
          "internalType": "address",
          "name": "stcContract",
          "type": "address"
        },
        {
          "internalType": "address",
          "name": "_xdctokenContract",
          "type": "address"
        },
        {
          "internalType": "string",
          "name": "stcSymbol",
          "type": "string"
        },
        {
          "internalType": "string",
          "name": "xdcSymbol",
          "type": "string"
        },
        {
          "internalType": "uint256",
          "name": "_maxFee",
          "type": "uint256"
        },
        {
          "internalType": "uint256",
          "name": "stbPerc",
          "type": "uint256"
        }
      ],
      "stateMutability": "nonpayable",
      "type": "constructor"
    },
    {
      "anonymous": false,
      "inputs": [
        {
          "indexed": true,
          "internalType": "address",
          "name": "from",
          "type": "address"
        },
        {
          "indexed": true,
          "internalType": "address",
          "name": "to",
          "type": "address"
        },
        {
          "indexed": true,
          "internalType": "uint256",
          "name": "time",
          "type": "uint256"
        }
      ],
      "name": "Blacklisting",
      "type": "event"
    },
    {
      "anonymous": false,
      "inputs": [
        {
          "indexed": false,
          "internalType": "address",
          "name": "creator",
          "type": "address"
        },
        {
          "indexed": true,
          "internalType": "address",
          "name": "token1",
          "type": "address"
        },
        {
          "indexed": true,
          "internalType": "address",
          "name": "token2",
          "type": "address"
        },
        {
          "indexed": false,
          "internalType": "uint256",
          "name": "time",
          "type": "uint256"
        }
      ],
      "name": "PoolCreation",
      "type": "event"
    },
    {
      "anonymous": false,
      "inputs": [
        {
          "indexed": false,
          "internalType": "address",
          "name": "account",
          "type": "address"
        },
        {
          "indexed": true,
          "internalType": "address",
          "name": "tokenFrom",
          "type": "address"
        },
        {
          "indexed": true,
          "internalType": "address",
          "name": "tokenTo",
          "type": "address"
        },
        {
          "indexed": true,
          "internalType": "uint256",
          "name": "amountIn",
          "type": "uint256"
        },
        {
          "indexed": false,
          "internalType": "uint256",
          "name": "amountOut",
          "type": "uint256"
        }
      ],
      "name": "TokenSwap",
      "type": "event"
    },
    {
      "anonymous": false,
      "inputs": [
        {
          "indexed": true,
          "internalType": "address",
          "name": "from",
          "type": "address"
        },
        {
          "indexed": true,
          "internalType": "address",
          "name": "to",
          "type": "address"
        },
        {
          "indexed": true,
          "internalType": "uint256",
          "name": "time",
          "type": "uint256"
        }
      ],
      "name": "Welcoming",
      "type": "event"
    },
    {
      "inputs": [],
      "name": "maxFee",
      "outputs": [
        {
          "internalType": "uint256",
          "name": "",
          "type": "uint256"
        }
      ],
      "stateMutability": "view",
      "type": "function"
    },
    {
      "inputs": [
        {
          "internalType": "uint256",
          "name": "",
          "type": "uint256"
        }
      ],
      "name": "pools",
      "outputs": [
        {
          "internalType": "uint256",
          "name": "poolId",
          "type": "uint256"
        },
        {
          "internalType": "address",
          "name": "poolOwner",
          "type": "address"
        },
        {
          "internalType": "uint256",
          "name": "totalFee",
          "type": "uint256"
        },
        {
          "internalType": "address",
          "name": "token1",
          "type": "address"
        },
        {
          "internalType": "address",
          "name": "token2",
          "type": "address"
        },
        {
          "internalType": "uint256",
          "name": "token1Liq",
          "type": "uint256"
        },
        {
          "internalType": "uint256",
          "name": "token2Liq",
          "type": "uint256"
        },
        {
          "internalType": "uint256",
          "name": "token1Vol",
          "type": "uint256"
        },
        {
          "internalType": "uint256",
          "name": "token2Vol",
          "type": "uint256"
        },
        {
          "internalType": "uint256",
          "name": "totalToken1Share",
          "type": "uint256"
        },
        {
          "internalType": "uint256",
          "name": "totalToken2Share",
          "type": "uint256"
        }
      ],
      "stateMutability": "view",
      "type": "function"
    },
    {
      "inputs": [],
      "name": "stbSwapPerc",
      "outputs": [
        {
          "internalType": "uint256",
          "name": "",
          "type": "uint256"
        }
      ],
      "stateMutability": "view",
      "type": "function"
    },
    {
      "inputs": [],
      "name": "xdcTokenContract",
      "outputs": [
        {
          "internalType": "address",
          "name": "",
          "type": "address"
        }
      ],
      "stateMutability": "view",
      "type": "function"
    },
    {
      "inputs": [
        {
          "internalType": "uint256",
          "name": "poolId",
          "type": "uint256"
        }
      ],
      "name": "getPool",
      "outputs": [
        {
          "components": [
            {
              "internalType": "uint256",
              "name": "poolId",
              "type": "uint256"
            },
            {
              "internalType": "address",
              "name": "poolOwner",
              "type": "address"
            },
            {
              "internalType": "uint256",
              "name": "totalFee",
              "type": "uint256"
            },
            {
              "internalType": "address",
              "name": "token1",
              "type": "address"
            },
            {
              "internalType": "address",
              "name": "token2",
              "type": "address"
            },
            {
              "internalType": "uint256",
              "name": "token1Liq",
              "type": "uint256"
            },
            {
              "internalType": "uint256",
              "name": "token2Liq",
              "type": "uint256"
            },
            {
              "internalType": "uint256",
              "name": "token1Vol",
              "type": "uint256"
            },
            {
              "internalType": "uint256",
              "name": "token2Vol",
              "type": "uint256"
            },
            {
              "internalType": "uint256",
              "name": "totalToken1Share",
              "type": "uint256"
            },
            {
              "internalType": "uint256",
              "name": "totalToken2Share",
              "type": "uint256"
            }
          ],
          "internalType": "struct STBSWAP.Pool",
          "name": "",
          "type": "tuple"
        }
      ],
      "stateMutability": "view",
      "type": "function"
    },
    {
      "inputs": [
        {
          "internalType": "uint256",
          "name": "poolId",
          "type": "uint256"
        },
        {
          "internalType": "address",
          "name": "tokenId",
          "type": "address"
        }
      ],
      "name": "tokenPriceFromPool",
      "outputs": [
        {
          "internalType": "uint256",
          "name": "",
          "type": "uint256"
        }
      ],
      "stateMutability": "view",
      "type": "function"
    },
    {
      "inputs": [
        {
          "internalType": "uint256",
          "name": "poolId",
          "type": "uint256"
        },
        {
          "internalType": "address",
          "name": "account",
          "type": "address"
        }
      ],
      "name": "isAProvider",
      "outputs": [
        {
          "internalType": "bool",
          "name": "",
          "type": "bool"
        }
      ],
      "stateMutability": "view",
      "type": "function"
    },
    {
      "inputs": [
        {
          "internalType": "uint256",
          "name": "poolId",
          "type": "uint256"
        },
        {
          "internalType": "address",
          "name": "account",
          "type": "address"
        }
      ],
      "name": "getShare",
      "outputs": [
        {
          "internalType": "uint256[]",
          "name": "",
          "type": "uint256[]"
        }
      ],
      "stateMutability": "view",
      "type": "function"
    },
    {
      "inputs": [
        {
          "internalType": "uint256",
          "name": "poolId",
          "type": "uint256"
        },
        {
          "internalType": "address",
          "name": "account",
          "type": "address"
        }
      ],
      "name": "getProfit",
      "outputs": [
        {
          "internalType": "uint256[]",
          "name": "",
          "type": "uint256[]"
        }
      ],
      "stateMutability": "view",
      "type": "function"
    },
    {
      "inputs": [
        {
          "internalType": "uint256",
          "name": "poolId",
          "type": "uint256"
        }
      ],
      "name": "liquidityProviders",
      "outputs": [
        {
          "internalType": "address[]",
          "name": "",
          "type": "address[]"
        }
      ],
      "stateMutability": "view",
      "type": "function"
    },
    {
      "inputs": [],
      "name": "owner",
      "outputs": [
        {
          "internalType": "address",
          "name": "",
          "type": "address"
        }
      ],
      "stateMutability": "view",
      "type": "function"
    },
    {
      "inputs": [
        {
          "internalType": "address",
          "name": "account",
          "type": "address"
        }
      ],
      "name": "isAuthorized",
      "outputs": [
        {
          "internalType": "bool",
          "name": "",
          "type": "bool"
        }
      ],
      "stateMutability": "view",
      "type": "function"
    },
    {
      "inputs": [],
      "name": "getAllPools",
      "outputs": [
        {
          "components": [
            {
              "internalType": "uint256",
              "name": "poolId",
              "type": "uint256"
            },
            {
              "internalType": "address",
              "name": "poolOwner",
              "type": "address"
            },
            {
              "internalType": "uint256",
              "name": "totalFee",
              "type": "uint256"
            },
            {
              "internalType": "address",
              "name": "token1",
              "type": "address"
            },
            {
              "internalType": "address",
              "name": "token2",
              "type": "address"
            },
            {
              "internalType": "uint256",
              "name": "token1Liq",
              "type": "uint256"
            },
            {
              "internalType": "uint256",
              "name": "token2Liq",
              "type": "uint256"
            },
            {
              "internalType": "uint256",
              "name": "token1Vol",
              "type": "uint256"
            },
            {
              "internalType": "uint256",
              "name": "token2Vol",
              "type": "uint256"
            },
            {
              "internalType": "uint256",
              "name": "totalToken1Share",
              "type": "uint256"
            },
            {
              "internalType": "uint256",
              "name": "totalToken2Share",
              "type": "uint256"
            }
          ],
          "internalType": "struct STBSWAP.Pool[]",
          "name": "",
          "type": "tuple[]"
        }
      ],
      "stateMutability": "view",
      "type": "function"
    },
    {
      "inputs": [],
      "name": "getAllListedTokens",
      "outputs": [
        {
          "internalType": "address[]",
          "name": "",
          "type": "address[]"
        }
      ],
      "stateMutability": "view",
      "type": "function"
    },
    {
      "inputs": [
        {
          "internalType": "uint256",
          "name": "poolId",
          "type": "uint256"
        },
        {
          "internalType": "address",
          "name": "token",
          "type": "address"
        },
        {
          "internalType": "uint256",
          "name": "amount",
          "type": "uint256"
        }
      ],
      "name": "getAmountOutFromSwap",
      "outputs": [
        {
          "internalType": "uint256",
          "name": "",
          "type": "uint256"
        }
      ],
      "stateMutability": "view",
      "type": "function"
    },
    {
      "inputs": [
        {
          "internalType": "address",
          "name": "token1",
          "type": "address"
        },
        {
          "internalType": "address",
          "name": "token2",
          "type": "address"
        },
        {
          "internalType": "uint256",
          "name": "token1Amt",
          "type": "uint256"
        },
        {
          "internalType": "uint256",
          "name": "token2Amt",
          "type": "uint256"
        },
        {
          "internalType": "uint256",
          "name": "fee",
          "type": "uint256"
        }
      ],
      "name": "createPool",
      "outputs": [
        {
          "internalType": "bool",
          "name": "",
          "type": "bool"
        }
      ],
      "stateMutability": "payable",
      "type": "function"
    },
    {
      "inputs": [
        {
          "internalType": "uint256",
          "name": "poolId",
          "type": "uint256"
        },
        {
          "internalType": "uint256",
          "name": "token1Amt",
          "type": "uint256"
        },
        {
          "internalType": "uint256",
          "name": "token2Amt",
          "type": "uint256"
        },
        {
          "internalType": "uint256",
          "name": "maxTol",
          "type": "uint256"
        }
      ],
      "name": "addLiquidity",
      "outputs": [
        {
          "internalType": "bool",
          "name": "",
          "type": "bool"
        }
      ],
      "stateMutability": "payable",
      "type": "function"
    },
    {
      "inputs": [
        {
          "internalType": "uint256",
          "name": "poolId",
          "type": "uint256"
        },
        {
          "internalType": "address",
          "name": "token",
          "type": "address"
        },
        {
          "internalType": "uint256",
          "name": "amount",
          "type": "uint256"
        }
      ],
      "name": "shareAmountOut",
      "outputs": [
        {
          "internalType": "uint256",
          "name": "",
          "type": "uint256"
        }
      ],
      "stateMutability": "view",
      "type": "function"
    },
    {
      "inputs": [
        {
          "internalType": "uint256",
          "name": "poolId",
          "type": "uint256"
        },
        {
          "internalType": "uint256",
          "name": "token1Amt",
          "type": "uint256"
        },
        {
          "internalType": "uint256",
          "name": "token2Amt",
          "type": "uint256"
        },
        {
          "internalType": "uint256",
          "name": "minTol1",
          "type": "uint256"
        },
        {
          "internalType": "uint256",
          "name": "minTol2",
          "type": "uint256"
        }
      ],
      "name": "removeLiquidity",
      "outputs": [
        {
          "internalType": "bool",
          "name": "",
          "type": "bool"
        }
      ],
      "stateMutability": "nonpayable",
      "type": "function"
    },
    {
      "inputs": [
        {
          "internalType": "uint256",
          "name": "poolId",
          "type": "uint256"
        },
        {
          "internalType": "address",
          "name": "tokenFrom",
          "type": "address"
        },
        {
          "internalType": "address",
          "name": "tokenTo",
          "type": "address"
        },
        {
          "internalType": "uint256",
          "name": "amount",
          "type": "uint256"
        },
        {
          "internalType": "uint256",
          "name": "minTol",
          "type": "uint256"
        }
      ],
      "name": "swap",
      "outputs": [
        {
          "internalType": "bool",
          "name": "",
          "type": "bool"
        }
      ],
      "stateMutability": "payable",
      "type": "function"
    },
    {
      "inputs": [
        {
          "internalType": "address",
          "name": "token",
          "type": "address"
        },
        {
          "internalType": "string",
          "name": "tokenSymbol",
          "type": "string"
        }
      ],
      "name": "listToken",
      "outputs": [
        {
          "internalType": "bool",
          "name": "",
          "type": "bool"
        }
      ],
      "stateMutability": "nonpayable",
      "type": "function"
    },
    {
      "inputs": [
        {
          "internalType": "address",
          "name": "token",
          "type": "address"
        }
      ],
      "name": "delistToken",
      "outputs": [
        {
          "internalType": "bool",
          "name": "",
          "type": "bool"
        }
      ],
      "stateMutability": "nonpayable",
      "type": "function"
    },
    {
      "inputs": [
        {
          "internalType": "uint256",
          "name": "newMax",
          "type": "uint256"
        }
      ],
      "name": "updateMaxFee",
      "outputs": [],
      "stateMutability": "nonpayable",
      "type": "function"
    },
    {
      "inputs": [
        {
          "internalType": "uint256",
          "name": "newPerc",
          "type": "uint256"
        }
      ],
      "name": "updateStbSwapPerc",
      "outputs": [],
      "stateMutability": "nonpayable",
      "type": "function"
    },
    {
      "inputs": [
        {
          "internalType": "address",
          "name": "account",
          "type": "address"
        }
      ],
      "name": "authorize",
      "outputs": [],
      "stateMutability": "nonpayable",
      "type": "function"
    },
    {
      "inputs": [
        {
          "internalType": "address",
          "name": "account",
          "type": "address"
        }
      ],
      "name": "unauthorize",
      "outputs": [],
      "stateMutability": "nonpayable",
      "type": "function"
    }
  ],
  "bytecode": "0x60806040523480156200001157600080fd5b506040516200a5563803806200a5568339818101604052810190620000379190620004c1565b8160048190555080600581905550336000806101000a81548173ffffffffffffffffffffffffffffffffffffffff021916908373ffffffffffffffffffffffffffffffffffffffff16021790555084600160006101000a81548173ffffffffffffffffffffffffffffffffffffffff021916908373ffffffffffffffffffffffffffffffffffffffff1602179055506002869080600181540180825580915050600190039060005260206000200160009091909190916101000a81548173ffffffffffffffffffffffffffffffffffffffff021916908373ffffffffffffffffffffffffffffffffffffffff1602179055506002859080600181540180825580915050600190039060005260206000200160009091909190916101000a81548173ffffffffffffffffffffffffffffffffffffffff021916908373ffffffffffffffffffffffffffffffffffffffff16021790555083600360008873ffffffffffffffffffffffffffffffffffffffff1673ffffffffffffffffffffffffffffffffffffffff1681526020019081526020016000209081620001da9190620007dc565b5082600360008773ffffffffffffffffffffffffffffffffffffffff1673ffffffffffffffffffffffffffffffffffffffff1681526020019081526020016000209081620002299190620007dc565b506001600a60003373ffffffffffffffffffffffffffffffffffffffff1673ffffffffffffffffffffffffffffffffffffffff16815260200190815260200160002060006101000a81548160ff021916908315150217905550505050505050620008c3565b6000604051905090565b600080fd5b600080fd5b600073ffffffffffffffffffffffffffffffffffffffff82169050919050565b6000620002cf82620002a2565b9050919050565b620002e181620002c2565b8114620002ed57600080fd5b50565b6000815190506200030181620002d6565b92915050565b600080fd5b600080fd5b6000601f19601f8301169050919050565b7f4e487b7100000000000000000000000000000000000000000000000000000000600052604160045260246000fd5b6200035c8262000311565b810181811067ffffffffffffffff821117156200037e576200037d62000322565b5b80604052505050565b6000620003936200028e565b9050620003a1828262000351565b919050565b600067ffffffffffffffff821115620003c457620003c362000322565b5b620003cf8262000311565b9050602081019050919050565b60005b83811015620003fc578082015181840152602081019050620003df565b60008484015250505050565b60006200041f6200041984620003a6565b62000387565b9050828152602081018484840111156200043e576200043d6200030c565b5b6200044b848285620003dc565b509392505050565b600082601f8301126200046b576200046a62000307565b5b81516200047d84826020860162000408565b91505092915050565b6000819050919050565b6200049b8162000486565b8114620004a757600080fd5b50565b600081519050620004bb8162000490565b92915050565b60008060008060008060c08789031215620004e157620004e062000298565b5b6000620004f189828a01620002f0565b96505060206200050489828a01620002f0565b955050604087015167ffffffffffffffff8111156200052857620005276200029d565b5b6200053689828a0162000453565b945050606087015167ffffffffffffffff8111156200055a57620005596200029d565b5b6200056889828a0162000453565b93505060806200057b89828a01620004aa565b92505060a06200058e89828a01620004aa565b9150509295509295509295565b600081519050919050565b7f4e487b7100000000000000000000000000000000000000000000000000000000600052602260045260246000fd5b60006002820490506001821680620005ee57607f821691505b602082108103620006045762000603620005a6565b5b50919050565b60008190508160005260206000209050919050565b60006020601f8301049050919050565b600082821b905092915050565b6000600883026200066e7fffffffffffffffffffffffffffffffffffffffffffffffffffffffffffffffff826200062f565b6200067a86836200062f565b95508019841693508086168417925050509392505050565b6000819050919050565b6000620006bd620006b7620006b18462000486565b62000692565b62000486565b9050919050565b6000819050919050565b620006d9836200069c565b620006f1620006e882620006c4565b8484546200063c565b825550505050565b600090565b62000708620006f9565b62000715818484620006ce565b505050565b5b818110156200073d5762000731600082620006fe565b6001810190506200071b565b5050565b601f8211156200078c5762000756816200060a565b62000761846200061f565b8101602085101562000771578190505b6200078962000780856200061f565b8301826200071a565b50505b505050565b600082821c905092915050565b6000620007b16000198460080262000791565b1980831691505092915050565b6000620007cc83836200079e565b9150826002028217905092915050565b620007e7826200059b565b67ffffffffffffffff81111562000803576200080262000322565b5b6200080f8254620005d5565b6200081c82828562000741565b600060209050601f8311600181146200085457600084156200083f578287015190505b6200084b8582620007be565b865550620008bb565b601f19841662000864866200060a565b60005b828110156200088e5784890151825560018201915060208501945060208101905062000867565b86831015620008ae5784890151620008aa601f8916826200079e565b8355505b6001600288020188555050505b505050505050565b619c8380620008d36000396000f3fe6080604052600436106101815760003560e01c806396212916116100d1578063beeb936f1161008a578063d88ff1f411610064578063d88ff1f414610611578063d95cf5911461063c578063f0b37c0414610679578063fe9fbb80146106a257610181565b8063beeb936f14610567578063cf14a46d14610597578063d00451e6146105d457610181565b80639621291614610422578063a50d99831461045f578063abffc9ac1461048a578063ac4afa38146104c7578063aebf3e411461050e578063b6a5d7de1461053e57610181565b8063550dddeb1161013e57806379e82aee1161011857806379e82aee146103715780637daee0f01461039c57806385ac165a146103c75780638da5cb5b146103f757610181565b8063550dddeb146102ce57806371f36ae2146102f757806378b27fef1461033457610181565b806301f59d1614610186578063068bcd8d146101b15780633e1ef0c7146101ee57806345094f011461022b5780634c8d6fa814610268578063529e2f98146102a5575b600080fd5b34801561019257600080fd5b5061019b6106df565b6040516101a89190617d64565b60405180910390f35b3480156101bd57600080fd5b506101d860048036038101906101d39190617dbf565b6106e5565b6040516101e59190617f1d565b60405180910390f35b3480156101fa57600080fd5b5061021560048036038101906102109190617f65565b610880565b6040516102229190617fc0565b60405180910390f35b34801561023757600080fd5b50610252600480360381019061024d9190618121565b61094d565b60405161025f9190617fc0565b60405180910390f35b34801561027457600080fd5b5061028f600480360381019061028a9190617f65565b610c2d565b60405161029c919061822c565b60405180910390f35b3480156102b157600080fd5b506102cc60048036038101906102c79190617dbf565b610d2c565b005b3480156102da57600080fd5b506102f560048036038101906102f09190617dbf565b610e07565b005b34801561030357600080fd5b5061031e6004803603810190610319919061824e565b610ee2565b60405161032b9190617d64565b60405180910390f35b34801561034057600080fd5b5061035b60048036038101906103569190617f65565b61107b565b604051610368919061822c565b60405180910390f35b34801561037d57600080fd5b5061038661117a565b60405161039391906182b0565b60405180910390f35b3480156103a857600080fd5b506103b16111a0565b6040516103be9190617d64565b60405180910390f35b6103e160048036038101906103dc91906182cb565b6111a6565b6040516103ee9190617fc0565b60405180910390f35b34801561040357600080fd5b5061040c611b19565b60405161041991906182b0565b60405180910390f35b34801561042e57600080fd5b5061044960048036038101906104449190617dbf565b611b42565b60405161045691906183f5565b60405180910390f35b34801561046b57600080fd5b50610474611c39565b60405161048191906183f5565b60405180910390f35b34801561049657600080fd5b506104b160048036038101906104ac9190618417565b611cc7565b6040516104be9190617fc0565b60405180910390f35b3480156104d357600080fd5b506104ee60048036038101906104e99190617dbf565b612101565b6040516105059b9a99989796959493929190618444565b60405180910390f35b610528600480360381019061052391906184ef565b6121cb565b6040516105359190617fc0565b60405180910390f35b34801561054a57600080fd5b5061056560048036038101906105609190618417565b613d70565b005b610581600480360381019061057c9190618556565b613eca565b60405161058e9190617fc0565b60405180910390f35b3480156105a357600080fd5b506105be60048036038101906105b991906185d1565b6158c6565b6040516105cb9190617fc0565b60405180910390f35b3480156105e057600080fd5b506105fb60048036038101906105f69190617f65565b615be8565b6040516106089190617d64565b60405180910390f35b34801561061d57600080fd5b50610626615e8e565b60405161063391906187dd565b60405180910390f35b34801561064857600080fd5b50610663600480360381019061065e919061824e565b616040565b6040516106709190617d64565b60405180910390f35b34801561068557600080fd5b506106a0600480360381019061069b9190618417565b61634d565b005b3480156106ae57600080fd5b506106c960048036038101906106c49190618417565b6164bb565b6040516106d69190617fc0565b60405180910390f35b60045481565b6106ed617b1d565b60066001836106fc919061882e565b8154811061070d5761070c618862565b5b90600052602060002090600b020160405180610160016040529081600082015481526020016001820160009054906101000a900473ffffffffffffffffffffffffffffffffffffffff1673ffffffffffffffffffffffffffffffffffffffff1673ffffffffffffffffffffffffffffffffffffffff168152602001600282015481526020016003820160009054906101000a900473ffffffffffffffffffffffffffffffffffffffff1673ffffffffffffffffffffffffffffffffffffffff1673ffffffffffffffffffffffffffffffffffffffff1681526020016004820160009054906101000a900473ffffffffffffffffffffffffffffffffffffffff1673ffffffffffffffffffffffffffffffffffffffff1673ffffffffffffffffffffffffffffffffffffffff1681526020016005820154815260200160068201548152602001600782015481526020016008820154815260200160098201548152602001600a820154815250509050919050565b6000806000905060005b6009600086815260200190815260200160002080549050811015610942578373ffffffffffffffffffffffffffffffffffffffff166009600087815260200190815260200160002082815481106108e4576108e3618862565b5b9060005260206000200160009054906101000a900473ffffffffffffffffffffffffffffffffffffffff1673ffffffffffffffffffffffffffffffffffffffff160361092f57600191505b808061093a90618891565b91505061088a565b508091505092915050565b600082600073ffffffffffffffffffffffffffffffffffffffff168173ffffffffffffffffffffffffffffffffffffffff16036109bf576040517f08c379a00000000000000000000000000000000000000000000000000000000081526004016109b69061895c565b60405180910390fd5b60008054906101000a900473ffffffffffffffffffffffffffffffffffffffff1673ffffffffffffffffffffffffffffffffffffffff163373ffffffffffffffffffffffffffffffffffffffff1614610a4d576040517f08c379a0000000000000000000000000000000000000000000000000000000008152600401610a44906189ee565b60405180910390fd5b604051602001610a5c90618a3f565b60405160208183030381529060405280519060200120600360008673ffffffffffffffffffffffffffffffffffffffff1673ffffffffffffffffffffffffffffffffffffffff168152602001908152602001600020604051602001610ac19190618b4c565b6040516020818303038152906040528051906020012014610b17576040517f08c379a0000000000000000000000000000000000000000000000000000000008152600401610b0e90618bd5565b60405180910390fd5b82600360008673ffffffffffffffffffffffffffffffffffffffff1673ffffffffffffffffffffffffffffffffffffffff1681526020019081526020016000209081610b639190618d97565b506002849080600181540180825580915050600190039060005260206000200160009091909190916101000a81548173ffffffffffffffffffffffffffffffffffffffff021916908373ffffffffffffffffffffffffffffffffffffffff160217905550428473ffffffffffffffffffffffffffffffffffffffff163073ffffffffffffffffffffffffffffffffffffffff167f83834ad44d17ca9d2e4eaa5592bf7ff069d255a667a87383cacd213f53a2c87760405160405180910390a4600191505092915050565b606082600081118015610c4557506006805490508111155b610c84576040517f08c379a0000000000000000000000000000000000000000000000000000000008152600401610c7b90618edb565b60405180910390fd5b6007600085815260200190815260200160002060008473ffffffffffffffffffffffffffffffffffffffff1673ffffffffffffffffffffffffffffffffffffffff168152602001908152602001600020805480602002602001604051908101604052809291908181526020018280548015610d1e57602002820191906000526020600020905b815481526020019060010190808311610d0a575b505050505091505092915050565b60008054906101000a900473ffffffffffffffffffffffffffffffffffffffff1673ffffffffffffffffffffffffffffffffffffffff163373ffffffffffffffffffffffffffffffffffffffff1614610dba576040517f08c379a0000000000000000000000000000000000000000000000000000000008152600401610db1906189ee565b60405180910390fd5b60008111610dfd576040517f08c379a0000000000000000000000000000000000000000000000000000000008152600401610df490618f6d565b60405180910390fd5b8060058190555050565b60008054906101000a900473ffffffffffffffffffffffffffffffffffffffff1673ffffffffffffffffffffffffffffffffffffffff163373ffffffffffffffffffffffffffffffffffffffff1614610e95576040517f08c379a0000000000000000000000000000000000000000000000000000000008152600401610e8c906189ee565b60405180910390fd5b60008111610ed8576040517f08c379a0000000000000000000000000000000000000000000000000000000008152600401610ecf90618f6d565b60405180910390fd5b8060048190555050565b600080610eee856106e5565b9050600060648260400151610f039190618fbc565b84610f0e9190618fed565b90506000670de0b6b3a764000082610f269190618fbc565b85610f31919061882e565b905060008360c001518460a00151610f499190618fed565b905060008773ffffffffffffffffffffffffffffffffffffffff16856060015173ffffffffffffffffffffffffffffffffffffffff1603610fc3578460a0015183610f94919061902f565b82610f9f9190618fbc565b90506000818660c00151610fb3919061882e565b9050809650505050505050611074565b8773ffffffffffffffffffffffffffffffffffffffff16856080015173ffffffffffffffffffffffffffffffffffffffff1603611039578460c001518361100a919061902f565b826110159190618fbc565b90506000818660a00151611029919061882e565b9050809650505050505050611074565b6040517f08c379a000000000000000000000000000000000000000000000000000000000815260040161106b906190d5565b60405180910390fd5b9392505050565b60608260008111801561109357506006805490508111155b6110d2576040517f08c379a00000000000000000000000000000000000000000000000000000000081526004016110c990618edb565b60405180910390fd5b6008600085815260200190815260200160002060008473ffffffffffffffffffffffffffffffffffffffff1673ffffffffffffffffffffffffffffffffffffffff16815260200190815260200160002080548060200260200160405190810160405280929190818152602001828054801561116c57602002820191906000526020600020905b815481526020019060010190808311611158575b505050505091505092915050565b600160009054906101000a900473ffffffffffffffffffffffffffffffffffffffff1681565b60055481565b600060011515600a60003373ffffffffffffffffffffffffffffffffffffffff1673ffffffffffffffffffffffffffffffffffffffff16815260200190815260200160002060009054906101000a900460ff1615151461123b576040517f08c379a000000000000000000000000000000000000000000000000000000000815260040161123290619167565b60405180910390fd5b838360008211801561124d5750600081115b61128c576040517f08c379a000000000000000000000000000000000000000000000000000000000815260040161128390618f6d565b60405180910390fd5b8360008111801561129f57506004548111155b6112de576040517f08c379a00000000000000000000000000000000000000000000000000000000081526004016112d59061921f565b60405180910390fd5b6040516020016112ed90618a3f565b60405160208183030381529060405280519060200120600360008b73ffffffffffffffffffffffffffffffffffffffff1673ffffffffffffffffffffffffffffffffffffffff1681526020019081526020016000206040516020016113529190618b4c565b60405160208183030381529060405280519060200120141580156113fe575060405160200161138090618a3f565b60405160208183030381529060405280519060200120600360008a73ffffffffffffffffffffffffffffffffffffffff1673ffffffffffffffffffffffffffffffffffffffff1681526020019081526020016000206040516020016113e59190618b4c565b6040516020818303038152906040528051906020012014155b61143d576040517f08c379a0000000000000000000000000000000000000000000000000000000008152600401611434906192b1565b60405180910390fd5b8773ffffffffffffffffffffffffffffffffffffffff168973ffffffffffffffffffffffffffffffffffffffff16036114ab576040517f08c379a00000000000000000000000000000000000000000000000000000000081526004016114a290619343565b60405180910390fd5b60036000600160009054906101000a900473ffffffffffffffffffffffffffffffffffffffff1673ffffffffffffffffffffffffffffffffffffffff1673ffffffffffffffffffffffffffffffffffffffff16815260200190815260200160002060405160200161151c9190618b4c565b60405160208183030381529060405280519060200120600360008b73ffffffffffffffffffffffffffffffffffffffff1673ffffffffffffffffffffffffffffffffffffffff1681526020019081526020016000206040516020016115819190618b4c565b604051602081830303815290604052805190602001200361166a578634146115de576040517f08c379a00000000000000000000000000000000000000000000000000000000081526004016115d5906193fb565b60405180910390fd5b60008890508073ffffffffffffffffffffffffffffffffffffffff166323b872dd33308a6040518463ffffffff1660e01b81526004016116209392919061941b565b6020604051808303816000875af115801561163f573d6000803e3d6000fd5b505050506040513d601f19601f82011682018060405250810190611663919061947e565b50506118f5565b60036000600160009054906101000a900473ffffffffffffffffffffffffffffffffffffffff1673ffffffffffffffffffffffffffffffffffffffff1673ffffffffffffffffffffffffffffffffffffffff1681526020019081526020016000206040516020016116db9190618b4c565b60405160208183030381529060405280519060200120600360008a73ffffffffffffffffffffffffffffffffffffffff1673ffffffffffffffffffffffffffffffffffffffff1681526020019081526020016000206040516020016117409190618b4c565b60405160208183030381529060405280519060200120036117a25785341461179d576040517f08c379a0000000000000000000000000000000000000000000000000000000008152600401611794906193fb565b60405180910390fd5b61186d565b600034146117e5576040517f08c379a00000000000000000000000000000000000000000000000000000000081526004016117dc9061951d565b60405180910390fd5b60008890508073ffffffffffffffffffffffffffffffffffffffff166323b872dd33308a6040518463ffffffff1660e01b81526004016118279392919061941b565b6020604051808303816000875af1158015611846573d6000803e3d6000fd5b505050506040513d601f19601f8201168201806040525081019061186a919061947e565b50505b60008990508073ffffffffffffffffffffffffffffffffffffffff166323b872dd33308b6040518463ffffffff1660e01b81526004016118af9392919061941b565b6020604051808303816000875af11580156118ce573d6000803e3d6000fd5b505050506040513d601f19601f820116820180604052508101906118f2919061947e565b50505b60006001600680549050611909919061902f565b905061191b818b8b898c8c8e8e616511565b60405180602001604052803373ffffffffffffffffffffffffffffffffffffffff1673ffffffffffffffffffffffffffffffffffffffff1681525060096000838152602001908152602001600020906001611977929190617bb9565b506040518060400160405280670de0b6b3a764000067ffffffffffffffff168152602001670de0b6b3a764000067ffffffffffffffff168152506007600083815260200190815260200160002060003373ffffffffffffffffffffffffffffffffffffffff1673ffffffffffffffffffffffffffffffffffffffff168152602001908152602001600020906002611a0f929190617c43565b506040518060400160405280600060ff168152602001600060ff168152506008600083815260200190815260200160002060003373ffffffffffffffffffffffffffffffffffffffff1673ffffffffffffffffffffffffffffffffffffffff168152602001908152602001600020906002611a8b929190617c9c565b506040518060400160405280600060ff168152602001600060ff168152506008600083815260200190815260200160002060003073ffffffffffffffffffffffffffffffffffffffff1673ffffffffffffffffffffffffffffffffffffffff168152602001908152602001600020906002611b07929190617c9c565b50600194505050505095945050505050565b60008060009054906101000a900473ffffffffffffffffffffffffffffffffffffffff16905090565b606081600081118015611b5a57506006805490508111155b611b99576040517f08c379a0000000000000000000000000000000000000000000000000000000008152600401611b9090618edb565b60405180910390fd5b60096000848152602001908152602001600020805480602002602001604051908101604052809291908181526020018280548015611c2c57602002820191906000526020600020905b8160009054906101000a900473ffffffffffffffffffffffffffffffffffffffff1673ffffffffffffffffffffffffffffffffffffffff1681526020019060010190808311611be2575b5050505050915050919050565b60606002805480602002602001604051908101604052809291908181526020018280548015611cbd57602002820191906000526020600020905b8160009054906101000a900473ffffffffffffffffffffffffffffffffffffffff1673ffffffffffffffffffffffffffffffffffffffff1681526020019060010190808311611c73575b5050505050905090565b600081600073ffffffffffffffffffffffffffffffffffffffff168173ffffffffffffffffffffffffffffffffffffffff1603611d39576040517f08c379a0000000000000000000000000000000000000000000000000000000008152600401611d309061895c565b60405180910390fd5b60008054906101000a900473ffffffffffffffffffffffffffffffffffffffff1673ffffffffffffffffffffffffffffffffffffffff163373ffffffffffffffffffffffffffffffffffffffff1614611dc7576040517f08c379a0000000000000000000000000000000000000000000000000000000008152600401611dbe906189ee565b60405180910390fd5b604051602001611dd690618a3f565b60405160208183030381529060405280519060200120600360008573ffffffffffffffffffffffffffffffffffffffff1673ffffffffffffffffffffffffffffffffffffffff168152602001908152602001600020604051602001611e3b9190618b4c565b6040516020818303038152906040528051906020012003611e91576040517f08c379a0000000000000000000000000000000000000000000000000000000008152600401611e88906192b1565b60405180910390fd5b600360008473ffffffffffffffffffffffffffffffffffffffff1673ffffffffffffffffffffffffffffffffffffffff1681526020019081526020016000206000611edc9190617cee565b600080600090505b600280549050811015611f79578473ffffffffffffffffffffffffffffffffffffffff1660028281548110611f1c57611f1b618862565b5b9060005260206000200160009054906101000a900473ffffffffffffffffffffffffffffffffffffffff1673ffffffffffffffffffffffffffffffffffffffff1603611f66578091505b8080611f7190618891565b915050611ee4565b5060008190505b6001600280549050611f92919061882e565b811015612053576002600182611fa8919061902f565b81548110611fb957611fb8618862565b5b9060005260206000200160009054906101000a900473ffffffffffffffffffffffffffffffffffffffff1660028281548110611ff857611ff7618862565b5b9060005260206000200160006101000a81548173ffffffffffffffffffffffffffffffffffffffff021916908373ffffffffffffffffffffffffffffffffffffffff160217905550808061204b90618891565b915050611f80565b5060028054806120665761206561953d565b5b6001900381819060005260206000200160006101000a81549073ffffffffffffffffffffffffffffffffffffffff02191690559055428473ffffffffffffffffffffffffffffffffffffffff163073ffffffffffffffffffffffffffffffffffffffff167f31aa85030f2ea4aebae73e40795e8201f9d2b9fe760d68a36a992f5f8e79ddf760405160405180910390a4600192505050919050565b6006818154811061211157600080fd5b90600052602060002090600b02016000915090508060000154908060010160009054906101000a900473ffffffffffffffffffffffffffffffffffffffff16908060020154908060030160009054906101000a900473ffffffffffffffffffffffffffffffffffffffff16908060040160009054906101000a900473ffffffffffffffffffffffffffffffffffffffff169080600501549080600601549080600701549080600801549080600901549080600a015490508b565b6000846000811180156121e357506006805490508111155b612222576040517f08c379a000000000000000000000000000000000000000000000000000000000815260040161221990618edb565b60405180910390fd5b84846000821180156122345750600081115b612273576040517f08c379a000000000000000000000000000000000000000000000000000000000815260040161226a90618f6d565b60405180910390fd5b6000600660018a612284919061882e565b8154811061229557612294618862565b5b90600052602060002090600b020160405180610160016040529081600082015481526020016001820160009054906101000a900473ffffffffffffffffffffffffffffffffffffffff1673ffffffffffffffffffffffffffffffffffffffff1673ffffffffffffffffffffffffffffffffffffffff168152602001600282015481526020016003820160009054906101000a900473ffffffffffffffffffffffffffffffffffffffff1673ffffffffffffffffffffffffffffffffffffffff1673ffffffffffffffffffffffffffffffffffffffff1681526020016004820160009054906101000a900473ffffffffffffffffffffffffffffffffffffffff1673ffffffffffffffffffffffffffffffffffffffff1673ffffffffffffffffffffffffffffffffffffffff1681526020016005820154815260200160068201548152602001600782015481526020016008820154815260200160098201548152602001600a82015481525050905060008160600151905060008260800151905060036000600160009054906101000a900473ffffffffffffffffffffffffffffffffffffffff1673ffffffffffffffffffffffffffffffffffffffff1673ffffffffffffffffffffffffffffffffffffffff1681526020019081526020016000206040516020016124869190618b4c565b6040516020818303038152906040528051906020012060036000856060015173ffffffffffffffffffffffffffffffffffffffff1673ffffffffffffffffffffffffffffffffffffffff1681526020019081526020016000206040516020016124ef9190618b4c565b6040516020818303038152906040528051906020012003612caa5789341461254c576040517f08c379a0000000000000000000000000000000000000000000000000000000008152600401612543906193fb565b60405180910390fd5b600061255c8c8560600151615be8565b9050600080620186a0836125709190618fbc565b1115612597578b620186a0836125869190618fbc565b6125909190618fed565b90506125b4565b620186a08c836125a79190618fed565b6125b19190618fbc565b90505b600081116125f7576040517f08c379a00000000000000000000000000000000000000000000000000000000081526004016125ee906195de565b60405180910390fd5b8981111561263a576040517f08c379a000000000000000000000000000000000000000000000000000000000815260040161263190619696565b60405180910390fd5b8273ffffffffffffffffffffffffffffffffffffffff166323b872dd3330846040518463ffffffff1660e01b81526004016126779392919061941b565b6020604051808303816000875af1158015612696573d6000803e3d6000fd5b505050506040513d601f19601f820116820180604052508101906126ba919061947e565b508b8560a001516126cb919061902f565b600660018f6126da919061882e565b815481106126eb576126ea618862565b5b90600052602060002090600b020160050181905550808560c00151612710919061902f565b600660018f61271f919061882e565b815481106127305761272f618862565b5b90600052602060002090600b0201600601819055508b8560e00151612755919061902f565b600660018f612764919061882e565b8154811061277557612774618862565b5b90600052602060002090600b0201600701819055508085610100015161279b919061902f565b600660018f6127aa919061882e565b815481106127bb576127ba618862565b5b90600052602060002090600b0201600801819055506127da8d33616775565b1561285457600960008e8152602001908152602001600020339080600181540180825580915050600190039060005260206000200160009091909190916101000a81548173ffffffffffffffffffffffffffffffffffffffff021916908373ffffffffffffffffffffffffffffffffffffffff1602179055505b6000856101200151118061286d57506000856101400151115b15612aea57600085610120015111801561288c57506000856101400151115b15612aaa578460a001518561012001518d6128a79190618fed565b6128b19190618fbc565b600760008f815260200190815260200160002060003373ffffffffffffffffffffffffffffffffffffffff1673ffffffffffffffffffffffffffffffffffffffff16815260200190815260200160002060008154811061291457612913618862565b5b90600052602060002001600082825461292d919061902f565b925050819055508460c001518561014001518261294a9190618fed565b6129549190618fbc565b600760008f815260200190815260200160002060003373ffffffffffffffffffffffffffffffffffffffff1673ffffffffffffffffffffffffffffffffffffffff1681526020019081526020016000206001815481106129b7576129b6618862565b5b9060005260206000200160008282546129d0919061902f565b925050819055508460a001518561012001518d6129ed9190618fed565b6129f79190618fbc565b600660018f612a06919061882e565b81548110612a1757612a16618862565b5b90600052602060002090600b02016009016000828254612a37919061902f565b925050819055508460c0015185610140015182612a549190618fed565b612a5e9190618fbc565b600660018f612a6d919061882e565b81548110612a7e57612a7d618862565b5b90600052602060002090600b0201600a016000828254612a9e919061902f565b92505081905550612ae5565b6040517f08c379a0000000000000000000000000000000000000000000000000000000008152600401612adc90619728565b60405180910390fd5b612ca3565b670de0b6b3a7640000600760008f815260200190815260200160002060003373ffffffffffffffffffffffffffffffffffffffff1673ffffffffffffffffffffffffffffffffffffffff168152602001908152602001600020600081548110612b5657612b55618862565b5b906000526020600020016000828254612b6f919061902f565b92505081905550670de0b6b3a7640000600760008f815260200190815260200160002060003373ffffffffffffffffffffffffffffffffffffffff1673ffffffffffffffffffffffffffffffffffffffff168152602001908152602001600020600181548110612be257612be1618862565b5b906000526020600020016000828254612bfb919061902f565b92505081905550670de0b6b3a7640000600660018f612c1a919061882e565b81548110612c2b57612c2a618862565b5b90600052602060002090600b02016009016000828254612c4b919061902f565b92505081905550670de0b6b3a7640000600660018f612c6a919061882e565b81548110612c7b57612c7a618862565b5b90600052602060002090600b0201600a016000828254612c9b919061902f565b925050819055505b5050613d5e565b60036000600160009054906101000a900473ffffffffffffffffffffffffffffffffffffffff1673ffffffffffffffffffffffffffffffffffffffff1673ffffffffffffffffffffffffffffffffffffffff168152602001908152602001600020604051602001612d1b9190618b4c565b6040516020818303038152906040528051906020012060036000856080015173ffffffffffffffffffffffffffffffffffffffff1673ffffffffffffffffffffffffffffffffffffffff168152602001908152602001600020604051602001612d849190618b4c565b604051602081830303815290604052805190602001200361353f57883414612de1576040517f08c379a0000000000000000000000000000000000000000000000000000000008152600401612dd8906193fb565b60405180910390fd5b6000612df18c8560800151615be8565b9050600080620186a083612e059190618fbc565b1115612e2c578a620186a083612e1b9190618fbc565b612e259190618fed565b9050612e49565b620186a08b83612e3c9190618fed565b612e469190618fbc565b90505b60008111612e8c576040517f08c379a0000000000000000000000000000000000000000000000000000000008152600401612e83906195de565b60405180910390fd5b89811115612ecf576040517f08c379a0000000000000000000000000000000000000000000000000000000008152600401612ec690619696565b60405180910390fd5b8373ffffffffffffffffffffffffffffffffffffffff166323b872dd3330846040518463ffffffff1660e01b8152600401612f0c9392919061941b565b6020604051808303816000875af1158015612f2b573d6000803e3d6000fd5b505050506040513d601f19601f82011682018060405250810190612f4f919061947e565b50808560a00151612f60919061902f565b600660018f612f6f919061882e565b81548110612f8057612f7f618862565b5b90600052602060002090600b0201600501819055508a8560c00151612fa5919061902f565b600660018f612fb4919061882e565b81548110612fc557612fc4618862565b5b90600052602060002090600b020160060181905550808560e00151612fea919061902f565b600660018f612ff9919061882e565b8154811061300a57613009618862565b5b90600052602060002090600b0201600701819055508a856101000151613030919061902f565b600660018f61303f919061882e565b815481106130505761304f618862565b5b90600052602060002090600b02016008018190555061306f8d33616775565b156130e957600960008e8152602001908152602001600020339080600181540180825580915050600190039060005260206000200160009091909190916101000a81548173ffffffffffffffffffffffffffffffffffffffff021916908373ffffffffffffffffffffffffffffffffffffffff1602179055505b6000856101200151118061310257506000856101400151115b1561337f57600085610120015111801561312157506000856101400151115b1561333f578460a001518561012001518261313c9190618fed565b6131469190618fbc565b600760008f815260200190815260200160002060003373ffffffffffffffffffffffffffffffffffffffff1673ffffffffffffffffffffffffffffffffffffffff1681526020019081526020016000206000815481106131a9576131a8618862565b5b9060005260206000200160008282546131c2919061902f565b925050819055508460c001518561014001518c6131df9190618fed565b6131e99190618fbc565b600760008f815260200190815260200160002060003373ffffffffffffffffffffffffffffffffffffffff1673ffffffffffffffffffffffffffffffffffffffff16815260200190815260200160002060018154811061324c5761324b618862565b5b906000526020600020016000828254613265919061902f565b925050819055508460a00151856101200151826132829190618fed565b61328c9190618fbc565b600660018f61329b919061882e565b815481106132ac576132ab618862565b5b90600052602060002090600b020160090160008282546132cc919061902f565b925050819055508460c001518561014001518c6132e99190618fed565b6132f39190618fbc565b600660018f613302919061882e565b8154811061331357613312618862565b5b90600052602060002090600b0201600a016000828254613333919061902f565b9250508190555061337a565b6040517f08c379a000000000000000000000000000000000000000000000000000000000815260040161337190619728565b60405180910390fd5b613538565b670de0b6b3a7640000600760008f815260200190815260200160002060003373ffffffffffffffffffffffffffffffffffffffff1673ffffffffffffffffffffffffffffffffffffffff1681526020019081526020016000206000815481106133eb576133ea618862565b5b906000526020600020016000828254613404919061902f565b92505081905550670de0b6b3a7640000600760008f815260200190815260200160002060003373ffffffffffffffffffffffffffffffffffffffff1673ffffffffffffffffffffffffffffffffffffffff16815260200190815260200160002060018154811061347757613476618862565b5b906000526020600020016000828254613490919061902f565b92505081905550670de0b6b3a7640000600660018f6134af919061882e565b815481106134c0576134bf618862565b5b90600052602060002090600b020160090160008282546134e0919061902f565b92505081905550670de0b6b3a7640000600660018f6134ff919061882e565b815481106135105761350f618862565b5b90600052602060002090600b0201600a016000828254613530919061902f565b925050819055505b5050613d5d565b60003414613582576040517f08c379a00000000000000000000000000000000000000000000000000000000081526004016135799061951d565b60405180910390fd5b60006135928c8560600151615be8565b9050600080620186a0836135a69190618fbc565b11156135cd578b620186a0836135bc9190618fbc565b6135c69190618fed565b90506135ea565b620186a08c836135dd9190618fed565b6135e79190618fbc565b90505b6000811161362d576040517f08c379a0000000000000000000000000000000000000000000000000000000008152600401613624906195de565b60405180910390fd5b89811115613670576040517f08c379a000000000000000000000000000000000000000000000000000000000815260040161366790619696565b60405180910390fd5b8373ffffffffffffffffffffffffffffffffffffffff166323b872dd33308f6040518463ffffffff1660e01b81526004016136ad9392919061941b565b6020604051808303816000875af11580156136cc573d6000803e3d6000fd5b505050506040513d601f19601f820116820180604052508101906136f0919061947e565b508273ffffffffffffffffffffffffffffffffffffffff166323b872dd3330846040518463ffffffff1660e01b815260040161372e9392919061941b565b6020604051808303816000875af115801561374d573d6000803e3d6000fd5b505050506040513d601f19601f82011682018060405250810190613771919061947e565b508b8560a00151613782919061902f565b600660018f613791919061882e565b815481106137a2576137a1618862565b5b90600052602060002090600b020160050181905550808560c001516137c7919061902f565b600660018f6137d6919061882e565b815481106137e7576137e6618862565b5b90600052602060002090600b0201600601819055508b8560e0015161380c919061902f565b600660018f61381b919061882e565b8154811061382c5761382b618862565b5b90600052602060002090600b02016007018190555080856101000151613852919061902f565b600660018f613861919061882e565b8154811061387257613871618862565b5b90600052602060002090600b0201600801819055506138918d33616775565b1561390b57600960008e8152602001908152602001600020339080600181540180825580915050600190039060005260206000200160009091909190916101000a81548173ffffffffffffffffffffffffffffffffffffffff021916908373ffffffffffffffffffffffffffffffffffffffff1602179055505b6000856101200151118061392457506000856101400151115b15613ba157600085610120015111801561394357506000856101400151115b15613b61578460a001518561012001518d61395e9190618fed565b6139689190618fbc565b600760008f815260200190815260200160002060003373ffffffffffffffffffffffffffffffffffffffff1673ffffffffffffffffffffffffffffffffffffffff1681526020019081526020016000206000815481106139cb576139ca618862565b5b9060005260206000200160008282546139e4919061902f565b925050819055508460c0015185610140015182613a019190618fed565b613a0b9190618fbc565b600760008f815260200190815260200160002060003373ffffffffffffffffffffffffffffffffffffffff1673ffffffffffffffffffffffffffffffffffffffff168152602001908152602001600020600181548110613a6e57613a6d618862565b5b906000526020600020016000828254613a87919061902f565b925050819055508460a001518561012001518d613aa49190618fed565b613aae9190618fbc565b600660018f613abd919061882e565b81548110613ace57613acd618862565b5b90600052602060002090600b02016009016000828254613aee919061902f565b925050819055508460c0015185610140015182613b0b9190618fed565b613b159190618fbc565b600660018f613b24919061882e565b81548110613b3557613b34618862565b5b90600052602060002090600b0201600a016000828254613b55919061902f565b92505081905550613b9c565b6040517f08c379a0000000000000000000000000000000000000000000000000000000008152600401613b9390619728565b60405180910390fd5b613d5a565b670de0b6b3a7640000600760008f815260200190815260200160002060003373ffffffffffffffffffffffffffffffffffffffff1673ffffffffffffffffffffffffffffffffffffffff168152602001908152602001600020600081548110613c0d57613c0c618862565b5b906000526020600020016000828254613c26919061902f565b92505081905550670de0b6b3a7640000600760008f815260200190815260200160002060003373ffffffffffffffffffffffffffffffffffffffff1673ffffffffffffffffffffffffffffffffffffffff168152602001908152602001600020600181548110613c9957613c98618862565b5b906000526020600020016000828254613cb2919061902f565b92505081905550670de0b6b3a7640000600660018f613cd1919061882e565b81548110613ce257613ce1618862565b5b90600052602060002090600b02016009016000828254613d02919061902f565b92505081905550670de0b6b3a7640000600660018f613d21919061882e565b81548110613d3257613d31618862565b5b90600052602060002090600b0201600a016000828254613d52919061902f565b925050819055505b50505b5b60019650505050505050949350505050565b60008054906101000a900473ffffffffffffffffffffffffffffffffffffffff1673ffffffffffffffffffffffffffffffffffffffff163373ffffffffffffffffffffffffffffffffffffffff1614613dfe576040517f08c379a0000000000000000000000000000000000000000000000000000000008152600401613df5906189ee565b60405180910390fd5b80600073ffffffffffffffffffffffffffffffffffffffff168173ffffffffffffffffffffffffffffffffffffffff1603613e6e576040517f08c379a0000000000000000000000000000000000000000000000000000000008152600401613e659061895c565b60405180910390fd5b6001600a60008473ffffffffffffffffffffffffffffffffffffffff1673ffffffffffffffffffffffffffffffffffffffff16815260200190815260200160002060006101000a81548160ff0219169083151502179055505050565b600085600081118015613ee257506006805490508111155b613f21576040517f08c379a0000000000000000000000000000000000000000000000000000000008152600401613f1890618edb565b60405180910390fd5b8473ffffffffffffffffffffffffffffffffffffffff168673ffffffffffffffffffffffffffffffffffffffff1603613f8f576040517f08c379a0000000000000000000000000000000000000000000000000000000008152600401613f8690619343565b60405180910390fd5b60008411613fd2576040517f08c379a0000000000000000000000000000000000000000000000000000000008152600401613fc9906197ba565b60405180910390fd5b60006006600189613fe3919061882e565b81548110613ff457613ff3618862565b5b90600052602060002090600b020160405180610160016040529081600082015481526020016001820160009054906101000a900473ffffffffffffffffffffffffffffffffffffffff1673ffffffffffffffffffffffffffffffffffffffff1673ffffffffffffffffffffffffffffffffffffffff168152602001600282015481526020016003820160009054906101000a900473ffffffffffffffffffffffffffffffffffffffff1673ffffffffffffffffffffffffffffffffffffffff1673ffffffffffffffffffffffffffffffffffffffff1681526020016004820160009054906101000a900473ffffffffffffffffffffffffffffffffffffffff1673ffffffffffffffffffffffffffffffffffffffff1673ffffffffffffffffffffffffffffffffffffffff1681526020016005820154815260200160068201548152602001600782015481526020016008820154815260200160098201548152602001600a8201548152505090508673ffffffffffffffffffffffffffffffffffffffff16816060015173ffffffffffffffffffffffffffffffffffffffff1614806141cf57508673ffffffffffffffffffffffffffffffffffffffff16816080015173ffffffffffffffffffffffffffffffffffffffff16145b61420e576040517f08c379a00000000000000000000000000000000000000000000000000000000081526004016142059061984c565b60405180910390fd5b8573ffffffffffffffffffffffffffffffffffffffff16816060015173ffffffffffffffffffffffffffffffffffffffff16148061427b57508573ffffffffffffffffffffffffffffffffffffffff16816080015173ffffffffffffffffffffffffffffffffffffffff16145b6142ba576040517f08c379a00000000000000000000000000000000000000000000000000000000081526004016142b19061984c565b60405180910390fd5b600160009054906101000a900473ffffffffffffffffffffffffffffffffffffffff1673ffffffffffffffffffffffffffffffffffffffff16816060015173ffffffffffffffffffffffffffffffffffffffff16148061436b5750600160009054906101000a900473ffffffffffffffffffffffffffffffffffffffff1673ffffffffffffffffffffffffffffffffffffffff16816080015173ffffffffffffffffffffffffffffffffffffffff16145b156151ce57600160009054906101000a900473ffffffffffffffffffffffffffffffffffffffff1673ffffffffffffffffffffffffffffffffffffffff16816060015173ffffffffffffffffffffffffffffffffffffffff1603614acb57600160009054906101000a900473ffffffffffffffffffffffffffffffffffffffff1673ffffffffffffffffffffffffffffffffffffffff168773ffffffffffffffffffffffffffffffffffffffff160361478a57843414614460576040517f08c379a0000000000000000000000000000000000000000000000000000000008152600401614457906193fb565b60405180910390fd5b6000606482604001516144739190618fbc565b8661447e9190618fed565b90506000670de0b6b3a7640000826144969190618fbc565b876144a1919061882e565b905060008360c001518460a001516144b99190618fed565b905060008460a00151836144cd919061902f565b826144d89190618fbc565b9050808560c0015111614520576040517f08c379a0000000000000000000000000000000000000000000000000000000008152600401614517906198de565b60405180910390fd5b6000818660c00151614532919061882e565b905088811015614577576040517f08c379a000000000000000000000000000000000000000000000000000000000815260040161456e90619996565b60405180910390fd5b838660a00151614587919061902f565b600660018f614596919061882e565b815481106145a7576145a6618862565b5b90600052602060002090600b02016005018190555081600660018f6145cc919061882e565b815481106145dd576145dc618862565b5b90600052602060002090600b020160060181905550838660e00151614602919061902f565b600660018f614611919061882e565b8154811061462257614621618862565b5b90600052602060002090600b02016007018190555080866101000151614648919061902f565b600660018f614657919061882e565b8154811061466857614667618862565b5b90600052602060002090600b0201600801819055506000866080015190508073ffffffffffffffffffffffffffffffffffffffff1663a9059cbb33846040518363ffffffff1660e01b81526004016146c19291906199b6565b6020604051808303816000875af11580156146e0573d6000803e3d6000fd5b505050506040513d601f19601f82011682018060405250810190614704919061947e565b506147178e886101200151886001616842565b848c73ffffffffffffffffffffffffffffffffffffffff168e73ffffffffffffffffffffffffffffffffffffffff167f2e05fc618ccc3aec7d710f137a131e0ab5b31af09fc6a0edb726dcd94b2e478f33866040516147779291906199b6565b60405180910390a4505050505050614ac6565b600034146147cd576040517f08c379a00000000000000000000000000000000000000000000000000000000081526004016147c49061951d565b60405180910390fd5b6147dc81608001513387616d54565b6000606482604001516147ef9190618fbc565b866147fa9190618fed565b90506000670de0b6b3a7640000826148129190618fbc565b8761481d919061882e565b905060008360a001518460c001516148359190618fed565b905060008460c0015183614849919061902f565b826148549190618fbc565b9050808560a001511161489c576040517f08c379a0000000000000000000000000000000000000000000000000000000008152600401614893906198de565b60405180910390fd5b6000818660a001516148ae919061882e565b9050888110156148f3576040517f08c379a00000000000000000000000000000000000000000000000000000000081526004016148ea90619996565b60405180910390fd5b838660c00151614903919061902f565b600660018f614912919061882e565b8154811061492357614922618862565b5b90600052602060002090600b02016006018190555081600660018f614948919061882e565b8154811061495957614958618862565b5b90600052602060002090600b0201600501819055508386610100015161497f919061902f565b600660018f61498e919061882e565b8154811061499f5761499e618862565b5b90600052602060002090600b020160080181905550808660e001516149c4919061902f565b600660018f6149d3919061882e565b815481106149e4576149e3618862565b5b90600052602060002090600b02016007018190555060003390508073ffffffffffffffffffffffffffffffffffffffff166108fc839081150290604051600060405180830381858888f19350505050158015614a44573d6000803e3d6000fd5b50614a578e886101400151886000616842565b848c73ffffffffffffffffffffffffffffffffffffffff168e73ffffffffffffffffffffffffffffffffffffffff167f2e05fc618ccc3aec7d710f137a131e0ab5b31af09fc6a0edb726dcd94b2e478f3386604051614ab79291906199b6565b60405180910390a45050505050505b6151c9565b600160009054906101000a900473ffffffffffffffffffffffffffffffffffffffff1673ffffffffffffffffffffffffffffffffffffffff168773ffffffffffffffffffffffffffffffffffffffff1603614e8c57843414614b62576040517f08c379a0000000000000000000000000000000000000000000000000000000008152600401614b59906193fb565b60405180910390fd5b600060648260400151614b759190618fbc565b86614b809190618fed565b90506000670de0b6b3a764000082614b989190618fbc565b87614ba3919061882e565b905060008360a001518460c00151614bbb9190618fed565b905060008460c0015183614bcf919061902f565b82614bda9190618fbc565b9050808560a0015111614c22576040517f08c379a0000000000000000000000000000000000000000000000000000000008152600401614c19906198de565b60405180910390fd5b6000818660a00151614c34919061882e565b905088811015614c79576040517f08c379a0000000000000000000000000000000000000000000000000000000008152600401614c7090619996565b60405180910390fd5b838660c00151614c89919061902f565b600660018f614c98919061882e565b81548110614ca957614ca8618862565b5b90600052602060002090600b02016006018190555081600660018f614cce919061882e565b81548110614cdf57614cde618862565b5b90600052602060002090600b02016005018190555083866101000151614d05919061902f565b600660018f614d14919061882e565b81548110614d2557614d24618862565b5b90600052602060002090600b020160080181905550808660e00151614d4a919061902f565b600660018f614d59919061882e565b81548110614d6a57614d69618862565b5b90600052602060002090600b0201600701819055506000866060015190508073ffffffffffffffffffffffffffffffffffffffff1663a9059cbb33846040518363ffffffff1660e01b8152600401614dc39291906199b6565b6020604051808303816000875af1158015614de2573d6000803e3d6000fd5b505050506040513d601f19601f82011682018060405250810190614e06919061947e565b50614e198e886101400151886000616842565b848c73ffffffffffffffffffffffffffffffffffffffff168e73ffffffffffffffffffffffffffffffffffffffff167f2e05fc618ccc3aec7d710f137a131e0ab5b31af09fc6a0edb726dcd94b2e478f3386604051614e799291906199b6565b60405180910390a45050505050506151c8565b60003414614ecf576040517f08c379a0000000000000000000000000000000000000000000000000000000008152600401614ec69061951d565b60405180910390fd5b614ede81606001513387616d54565b600060648260400151614ef19190618fbc565b86614efc9190618fed565b90506000670de0b6b3a764000082614f149190618fbc565b87614f1f919061882e565b905060008360c001518460a00151614f379190618fed565b905060008460a0015183614f4b919061902f565b82614f569190618fbc565b9050808560c0015111614f9e576040517f08c379a0000000000000000000000000000000000000000000000000000000008152600401614f95906198de565b60405180910390fd5b6000818660c00151614fb0919061882e565b905088811015614ff5576040517f08c379a0000000000000000000000000000000000000000000000000000000008152600401614fec90619996565b60405180910390fd5b838660a00151615005919061902f565b600660018f615014919061882e565b8154811061502557615024618862565b5b90600052602060002090600b02016005018190555081600660018f61504a919061882e565b8154811061505b5761505a618862565b5b90600052602060002090600b020160060181905550838660e00151615080919061902f565b600660018f61508f919061882e565b815481106150a05761509f618862565b5b90600052602060002090600b020160070181905550808661010001516150c6919061902f565b600660018f6150d5919061882e565b815481106150e6576150e5618862565b5b90600052602060002090600b02016008018190555060003390508073ffffffffffffffffffffffffffffffffffffffff166108fc839081150290604051600060405180830381858888f19350505050158015615146573d6000803e3d6000fd5b506151598e886101200151886001616842565b848c73ffffffffffffffffffffffffffffffffffffffff168e73ffffffffffffffffffffffffffffffffffffffff167f2e05fc618ccc3aec7d710f137a131e0ab5b31af09fc6a0edb726dcd94b2e478f33866040516151b99291906199b6565b60405180910390a45050505050505b5b6158b7565b60003414615211576040517f08c379a00000000000000000000000000000000000000000000000000000000081526004016152089061951d565b60405180910390fd5b806060015173ffffffffffffffffffffffffffffffffffffffff168773ffffffffffffffffffffffffffffffffffffffff16036155815761525781606001513387616d54565b60006064826040015161526a9190618fbc565b866152759190618fed565b90506000670de0b6b3a76400008261528d9190618fbc565b87615298919061882e565b905060008360c001518460a001516152b09190618fed565b905060008460a00151836152c4919061902f565b826152cf9190618fbc565b9050808560c0015111615317576040517f08c379a000000000000000000000000000000000000000000000000000000000815260040161530e906198de565b60405180910390fd5b6000818660c00151615329919061882e565b90508881101561536e576040517f08c379a000000000000000000000000000000000000000000000000000000000815260040161536590619996565b60405180910390fd5b838660a0015161537e919061902f565b600660018f61538d919061882e565b8154811061539e5761539d618862565b5b90600052602060002090600b02016005018190555081600660018f6153c3919061882e565b815481106153d4576153d3618862565b5b90600052602060002090600b020160060181905550838660e001516153f9919061902f565b600660018f615408919061882e565b8154811061541957615418618862565b5b90600052602060002090600b0201600701819055508086610100015161543f919061902f565b600660018f61544e919061882e565b8154811061545f5761545e618862565b5b90600052602060002090600b0201600801819055506000866080015190508073ffffffffffffffffffffffffffffffffffffffff1663a9059cbb33846040518363ffffffff1660e01b81526004016154b89291906199b6565b6020604051808303816000875af11580156154d7573d6000803e3d6000fd5b505050506040513d601f19601f820116820180604052508101906154fb919061947e565b5061550e8e886101200151886001616842565b848c73ffffffffffffffffffffffffffffffffffffffff168e73ffffffffffffffffffffffffffffffffffffffff167f2e05fc618ccc3aec7d710f137a131e0ab5b31af09fc6a0edb726dcd94b2e478f338660405161556e9291906199b6565b60405180910390a45050505050506158b6565b61559081608001513387616d54565b6000606482604001516155a39190618fbc565b866155ae9190618fed565b90506000670de0b6b3a7640000826155c69190618fbc565b876155d1919061882e565b905060008360a001518460c001516155e99190618fed565b905060008460c00151836155fd919061902f565b826156089190618fbc565b9050808560a0015111615650576040517f08c379a0000000000000000000000000000000000000000000000000000000008152600401615647906198de565b60405180910390fd5b6000818660a00151615662919061882e565b9050888110156156a7576040517f08c379a000000000000000000000000000000000000000000000000000000000815260040161569e90619996565b60405180910390fd5b838660c001516156b7919061902f565b600660018f6156c6919061882e565b815481106156d7576156d6618862565b5b90600052602060002090600b02016006018190555081600660018f6156fc919061882e565b8154811061570d5761570c618862565b5b90600052602060002090600b02016005018190555083866101000151615733919061902f565b600660018f615742919061882e565b8154811061575357615752618862565b5b90600052602060002090600b020160080181905550808660e00151615778919061902f565b600660018f615787919061882e565b8154811061579857615797618862565b5b90600052602060002090600b0201600701819055506000866060015190508073ffffffffffffffffffffffffffffffffffffffff1663a9059cbb33846040518363ffffffff1660e01b81526004016157f19291906199b6565b6020604051808303816000875af1158015615810573d6000803e3d6000fd5b505050506040513d601f19601f82011682018060405250810190615834919061947e565b506158478e886101400151886000616842565b848c73ffffffffffffffffffffffffffffffffffffffff168e73ffffffffffffffffffffffffffffffffffffffff167f2e05fc618ccc3aec7d710f137a131e0ab5b31af09fc6a0edb726dcd94b2e478f33866040516158a79291906199b6565b60405180910390a45050505050505b5b60019250505095945050505050565b6000856000811180156158de57506006805490508111155b61591d576040517f08c379a000000000000000000000000000000000000000000000000000000000815260040161591490618edb565b60405180910390fd5b858560008211801561592f5750600081115b61596e576040517f08c379a000000000000000000000000000000000000000000000000000000000815260040161596590618f6d565b60405180910390fd5b883360006007600084815260200190815260200160002060008373ffffffffffffffffffffffffffffffffffffffff1673ffffffffffffffffffffffffffffffffffffffff1681526020019081526020016000206000815481106159d5576159d4618862565b5b90600052602060002001541180615a59575060006007600084815260200190815260200160002060008373ffffffffffffffffffffffffffffffffffffffff1673ffffffffffffffffffffffffffffffffffffffff168152602001908152602001600020600181548110615a4c57615a4b618862565b5b9060005260206000200154115b615a98576040517f08c379a0000000000000000000000000000000000000000000000000000000008152600401615a8f90619a77565b60405180910390fd5b8a338b8b816007600086815260200190815260200160002060008573ffffffffffffffffffffffffffffffffffffffff1673ffffffffffffffffffffffffffffffffffffffff168152602001908152602001600020600081548110615b0057615aff618862565b5b906000526020600020015410158015615b865750806007600086815260200190815260200160002060008573ffffffffffffffffffffffffffffffffffffffff1673ffffffffffffffffffffffffffffffffffffffff168152602001908152602001600020600181548110615b7857615b77618862565b5b906000526020600020015410155b615bc5576040517f08c379a0000000000000000000000000000000000000000000000000000000008152600401615bbc90619b09565b60405180910390fd5b615bd28f8f8f8f8f616de0565b6001995050505050505050505095945050505050565b6000806006600185615bfa919061882e565b81548110615c0b57615c0a618862565b5b90600052602060002090600b020160405180610160016040529081600082015481526020016001820160009054906101000a900473ffffffffffffffffffffffffffffffffffffffff1673ffffffffffffffffffffffffffffffffffffffff1673ffffffffffffffffffffffffffffffffffffffff168152602001600282015481526020016003820160009054906101000a900473ffffffffffffffffffffffffffffffffffffffff1673ffffffffffffffffffffffffffffffffffffffff1673ffffffffffffffffffffffffffffffffffffffff1681526020016004820160009054906101000a900473ffffffffffffffffffffffffffffffffffffffff1673ffffffffffffffffffffffffffffffffffffffff1673ffffffffffffffffffffffffffffffffffffffff1681526020016005820154815260200160068201548152602001600782015481526020016008820154815260200160098201548152602001600a8201548152505090508273ffffffffffffffffffffffffffffffffffffffff16816060015173ffffffffffffffffffffffffffffffffffffffff1603615de05760008160c0015190508160a00151620186a082615dcd9190618fed565b615dd79190618fbc565b92505050615e88565b8273ffffffffffffffffffffffffffffffffffffffff16816080015173ffffffffffffffffffffffffffffffffffffffff1603615e4d5760008160a00151905060008260c00151905080620186a083615e399190618fed565b615e439190618fbc565b9350505050615e88565b6040517f08c379a0000000000000000000000000000000000000000000000000000000008152600401615e7f906190d5565b60405180910390fd5b92915050565b60606006805480602002602001604051908101604052809291908181526020016000905b8282101561603757838290600052602060002090600b020160405180610160016040529081600082015481526020016001820160009054906101000a900473ffffffffffffffffffffffffffffffffffffffff1673ffffffffffffffffffffffffffffffffffffffff1673ffffffffffffffffffffffffffffffffffffffff168152602001600282015481526020016003820160009054906101000a900473ffffffffffffffffffffffffffffffffffffffff1673ffffffffffffffffffffffffffffffffffffffff1673ffffffffffffffffffffffffffffffffffffffff1681526020016004820160009054906101000a900473ffffffffffffffffffffffffffffffffffffffff1673ffffffffffffffffffffffffffffffffffffffff1673ffffffffffffffffffffffffffffffffffffffff1681526020016005820154815260200160068201548152602001600782015481526020016008820154815260200160098201548152602001600a8201548152505081526020019060010190615eb2565b50505050905090565b6000806006600186616052919061882e565b8154811061606357616062618862565b5b90600052602060002090600b020160405180610160016040529081600082015481526020016001820160009054906101000a900473ffffffffffffffffffffffffffffffffffffffff1673ffffffffffffffffffffffffffffffffffffffff1673ffffffffffffffffffffffffffffffffffffffff168152602001600282015481526020016003820160009054906101000a900473ffffffffffffffffffffffffffffffffffffffff1673ffffffffffffffffffffffffffffffffffffffff1673ffffffffffffffffffffffffffffffffffffffff1681526020016004820160009054906101000a900473ffffffffffffffffffffffffffffffffffffffff1673ffffffffffffffffffffffffffffffffffffffff1673ffffffffffffffffffffffffffffffffffffffff1681526020016005820154815260200160068201548152602001600782015481526020016008820154815260200160098201548152602001600a82015481525050905060008060008673ffffffffffffffffffffffffffffffffffffffff16846060015173ffffffffffffffffffffffffffffffffffffffff16148061624357508673ffffffffffffffffffffffffffffffffffffffff16846080015173ffffffffffffffffffffffffffffffffffffffff16145b156162b6578673ffffffffffffffffffffffffffffffffffffffff16846060015173ffffffffffffffffffffffffffffffffffffffff160361629a57836060015192508360a00151915083610120015190506162b1565b836080015192508360c00151915083610140015190505b6162f1565b6040517f08c379a00000000000000000000000000000000000000000000000000000000081526004016162e8906190d5565b60405180910390fd5b600082111561633e57600081620186a08861630c9190618fed565b6163169190618fbc565b9050620186a083826163289190618fed565b6163329190618fbc565b95505050505050616346565b859450505050505b9392505050565b60008054906101000a900473ffffffffffffffffffffffffffffffffffffffff1673ffffffffffffffffffffffffffffffffffffffff163373ffffffffffffffffffffffffffffffffffffffff16146163db576040517f08c379a00000000000000000000000000000000000000000000000000000000081526004016163d2906189ee565b60405180910390fd5b60008054906101000a900473ffffffffffffffffffffffffffffffffffffffff1673ffffffffffffffffffffffffffffffffffffffff168173ffffffffffffffffffffffffffffffffffffffff1603616469576040517f08c379a000000000000000000000000000000000000000000000000000000000815260040161646090619b9b565b60405180910390fd5b600a60008273ffffffffffffffffffffffffffffffffffffffff1673ffffffffffffffffffffffffffffffffffffffff16815260200190815260200160002060006101000a81549060ff021916905550565b6000600a60008373ffffffffffffffffffffffffffffffffffffffff1673ffffffffffffffffffffffffffffffffffffffff16815260200190815260200160002060009054906101000a900460ff169050919050565b60066040518061016001604052808a81526020013373ffffffffffffffffffffffffffffffffffffffff1681526020018781526020018973ffffffffffffffffffffffffffffffffffffffff1681526020018873ffffffffffffffffffffffffffffffffffffffff168152602001868152602001858152602001848152602001838152602001670de0b6b3a76400008152602001670de0b6b3a764000081525090806001815401808255809150506001900390600052602060002090600b02016000909190919091506000820151816000015560208201518160010160006101000a81548173ffffffffffffffffffffffffffffffffffffffff021916908373ffffffffffffffffffffffffffffffffffffffff1602179055506040820151816002015560608201518160030160006101000a81548173ffffffffffffffffffffffffffffffffffffffff021916908373ffffffffffffffffffffffffffffffffffffffff16021790555060808201518160040160006101000a81548173ffffffffffffffffffffffffffffffffffffffff021916908373ffffffffffffffffffffffffffffffffffffffff16021790555060a0820151816005015560c0820151816006015560e082015181600701556101008201518160080155610120820151816009015561014082015181600a015550508573ffffffffffffffffffffffffffffffffffffffff168773ffffffffffffffffffffffffffffffffffffffff167ffd03227651435cb906f1d1921a27a709d5237fe24579355a301f30ea79c745ee33426040516167639291906199b6565b60405180910390a35050505050505050565b6000806001905060005b6009600086815260200190815260200160002080549050811015616837578373ffffffffffffffffffffffffffffffffffffffff166009600087815260200190815260200160002082815481106167d9576167d8618862565b5b9060005260206000200160009054906101000a900473ffffffffffffffffffffffffffffffffffffffff1673ffffffffffffffffffffffffffffffffffffffff160361682457600091505b808061682f90618891565b91505061677f565b508091505092915050565b6000670de0b6b3a764000080846168599190618fbc565b60646005546168689190618fbc565b6168729190618fed565b61687c9190618fbc565b9050811561690d57806008600087815260200190815260200160002060003073ffffffffffffffffffffffffffffffffffffffff1673ffffffffffffffffffffffffffffffffffffffff1681526020019081526020016000206000815481106168e8576168e7618862565b5b906000526020600020016000828254616901919061902f565b92505081905550616992565b806008600087815260200190815260200160002060003073ffffffffffffffffffffffffffffffffffffffff1673ffffffffffffffffffffffffffffffffffffffff16815260200190815260200160002060018154811061697157616970618862565b5b90600052602060002001600082825461698a919061902f565b925050819055505b600081670de0b6b3a7640000856169a99190618fbc565b6169b3919061882e565b905060005b6009600088815260200190815260200160002080549050811015616d4b578315616b8c57600086600760008a81526020019081526020016000206000600960008c81526020019081526020016000208581548110616a1957616a18618862565b5b9060005260206000200160009054906101000a900473ffffffffffffffffffffffffffffffffffffffff1673ffffffffffffffffffffffffffffffffffffffff1673ffffffffffffffffffffffffffffffffffffffff168152602001908152602001600020600081548110616a9157616a90618862565b5b906000526020600020015484616aa79190618fed565b616ab19190618fbc565b905080600860008a81526020019081526020016000206000600960008c81526020019081526020016000208581548110616aee57616aed618862565b5b9060005260206000200160009054906101000a900473ffffffffffffffffffffffffffffffffffffffff1673ffffffffffffffffffffffffffffffffffffffff1673ffffffffffffffffffffffffffffffffffffffff168152602001908152602001600020600081548110616b6657616b65618862565b5b906000526020600020016000828254616b7f919061902f565b9250508190555050616d38565b600086600760008a81526020019081526020016000206000600960008c81526020019081526020016000208581548110616bc957616bc8618862565b5b9060005260206000200160009054906101000a900473ffffffffffffffffffffffffffffffffffffffff1673ffffffffffffffffffffffffffffffffffffffff1673ffffffffffffffffffffffffffffffffffffffff168152602001908152602001600020600181548110616c4157616c40618862565b5b906000526020600020015484616c579190618fed565b616c619190618fbc565b905080600860008a81526020019081526020016000206000600960008c81526020019081526020016000208581548110616c9e57616c9d618862565b5b9060005260206000200160009054906101000a900473ffffffffffffffffffffffffffffffffffffffff1673ffffffffffffffffffffffffffffffffffffffff1673ffffffffffffffffffffffffffffffffffffffff168152602001908152602001600020600181548110616d1657616d15618862565b5b906000526020600020016000828254616d2f919061902f565b92505081905550505b8080616d4390618891565b9150506169b8565b50505050505050565b60008390508073ffffffffffffffffffffffffffffffffffffffff166323b872dd8430856040518463ffffffff1660e01b8152600401616d969392919061941b565b6020604051808303816000875af1158015616db5573d6000803e3d6000fd5b505050506040513d601f19601f82011682018060405250810190616dd9919061947e565b5050505050565b60006006600187616df1919061882e565b81548110616e0257616e01618862565b5b90600052602060002090600b020160405180610160016040529081600082015481526020016001820160009054906101000a900473ffffffffffffffffffffffffffffffffffffffff1673ffffffffffffffffffffffffffffffffffffffff1673ffffffffffffffffffffffffffffffffffffffff168152602001600282015481526020016003820160009054906101000a900473ffffffffffffffffffffffffffffffffffffffff1673ffffffffffffffffffffffffffffffffffffffff1673ffffffffffffffffffffffffffffffffffffffff1681526020016004820160009054906101000a900473ffffffffffffffffffffffffffffffffffffffff1673ffffffffffffffffffffffffffffffffffffffff1673ffffffffffffffffffffffffffffffffffffffff1681526020016005820154815260200160068201548152602001600782015481526020016008820154815260200160098201548152602001600a8201548152505090506000616f8187836060015188616040565b90506000616f9488846080015188616040565b90506000616fa6898560600151615be8565b9050600080620186a083616fba9190618fbc565b1115616fe15783620186a083616fd09190618fbc565b616fda9190618fed565b9050616ffe565b620186a08483616ff19190618fed565b616ffb9190618fbc565b90505b808314617040576040517f08c379a000000000000000000000000000000000000000000000000000000000815260040161703790619c2d565b60405180910390fd5b85811015617083576040517f08c379a000000000000000000000000000000000000000000000000000000000815260040161707a90619996565b60405180910390fd5b868410156170c6576040517f08c379a00000000000000000000000000000000000000000000000000000000081526004016170bd90619996565b60405180910390fd5b6170d38a8a8a87856170df565b50505050505050505050565b600060066001876170f0919061882e565b8154811061710157617100618862565b5b90600052602060002090600b020160405180610160016040529081600082015481526020016001820160009054906101000a900473ffffffffffffffffffffffffffffffffffffffff1673ffffffffffffffffffffffffffffffffffffffff1673ffffffffffffffffffffffffffffffffffffffff168152602001600282015481526020016003820160009054906101000a900473ffffffffffffffffffffffffffffffffffffffff1673ffffffffffffffffffffffffffffffffffffffff1673ffffffffffffffffffffffffffffffffffffffff1681526020016004820160009054906101000a900473ffffffffffffffffffffffffffffffffffffffff1673ffffffffffffffffffffffffffffffffffffffff1673ffffffffffffffffffffffffffffffffffffffff1681526020016005820154815260200160068201548152602001600782015481526020016008820154815260200160098201548152602001600a820154815250509050600081606001519050600082608001519050848360a00151617291919061882e565b600660018a6172a0919061882e565b815481106172b1576172b0618862565b5b90600052602060002090600b020160050181905550838360c001516172d6919061882e565b600660018a6172e5919061882e565b815481106172f6576172f5618862565b5b90600052602060002090600b02016006018190555086600760008a815260200190815260200160002060003373ffffffffffffffffffffffffffffffffffffffff1673ffffffffffffffffffffffffffffffffffffffff16815260200190815260200160002060008154811061736f5761736e618862565b5b906000526020600020016000828254617388919061882e565b9250508190555085600760008a815260200190815260200160002060003373ffffffffffffffffffffffffffffffffffffffff1673ffffffffffffffffffffffffffffffffffffffff1681526020019081526020016000206001815481106173f3576173f2618862565b5b90600052602060002001600082825461740c919061882e565b9250508190555086836101200151617424919061882e565b600660018a617433919061882e565b8154811061744457617443618862565b5b90600052602060002090600b0201600901819055508583610140015161746a919061882e565b600660018a617479919061882e565b8154811061748a57617489618862565b5b90600052602060002090600b0201600a018190555060036000600160009054906101000a900473ffffffffffffffffffffffffffffffffffffffff1673ffffffffffffffffffffffffffffffffffffffff1673ffffffffffffffffffffffffffffffffffffffff1681526020019081526020016000206040516020016175109190618b4c565b6040516020818303038152906040528051906020012060036000856060015173ffffffffffffffffffffffffffffffffffffffff1673ffffffffffffffffffffffffffffffffffffffff1681526020019081526020016000206040516020016175799190618b4c565b60405160208183030381529060405280519060200120036176615760003390508073ffffffffffffffffffffffffffffffffffffffff166108fc879081150290604051600060405180830381858888f193505050501580156175df573d6000803e3d6000fd5b508173ffffffffffffffffffffffffffffffffffffffff1663a9059cbb33876040518363ffffffff1660e01b815260040161761b9291906199b6565b6020604051808303816000875af115801561763a573d6000803e3d6000fd5b505050506040513d601f19601f8201168201806040525081019061765e919061947e565b50505b60036000600160009054906101000a900473ffffffffffffffffffffffffffffffffffffffff1673ffffffffffffffffffffffffffffffffffffffff1673ffffffffffffffffffffffffffffffffffffffff1681526020019081526020016000206040516020016176d29190618b4c565b6040516020818303038152906040528051906020012060036000856080015173ffffffffffffffffffffffffffffffffffffffff1673ffffffffffffffffffffffffffffffffffffffff16815260200190815260200160002060405160200161773b9190618b4c565b60405160208183030381529060405280519060200120036178235760003390508073ffffffffffffffffffffffffffffffffffffffff166108fc869081150290604051600060405180830381858888f193505050501580156177a1573d6000803e3d6000fd5b508273ffffffffffffffffffffffffffffffffffffffff1663a9059cbb33886040518363ffffffff1660e01b81526004016177dd9291906199b6565b6020604051808303816000875af11580156177fc573d6000803e3d6000fd5b505050506040513d601f19601f82011682018060405250810190617820919061947e565b50505b60036000600160009054906101000a900473ffffffffffffffffffffffffffffffffffffffff1673ffffffffffffffffffffffffffffffffffffffff1673ffffffffffffffffffffffffffffffffffffffff1681526020019081526020016000206040516020016178949190618b4c565b6040516020818303038152906040528051906020012060036000856060015173ffffffffffffffffffffffffffffffffffffffff1673ffffffffffffffffffffffffffffffffffffffff1681526020019081526020016000206040516020016178fd9190618b4c565b6040516020818303038152906040528051906020012014158015617a0f575060036000600160009054906101000a900473ffffffffffffffffffffffffffffffffffffffff1673ffffffffffffffffffffffffffffffffffffffff1673ffffffffffffffffffffffffffffffffffffffff16815260200190815260200160002060405160200161798d9190618b4c565b6040516020818303038152906040528051906020012060036000856080015173ffffffffffffffffffffffffffffffffffffffff1673ffffffffffffffffffffffffffffffffffffffff1681526020019081526020016000206040516020016179f69190618b4c565b6040516020818303038152906040528051906020012014155b15617b13578173ffffffffffffffffffffffffffffffffffffffff1663a9059cbb33876040518363ffffffff1660e01b8152600401617a4f9291906199b6565b6020604051808303816000875af1158015617a6e573d6000803e3d6000fd5b505050506040513d601f19601f82011682018060405250810190617a92919061947e565b508073ffffffffffffffffffffffffffffffffffffffff1663a9059cbb33866040518363ffffffff1660e01b8152600401617ace9291906199b6565b6020604051808303816000875af1158015617aed573d6000803e3d6000fd5b505050506040513d601f19601f82011682018060405250810190617b11919061947e565b505b5050505050505050565b60405180610160016040528060008152602001600073ffffffffffffffffffffffffffffffffffffffff16815260200160008152602001600073ffffffffffffffffffffffffffffffffffffffff168152602001600073ffffffffffffffffffffffffffffffffffffffff1681526020016000815260200160008152602001600081526020016000815260200160008152602001600081525090565b828054828255906000526020600020908101928215617c32579160200282015b82811115617c315782518260006101000a81548173ffffffffffffffffffffffffffffffffffffffff021916908373ffffffffffffffffffffffffffffffffffffffff16021790555091602001919060010190617bd9565b5b509050617c3f9190617d2e565b5090565b828054828255906000526020600020908101928215617c8b579160200282015b82811115617c8a578251829067ffffffffffffffff16905591602001919060010190617c63565b5b509050617c989190617d2e565b5090565b828054828255906000526020600020908101928215617cdd579160200282015b82811115617cdc578251829060ff16905591602001919060010190617cbc565b5b509050617cea9190617d2e565b5090565b508054617cfa90618a83565b6000825580601f10617d0c5750617d2b565b601f016020900490600052602060002090810190617d2a9190617d2e565b5b50565b5b80821115617d47576000816000905550600101617d2f565b5090565b6000819050919050565b617d5e81617d4b565b82525050565b6000602082019050617d796000830184617d55565b92915050565b6000604051905090565b600080fd5b600080fd5b617d9c81617d4b565b8114617da757600080fd5b50565b600081359050617db981617d93565b92915050565b600060208284031215617dd557617dd4617d89565b5b6000617de384828501617daa565b91505092915050565b617df581617d4b565b82525050565b600073ffffffffffffffffffffffffffffffffffffffff82169050919050565b6000617e2682617dfb565b9050919050565b617e3681617e1b565b82525050565b61016082016000820151617e536000850182617dec565b506020820151617e666020850182617e2d565b506040820151617e796040850182617dec565b506060820151617e8c6060850182617e2d565b506080820151617e9f6080850182617e2d565b5060a0820151617eb260a0850182617dec565b5060c0820151617ec560c0850182617dec565b5060e0820151617ed860e0850182617dec565b50610100820151617eed610100850182617dec565b50610120820151617f02610120850182617dec565b50610140820151617f17610140850182617dec565b50505050565b600061016082019050617f336000830184617e3c565b92915050565b617f4281617e1b565b8114617f4d57600080fd5b50565b600081359050617f5f81617f39565b92915050565b60008060408385031215617f7c57617f7b617d89565b5b6000617f8a85828601617daa565b9250506020617f9b85828601617f50565b9150509250929050565b60008115159050919050565b617fba81617fa5565b82525050565b6000602082019050617fd56000830184617fb1565b92915050565b600080fd5b600080fd5b6000601f19601f8301169050919050565b7f4e487b7100000000000000000000000000000000000000000000000000000000600052604160045260246000fd5b61802e82617fe5565b810181811067ffffffffffffffff8211171561804d5761804c617ff6565b5b80604052505050565b6000618060617d7f565b905061806c8282618025565b919050565b600067ffffffffffffffff82111561808c5761808b617ff6565b5b61809582617fe5565b9050602081019050919050565b82818337600083830152505050565b60006180c46180bf84618071565b618056565b9050828152602081018484840111156180e0576180df617fe0565b5b6180eb8482856180a2565b509392505050565b600082601f83011261810857618107617fdb565b5b81356181188482602086016180b1565b91505092915050565b6000806040838503121561813857618137617d89565b5b600061814685828601617f50565b925050602083013567ffffffffffffffff81111561816757618166617d8e565b5b618173858286016180f3565b9150509250929050565b600081519050919050565b600082825260208201905092915050565b6000819050602082019050919050565b60006181b58383617dec565b60208301905092915050565b6000602082019050919050565b60006181d98261817d565b6181e38185618188565b93506181ee83618199565b8060005b8381101561821f57815161820688826181a9565b9750618211836181c1565b9250506001810190506181f2565b5085935050505092915050565b6000602082019050818103600083015261824681846181ce565b905092915050565b60008060006060848603121561826757618266617d89565b5b600061827586828701617daa565b935050602061828686828701617f50565b925050604061829786828701617daa565b9150509250925092565b6182aa81617e1b565b82525050565b60006020820190506182c560008301846182a1565b92915050565b600080600080600060a086880312156182e7576182e6617d89565b5b60006182f588828901617f50565b955050602061830688828901617f50565b945050604061831788828901617daa565b935050606061832888828901617daa565b925050608061833988828901617daa565b9150509295509295909350565b600081519050919050565b600082825260208201905092915050565b6000819050602082019050919050565b600061837e8383617e2d565b60208301905092915050565b6000602082019050919050565b60006183a282618346565b6183ac8185618351565b93506183b783618362565b8060005b838110156183e85781516183cf8882618372565b97506183da8361838a565b9250506001810190506183bb565b5085935050505092915050565b6000602082019050818103600083015261840f8184618397565b905092915050565b60006020828403121561842d5761842c617d89565b5b600061843b84828501617f50565b91505092915050565b60006101608201905061845a600083018e617d55565b618467602083018d6182a1565b618474604083018c617d55565b618481606083018b6182a1565b61848e608083018a6182a1565b61849b60a0830189617d55565b6184a860c0830188617d55565b6184b560e0830187617d55565b6184c3610100830186617d55565b6184d1610120830185617d55565b6184df610140830184617d55565b9c9b505050505050505050505050565b6000806000806080858703121561850957618508617d89565b5b600061851787828801617daa565b945050602061852887828801617daa565b935050604061853987828801617daa565b925050606061854a87828801617daa565b91505092959194509250565b600080600080600060a0868803121561857257618571617d89565b5b600061858088828901617daa565b955050602061859188828901617f50565b94505060406185a288828901617f50565b93505060606185b388828901617daa565b92505060806185c488828901617daa565b9150509295509295909350565b600080600080600060a086880312156185ed576185ec617d89565b5b60006185fb88828901617daa565b955050602061860c88828901617daa565b945050604061861d88828901617daa565b935050606061862e88828901617daa565b925050608061863f88828901617daa565b9150509295509295909350565b600081519050919050565b600082825260208201905092915050565b6000819050602082019050919050565b6101608201600082015161868f6000850182617dec565b5060208201516186a26020850182617e2d565b5060408201516186b56040850182617dec565b5060608201516186c86060850182617e2d565b5060808201516186db6080850182617e2d565b5060a08201516186ee60a0850182617dec565b5060c082015161870160c0850182617dec565b5060e082015161871460e0850182617dec565b50610100820151618729610100850182617dec565b5061012082015161873e610120850182617dec565b50610140820151618753610140850182617dec565b50505050565b60006187658383618678565b6101608301905092915050565b6000602082019050919050565b600061878a8261864c565b6187948185618657565b935061879f83618668565b8060005b838110156187d05781516187b78882618759565b97506187c283618772565b9250506001810190506187a3565b5085935050505092915050565b600060208201905081810360008301526187f7818461877f565b905092915050565b7f4e487b7100000000000000000000000000000000000000000000000000000000600052601160045260246000fd5b600061883982617d4b565b915061884483617d4b565b925082820390508181111561885c5761885b6187ff565b5b92915050565b7f4e487b7100000000000000000000000000000000000000000000000000000000600052603260045260246000fd5b600061889c82617d4b565b91507fffffffffffffffffffffffffffffffffffffffffffffffffffffffffffffffff82036188ce576188cd6187ff565b5b600182019050919050565b600082825260208201905092915050565b7f5354422d535741505f455252383a20496e76616c69642061646472657373207060008201527f6173736564000000000000000000000000000000000000000000000000000000602082015250565b60006189466025836188d9565b9150618951826188ea565b604082019050919050565b6000602082019050818103600083015261897581618939565b9050919050565b7f5354422d535741505f455252393a204f6e6c7920636f6e74726163742061646d60008201527f696e2063616e2063616c6c20746869732066756e6374696f6e00000000000000602082015250565b60006189d86039836188d9565b91506189e38261897c565b604082019050919050565b60006020820190508181036000830152618a07816189cb565b9050919050565b600081905092915050565b50565b6000618a29600083618a0e565b9150618a3482618a19565b600082019050919050565b6000618a4a82618a1c565b9150819050919050565b7f4e487b7100000000000000000000000000000000000000000000000000000000600052602260045260246000fd5b60006002820490506001821680618a9b57607f821691505b602082108103618aae57618aad618a54565b5b50919050565b60008190508160005260206000209050919050565b60008154618ad681618a83565b618ae08186618a0e565b94506001821660008114618afb5760018114618b1057618b43565b60ff1983168652811515820286019350618b43565b618b1985618ab4565b60005b83811015618b3b57815481890152600182019150602081019050618b1c565b838801955050505b50505092915050565b6000618b588284618ac9565b915081905092915050565b7f5354422d535741505f45525232303a20746f6b656e2073656c6563746564206960008201527f7320616c7265616479206c697374656400000000000000000000000000000000602082015250565b6000618bbf6030836188d9565b9150618bca82618b63565b604082019050919050565b60006020820190508181036000830152618bee81618bb2565b9050919050565b600081519050919050565b60006020601f8301049050919050565b600082821b905092915050565b600060088302618c4d7fffffffffffffffffffffffffffffffffffffffffffffffffffffffffffffffff82618c10565b618c578683618c10565b95508019841693508086168417925050509392505050565b6000819050919050565b6000618c94618c8f618c8a84617d4b565b618c6f565b617d4b565b9050919050565b6000819050919050565b618cae83618c79565b618cc2618cba82618c9b565b848454618c1d565b825550505050565b600090565b618cd7618cca565b618ce2818484618ca5565b505050565b5b81811015618d0657618cfb600082618ccf565b600181019050618ce8565b5050565b601f821115618d4b57618d1c81618ab4565b618d2584618c00565b81016020851015618d34578190505b618d48618d4085618c00565b830182618ce7565b50505b505050565b600082821c905092915050565b6000618d6e60001984600802618d50565b1980831691505092915050565b6000618d878383618d5d565b9150826002028217905092915050565b618da082618bf5565b67ffffffffffffffff811115618db957618db8617ff6565b5b618dc38254618a83565b618dce828285618d0a565b600060209050601f831160018114618e015760008415618def578287015190505b618df98582618d7b565b865550618e61565b601f198416618e0f86618ab4565b60005b82811015618e3757848901518255600182019150602085019450602081019050618e12565b86831015618e545784890151618e50601f891682618d5d565b8355505b6001600288020188555050505b505050505050565b7f5354422d535741505f455252373a20506f6f6c20646f6573206e6f742065786960008201527f7374000000000000000000000000000000000000000000000000000000000000602082015250565b6000618ec56022836188d9565b9150618ed082618e69565b604082019050919050565b60006020820190508181036000830152618ef481618eb8565b9050919050565b7f5354422d535741505f45525231303a20616d6f756e742063616e6e6f7420626560008201527f207a65726f000000000000000000000000000000000000000000000000000000602082015250565b6000618f576025836188d9565b9150618f6282618efb565b604082019050919050565b60006020820190508181036000830152618f8681618f4a565b9050919050565b7f4e487b7100000000000000000000000000000000000000000000000000000000600052601260045260246000fd5b6000618fc782617d4b565b9150618fd283617d4b565b925082618fe257618fe1618f8d565b5b828204905092915050565b6000618ff882617d4b565b915061900383617d4b565b925082820261901181617d4b565b91508282048414831517619028576190276187ff565b5b5092915050565b600061903a82617d4b565b915061904583617d4b565b925082820190508082111561905d5761905c6187ff565b5b92915050565b7f5354422d535741505f455252333a20746f6b656e2070617373656420646f657360008201527f206e6f7420657869737420696e20706f6f6c0000000000000000000000000000602082015250565b60006190bf6032836188d9565b91506190ca82619063565b604082019050919050565b600060208201905081810360008301526190ee816190b2565b9050919050565b7f5354422d535741505f455252393a204f6e6c7920617574686f72697a6564207560008201527f736572732063616e2063616c6c20746869732066756e6374696f6e0000000000602082015250565b6000619151603b836188d9565b915061915c826190f5565b604082019050919050565b6000602082019050818103600083015261918081619144565b9050919050565b7f5354422d535741505f45525231313a20666565206d757374206265206772656160008201527f746572207468616e207a65726f20616e64206c6573736572207468616e206d6160208201527f7820666565000000000000000000000000000000000000000000000000000000604082015250565b60006192096045836188d9565b915061921482619187565b606082019050919050565b60006020820190508181036000830152619238816191fc565b9050919050565b7f5354422d535741505f45525231323a20746f6b656e2073656c6563746564206960008201527f73206e6f74206c69737465640000000000000000000000000000000000000000602082015250565b600061929b602c836188d9565b91506192a68261923f565b604082019050919050565b600060208201905081810360008301526192ca8161928e565b9050919050565b7f5354422d535741505f45525231373a20746f6b656e732063616e6e6f7420626560008201527f207468652073616d650000000000000000000000000000000000000000000000602082015250565b600061932d6029836188d9565b9150619338826192d1565b604082019050919050565b6000602082019050818103600083015261935c81619320565b9050919050565b7f5354422d535741505f455252313a206174746163686564206465706f7369742060008201527f616e642058444320616d6f756e7420706173736564206973206e6f742074686560208201527f2073616d65000000000000000000000000000000000000000000000000000000604082015250565b60006193e56045836188d9565b91506193f082619363565b606082019050919050565b60006020820190508181036000830152619414816193d8565b9050919050565b600060608201905061943060008301866182a1565b61943d60208301856182a1565b61944a6040830184617d55565b949350505050565b61945b81617fa5565b811461946657600080fd5b50565b60008151905061947881619452565b92915050565b60006020828403121561949457619493617d89565b5b60006194a284828501619469565b91505092915050565b7f5354422d535741505f455252323a206174746163686564206465706f7369742060008201527f6d757374206265207a65726f0000000000000000000000000000000000000000602082015250565b6000619507602c836188d9565b9150619512826194ab565b604082019050919050565b60006020820190508181036000830152619536816194fa565b9050919050565b7f4e487b7100000000000000000000000000000000000000000000000000000000600052603160045260246000fd5b7f5354425f2d535741505f455252333a20746f6b656e2070726963652066726f6d60008201527f20706f6f6c206973203000000000000000000000000000000000000000000000602082015250565b60006195c8602a836188d9565b91506195d38261956c565b604082019050919050565b600060208201905081810360008301526195f7816195bb565b9050919050565b7f5354425f2d535741505f455252343a20746f6b656e20616d6f756e742064756560008201527f20746f20706f6f6c2069732067726561746572207468616e206d617820616d6f60208201527f756e74207365742066726f6d20736c6970706167650000000000000000000000604082015250565b60006196806055836188d9565b915061968b826195fe565b606082019050919050565b600060208201905081810360008301526196af81619673565b9050919050565b7f5354422d535741505f45525231383a20756e6578706563746564206572726f7260008201527f207769746820706f6f6c20736861726573000000000000000000000000000000602082015250565b60006197126031836188d9565b915061971d826196b6565b604082019050919050565b6000602082019050818103600083015261974181619705565b9050919050565b7f5354422d535741505f45525231353a20616d6f756e742063616e6e6f7420626560008201527f207a65726f283029000000000000000000000000000000000000000000000000602082015250565b60006197a46028836188d9565b91506197af82619748565b604082019050919050565b600060208201905081810360008301526197d381619797565b9050919050565b7f5354422d535741505f455252353a20546f6b656e2070617373656420646f657360008201527f206e6f742065786973747320696e20706f6f6c00000000000000000000000000602082015250565b60006198366033836188d9565b9150619841826197da565b604082019050919050565b6000602082019050818103600083015261986581619829565b9050919050565b7f5354422d535741505f455252363a20496e73756666696369656e74204c69717560008201527f6964697479000000000000000000000000000000000000000000000000000000602082015250565b60006198c86025836188d9565b91506198d38261986c565b604082019050919050565b600060208201905081810360008301526198f7816198bb565b9050919050565b7f5354422d535741505f455252343a20746f6b656e20616d6f756e74206475652060008201527f746f20706f6f6c206973206c6573736572207468616e206d696e696d756d206160208201527f6d6f756e742066726f6d20736c69707061676500000000000000000000000000604082015250565b60006199806053836188d9565b915061998b826198fe565b606082019050919050565b600060208201905081810360008301526199af81619973565b9050919050565b60006040820190506199cb60008301856182a1565b6199d86020830184617d55565b9392505050565b7f5354422d535741505f45525231333a206f6e6c7920706f6f6c2070726f76696460008201527f6572732077697468207368617265206d6f7265207468616e20302063616e206360208201527f616c6c20746869732066756e6374696f6e000000000000000000000000000000604082015250565b6000619a616051836188d9565b9150619a6c826199df565b606082019050919050565b60006020820190508181036000830152619a9081619a54565b9050919050565b7f5354422d535741505f45525231343a496e73756666696369656e74206c69717560008201527f69646974792062616c616e636500000000000000000000000000000000000000602082015250565b6000619af3602d836188d9565b9150619afe82619a97565b604082019050919050565b60006020820190508181036000830152619b2281619ae6565b9050919050565b7f5354422d535741505f45525231363a2063616e20756e6174686f72697a65206360008201527f6f6e7472616374206f776e657200000000000000000000000000000000000000602082015250565b6000619b85602d836188d9565b9150619b9082619b29565b604082019050919050565b60006020820190508181036000830152619bb481619b78565b9050919050565b7f5354422d535741505f45525231393a20556578706563746564206572726f722060008201527f64756520746f20746f6b656e3220616d6f757420706173736564000000000000602082015250565b6000619c17603a836188d9565b9150619c2282619bbb565b604082019050919050565b60006020820190508181036000830152619c4681619c0a565b905091905056fea26469706673582212200b327cc7d97ec90e1aae1ba6b6e32bf46f186e5e0737d6a6b1250b4fb166e9f564736f6c63430008110033",
  "immutableReferences": {},
  "source": "// SPDX-License-Identifier: MIT\npragma solidity >=0.5.11 < 0.9.0;\n\nimport {ISTC} from \"./Stc.sol\";\n\ncontract STBSWAP {\n    address private _owner;\n\n    address public xdcTokenContract;\n\n    address [] private listedTokens;\n\n    mapping (address => string) private _tokenSymbols;\n\n    uint256 public maxFee;\n\n    uint256 public stbSwapPerc;\n\n    struct Pool{\n        uint256 poolId;\n        address poolOwner;\n        uint256 totalFee;\n        address token1;\n        address token2;\n        uint256 token1Liq;\n        uint256 token2Liq;\n        uint256 token1Vol;\n        uint256 token2Vol;\n        uint256 totalToken1Share;\n        uint256 totalToken2Share;\n    }\n\n    Pool [] public pools;\n\n    mapping(uint256 => mapping(address => uint256 [])) private _sharesPerPool;\n\n    mapping(uint256 => mapping(address => uint256 [])) private _profitPerPool;\n\n    mapping(uint256 => address []) private _liquidityProvs;\n\n    mapping (address => bool) private _isAuthorized;\n\n    event PoolCreation(address creator, address indexed token1, address indexed token2, uint256 time);\n    event Welcoming(address indexed from, address indexed to, uint indexed time);\n    event Blacklisting(address indexed from, address indexed to, uint indexed time);\n    event TokenSwap(address account, address indexed tokenFrom, address indexed tokenTo, uint256 indexed amountIn, uint256 amountOut);\n\n\n    constructor(address stcContract, address _xdctokenContract, string memory stcSymbol, string memory xdcSymbol, uint256 _maxFee, uint256 stbPerc) {\n        maxFee = _maxFee;\n        stbSwapPerc = stbPerc;\n        _owner = msg.sender;\n        xdcTokenContract = _xdctokenContract;\n        listedTokens.push(stcContract);\n        listedTokens.push(_xdctokenContract);\n        _tokenSymbols[stcContract] = stcSymbol;\n        _tokenSymbols[_xdctokenContract] = xdcSymbol;\n        _isAuthorized[msg.sender] = true;\n    }\n\n    modifier validatePool(uint256 poolId) {\n        require(poolId > 0 && poolId <= pools.length, \"STB-SWAP_ERR7: Pool does not exist\");\n        _;\n    }\n\n    modifier validateAddress(address account) {\n        require(account != address(0), \"STB-SWAP_ERR8: Invalid address passed\");\n        _;\n    }\n\n    modifier isOwner() {\n        require(msg.sender == _owner, \"STB-SWAP_ERR9: Only contract admin can call this function\");\n        _;\n    }\n\n    modifier authorized() {\n        require(_isAuthorized[msg.sender] == true, \"STB-SWAP_ERR9: Only authorized users can call this function\");\n        _;\n    }\n\n    modifier validateAmounts(uint256 amount1, uint256 amount2) {\n        require(amount1 > 0 && amount2 > 0, \"STB-SWAP_ERR10: amount cannot be zero\");\n        _;\n    }\n\n    modifier validateFee(uint256 fee) {\n        require(fee > 0 && fee <= maxFee, \"STB-SWAP_ERR11: fee must be greater than zero and lesser than max fee\");\n        _;\n    }\n\n    modifier validateProv(uint256 poolId, address account) {\n        require(_sharesPerPool[poolId][account][0] > 0 || _sharesPerPool[poolId][account][1] > 0, \"STB-SWAP_ERR13: only pool providers with share more than 0 can call this function\");\n        _;\n    }\n\n    modifier validateLiqBalance(uint256 poolId, address account, uint256 amount1, uint256 amount2) {\n        require(_sharesPerPool[poolId][account][0] >= amount1 && _sharesPerPool[poolId][account][1] >= amount2, \"STB-SWAP_ERR14:Insufficient liquidity balance\");\n        _;\n    }\n\n    //-----READ FUNCTIONS-------\n    function getPool(uint256 poolId) public view returns(Pool memory) {\n        return pools[poolId - 1];\n    }\n\n    //gets price of atoken from pool(price returned must be divided by 100000 to get actual \n    function tokenPriceFromPool(uint256 poolId, address tokenId) public view returns(uint256) {\n        Pool memory pool = pools[poolId - 1];\n        if(pool.token1 == tokenId) {\n            uint256 token2Liq;\n            token2Liq = pool.token2Liq;\n            return (token2Liq * 100000) / pool.token1Liq;\n        }else{\n            if(pool.token2 == tokenId) {\n                uint256 token2Liq = pool.token1Liq;\n               uint256 token1Liq = pool.token2Liq;\n               return (token2Liq * 100000) / token1Liq;\n            }else{\n                revert(\"STB-SWAP_ERR3: token passed does not exist in pool\");\n            }\n        }\n    }\n\n\n    function isAProvider(uint256 poolId, address account) external view returns(bool) {\n        bool prov = false;\n        for(uint i = 0; i < _liquidityProvs[poolId].length; i++) {\n            if(_liquidityProvs[poolId][i] == account) {\n                prov = true;\n            }\n        }\n        return prov;\n    }\n\n    function getShare(uint poolId, address account) external validatePool(poolId) view returns(uint256 [] memory) {\n        return _sharesPerPool[poolId][account];\n    }\n\n    function getProfit(uint poolId, address account) external validatePool(poolId) view returns(uint256 [] memory) {\n        return _profitPerPool[poolId][account];\n    }\n\n    function liquidityProviders(uint poolId) external validatePool(poolId) view returns(address [] memory) {\n        return _liquidityProvs[poolId];\n    }\n\n    function owner() external view returns(address) {\n        return _owner;\n    }\n\n    function isAuthorized(address account) external  view returns(bool) {\n        return _isAuthorized[account];\n    }\n\n    function getAllPools() external  view returns(Pool [] memory) {\n        return pools;\n    }\n\n    function getAllListedTokens() external  view returns(address [] memory) {\n        return listedTokens;\n    }\n\n    function getAmountOutFromSwap(uint256 poolId, address token, uint256 amount) external  view returns(uint256) {\n        Pool memory pool = getPool(poolId);\n        uint256 totalCharges = amount * (pool.totalFee/ 100);\n        uint256 amountAfterFee = amount - (totalCharges / 1000000000000000000);\n        uint256 const = (pool.token1Liq * pool.token2Liq);\n        uint256 newLiq;\n        if(pool.token1 == token) {\n            newLiq = const / (amountAfterFee + pool.token1Liq);\n             uint256 amountOut = pool.token2Liq - newLiq;\n             return amountOut;\n        }else{\n            if(pool.token2 == token) {\n                newLiq = const / (amountAfterFee + pool.token2Liq);\n                uint256 amountOut = pool.token1Liq - newLiq;\n                return amountOut;\n            }else{\n                revert(\"STB-SWAP_ERR3: token passed does not exist in pool\");\n            }\n        }\n    }\n\n    //-----WRITE FUNCTIONS-------   \n    \n    function _createPool (uint256 id, address token1, address token2, uint256 fee, uint256 liq1, uint256 liq2, uint256 vol1, uint256 vol2) internal {\n        pools.push(Pool(id, msg.sender, fee, token1, token2, liq1, liq2, vol1, vol2, 1000000000000000000, 1000000000000000000));\n        emit PoolCreation(msg.sender, token1,  token2, block.timestamp);\n    }\n\n    function createPool (address token1, address token2, uint256 token1Amt, uint256 token2Amt, uint256 fee) external authorized() validateAmounts(token1Amt, token2Amt) validateFee(fee) payable returns(bool) {\n        require(keccak256(abi.encodePacked(_tokenSymbols[token1])) != keccak256(abi.encodePacked(\"\")) && \n         keccak256(abi.encodePacked(_tokenSymbols[token2])) != keccak256(abi.encodePacked(\"\")), \"STB-SWAP_ERR12: token selected is not listed\");\n        require(token1 != token2, \"STB-SWAP_ERR17: tokens cannot be the same\");\n        if(keccak256(abi.encodePacked(_tokenSymbols[token1])) == keccak256(abi.encodePacked(_tokenSymbols[xdcTokenContract]))) {\n            require(msg.value == token1Amt, \"STB-SWAP_ERR1: attached deposit and XDC amount passed is not the same\");\n            ISTC token2Contract = ISTC(token2);\n            token2Contract.transferFrom(msg.sender, address(this), token2Amt);\n        }else {\n            if(keccak256(abi.encodePacked(_tokenSymbols[token2])) == keccak256(abi.encodePacked(_tokenSymbols[xdcTokenContract]))) {\n                require(msg.value == token2Amt, \"STB-SWAP_ERR1: attached deposit and XDC amount passed is not the same\");\n            }else{\n                require(msg.value == 0, \"STB-SWAP_ERR2: attached deposit must be zero\");\n                ISTC token2Contract = ISTC(token2);\n                token2Contract.transferFrom(msg.sender, address(this), token2Amt);\n            }\n            ISTC token1Contract = ISTC(token1);\n            token1Contract.transferFrom(msg.sender, address(this), token1Amt);\n        }\n        uint256 id = pools.length + 1;\n        _createPool(id, token1, token2, fee, token1Amt, token2Amt, token1Amt, token2Amt);\n        _liquidityProvs[id] = [msg.sender];\n        _sharesPerPool[id][msg.sender] = [1000000000000000000, 1000000000000000000];\n        _profitPerPool[id][msg.sender] = [0, 0];\n        _profitPerPool[id][address(this)] = [0, 0];\n        return true;\n    }\n    \n    function _isNotProvider(uint256 poolId, address account) internal view returns(bool) {\n        bool isNew = true;\n        for(uint i = 0; i < _liquidityProvs[poolId].length; i++) {\n            if(_liquidityProvs[poolId][i] == account) {\n                isNew = false;\n            }\n        }\n        return isNew;\n    }\n\n    function addLiquidity(uint256 poolId, uint256 token1Amt, uint256 token2Amt, uint256 maxTol) external validatePool(poolId) validateAmounts(token1Amt, token2Amt) payable returns(bool) {\n        Pool memory pool = pools[poolId - 1];\n        ISTC token1Contract = ISTC(pool.token1);\n        ISTC token2Contract = ISTC(pool.token2);\n        if(keccak256(abi.encodePacked(_tokenSymbols[pool.token1])) == keccak256(abi.encodePacked(_tokenSymbols[xdcTokenContract]))) {\n            require(msg.value == token1Amt, \"STB-SWAP_ERR1: attached deposit and XDC amount passed is not the same\");\n            uint256 token1Price = tokenPriceFromPool(poolId, pool.token1);\n            uint256 _token2Amt;\n            if( token1Price/ 100000 > 0) {\n                _token2Amt = (token1Price / 100000) * token1Amt;\n            }else{\n                _token2Amt = (token1Price * token1Amt) / 100000;\n            }\n            require(_token2Amt > 0, \"STB_-SWAP_ERR3: token price from pool is 0\");\n            require(_token2Amt <= maxTol, \"STB_-SWAP_ERR4: token amount due to pool is greater than max amount set from slippage\");\n            token2Contract.transferFrom(msg.sender, address(this), _token2Amt);\n            pools[poolId - 1].token1Liq = pool.token1Liq + token1Amt;\n            pools[poolId - 1].token2Liq = pool.token2Liq +_token2Amt;\n            pools[poolId - 1].token1Vol = pool.token1Vol + token1Amt;\n            pools[poolId - 1].token2Vol = pool.token2Vol +_token2Amt;\n            if(_isNotProvider(poolId, msg.sender)) {\n                _liquidityProvs[poolId].push(msg.sender);\n            }\n            if(pool.totalToken1Share > 0 ||  pool.totalToken2Share > 0) {\n                if(pool.totalToken1Share > 0 &&  pool.totalToken2Share > 0) {\n                    _sharesPerPool[poolId][msg.sender][0] +=  (token1Amt * pool.totalToken1Share)  / pool.token1Liq;\n                    _sharesPerPool[poolId][msg.sender][1] +=  (_token2Amt * pool.totalToken2Share) / pool.token2Liq;\n                    pools[poolId - 1].totalToken1Share += (token1Amt * pool.totalToken1Share)  / pool.token1Liq;\n                    pools[poolId - 1].totalToken2Share += (_token2Amt * pool.totalToken2Share) / pool.token2Liq;\n                }else{\n                    revert(\"STB-SWAP_ERR18: unexpected error with pool shares\");\n                }\n\n            }else{\n                _sharesPerPool[poolId][msg.sender][0] +=  1000000000000000000;\n                _sharesPerPool[poolId][msg.sender][1] +=  1000000000000000000;\n                pools[poolId - 1].totalToken1Share += 1000000000000000000;\n                pools[poolId - 1].totalToken2Share += 1000000000000000000; \n            } \n        }else {\n            if(keccak256(abi.encodePacked(_tokenSymbols[pool.token2])) == keccak256(abi.encodePacked(_tokenSymbols[xdcTokenContract]))) {\n                require(msg.value == token2Amt, \"STB-SWAP_ERR1: attached deposit and XDC amount passed is not the same\");\n                uint256 token2Price = tokenPriceFromPool(poolId, pool.token2);\n                uint256 _token1Amt;\n                if((token2Price / 100000) > 0) {\n                    _token1Amt = (token2Price / 100000) * token2Amt;\n                }else{\n                    _token1Amt = (token2Price * token2Amt) / 100000;\n                }\n                require(_token1Amt > 0, \"STB_-SWAP_ERR3: token price from pool is 0\");\n                require(_token1Amt <= maxTol, \"STB_-SWAP_ERR4: token amount due to pool is greater than max amount set from slippage\");\n                token1Contract.transferFrom(msg.sender, address(this), _token1Amt);\n                pools[poolId - 1].token1Liq = pool.token1Liq + _token1Amt;\n                pools[poolId - 1].token2Liq = pool.token2Liq + token2Amt;\n                pools[poolId - 1].token1Vol = pool.token1Vol + _token1Amt;\n                pools[poolId - 1].token2Vol = pool.token2Vol + token2Amt;\n                if(_isNotProvider(poolId, msg.sender)) {\n                    _liquidityProvs[poolId].push(msg.sender);\n                }\n                if(pool.totalToken1Share > 0 ||  pool.totalToken2Share > 0) {\n                    if(pool.totalToken1Share > 0 &&  pool.totalToken2Share > 0) {\n                        _sharesPerPool[poolId][msg.sender][0] +=  (_token1Amt * pool.totalToken1Share)  / pool.token1Liq;\n                        _sharesPerPool[poolId][msg.sender][1] +=  (token2Amt * pool.totalToken2Share) / pool.token2Liq;\n                        pools[poolId - 1].totalToken1Share +=  (_token1Amt * pool.totalToken1Share)  / pool.token1Liq;\n                        pools[poolId - 1].totalToken2Share += (token2Amt * pool.totalToken2Share) / pool.token2Liq;\n                    }else{\n                        revert(\"STB-SWAP_ERR18: unexpected error with pool shares\");\n                    }\n                }else{\n                    _sharesPerPool[poolId][msg.sender][0] +=  1000000000000000000;\n                    _sharesPerPool[poolId][msg.sender][1] +=  1000000000000000000;\n                    pools[poolId - 1].totalToken1Share += 1000000000000000000;\n                    pools[poolId - 1].totalToken2Share += 1000000000000000000; \n                } \n                \n            }else{\n                require(msg.value == 0, \"STB-SWAP_ERR2: attached deposit must be zero\");\n                uint256 token1Price = tokenPriceFromPool(poolId, pool.token1);\n                uint256 _token2Amt;\n                if((token1Price / 100000) > 0) {\n                   _token2Amt = (token1Price / 100000)  * token1Amt;\n                }else{\n                   _token2Amt = (token1Price * token1Amt) / 100000;\n                }\n                require(_token2Amt > 0, \"STB_-SWAP_ERR3: token price from pool is 0\");\n                require(_token2Amt <= maxTol, \"STB_-SWAP_ERR4: token amount due to pool is greater than max amount set from slippage\");\n                token1Contract.transferFrom(msg.sender, address(this), token1Amt);\n                token2Contract.transferFrom(msg.sender, address(this), _token2Amt);\n                pools[poolId - 1].token1Liq = pool.token1Liq + token1Amt;\n                pools[poolId - 1].token2Liq = pool.token2Liq +_token2Amt;\n                pools[poolId - 1].token1Vol = pool.token1Vol + token1Amt;\n                pools[poolId - 1].token2Vol = pool.token2Vol +_token2Amt;\n                if(_isNotProvider(poolId, msg.sender)) {\n                    _liquidityProvs[poolId].push(msg.sender);\n                }\n                if(pool.totalToken1Share > 0 ||  pool.totalToken2Share > 0) {\n                    if(pool.totalToken1Share > 0 &&  pool.totalToken2Share > 0) {\n                        _sharesPerPool[poolId][msg.sender][0] +=  (token1Amt * pool.totalToken1Share)  / pool.token1Liq;\n                        _sharesPerPool[poolId][msg.sender][1] +=  (_token2Amt * pool.totalToken2Share) / pool.token2Liq;\n                        pools[poolId - 1].totalToken1Share +=  (token1Amt * pool.totalToken1Share)  / pool.token1Liq;\n                        pools[poolId - 1].totalToken2Share += (_token2Amt * pool.totalToken2Share) / pool.token2Liq;\n                    }else{\n                        revert(\"STB-SWAP_ERR18: unexpected error with pool shares\");\n                    }\n                }else{\n                    _sharesPerPool[poolId][msg.sender][0] +=  1000000000000000000;\n                    _sharesPerPool[poolId][msg.sender][1] +=  1000000000000000000;\n                    pools[poolId - 1].totalToken1Share += 1000000000000000000;\n                    pools[poolId - 1].totalToken2Share += 1000000000000000000; \n                } \n            }\n        }\n        return true;\n    }\n\n\n    function shareAmountOut(uint256 poolId, address token, uint256 amount) public view returns(uint256) {\n        Pool memory pool = pools[poolId - 1];\n        address _token;\n        uint256 tokenTotalLiq;\n        uint totalTokenProf;\n        if(pool.token1 == token || pool.token2 == token) {\n            if(pool.token1 == token) {\n                _token = pool.token1;\n                tokenTotalLiq = pool.token1Liq;\n                totalTokenProf = pool.totalToken1Share;\n            }else{\n                _token = pool.token2;\n                tokenTotalLiq = pool.token2Liq;\n                totalTokenProf = pool.totalToken2Share;\n            }\n        }else{\n            revert(\"STB-SWAP_ERR3: token passed does not exist in pool\");\n        }\n        if(tokenTotalLiq > 0) {\n            uint256 amoutProfitRt = amount * 100000 / totalTokenProf;\n            return (amoutProfitRt * tokenTotalLiq) / 100000;\n        }else{\n            return amount;\n        }\n        \n    }\n\n\n    function _handleRemoveLiq(uint256 poolId, uint256 token1Amt, uint256 token2Amt, uint256 token1AmtOut, uint256 token2AmtOut) internal {\n        Pool memory pool = pools[poolId - 1];\n        ISTC token1Contract = ISTC(pool.token1);\n        ISTC token2Contract = ISTC(pool.token2);\n        pools[poolId -1].token1Liq = pool.token1Liq - token1AmtOut;\n        pools[poolId -1].token2Liq = pool.token2Liq - token2AmtOut;\n        _sharesPerPool[poolId][msg.sender][0] -= token1Amt;\n        _sharesPerPool[poolId][msg.sender][1] -= token2Amt;\n        pools[poolId -1].totalToken1Share = pool.totalToken1Share - token1Amt;\n        pools[poolId -1].totalToken2Share = pool.totalToken2Share - token2Amt;\n        if(keccak256(abi.encodePacked(_tokenSymbols[pool.token1])) == keccak256(abi.encodePacked(_tokenSymbols[xdcTokenContract]))) {\n            address payable receiver = payable(msg.sender);\n            receiver.transfer(token1AmtOut);\n            token2Contract.transfer(msg.sender, token2AmtOut);\n        }\n        if(keccak256(abi.encodePacked(_tokenSymbols[pool.token2])) == keccak256(abi.encodePacked(_tokenSymbols[xdcTokenContract]))) {\n            address payable receiver = payable(msg.sender);\n            receiver.transfer(token2AmtOut);\n            token1Contract.transfer(msg.sender, token1AmtOut);\n        }\n        if(keccak256(abi.encodePacked(_tokenSymbols[pool.token1])) != keccak256(abi.encodePacked(_tokenSymbols[xdcTokenContract])) && keccak256(abi.encodePacked(_tokenSymbols[pool.token2])) != keccak256(abi.encodePacked(_tokenSymbols[xdcTokenContract]))) {\n            token1Contract.transfer(msg.sender, token1AmtOut);\n            token2Contract.transfer(msg.sender, token2AmtOut);\n        }\n    }\n\n    function _removeLiquidity(uint256 poolId, uint256 token1Amt, uint256 token2Amt, uint256 minTol1, uint256 minTol2) internal {\n        Pool memory pool = pools[poolId - 1];\n        uint256 token1AmtOut = shareAmountOut(poolId, pool.token1, token1Amt);\n        uint256 _token2ShareOut = shareAmountOut(poolId, pool.token2, token2Amt);\n        uint token1price = tokenPriceFromPool(poolId, pool.token1);\n        uint256 token2AmtOut;\n        if((token1price / 100000) > 0) {\n            token2AmtOut = (token1price/ 100000) * token1AmtOut;\n        }else{\n            token2AmtOut = (token1price * token1AmtOut) / 100000;\n        }\n        require(_token2ShareOut == token2AmtOut, \"STB-SWAP_ERR19: Uexpected error due to token2 amout passed\"); \n        require(token2AmtOut >= minTol2, \"STB-SWAP_ERR4: token amount due to pool is lesser than minimum amount from slippage\");\n        require(token1AmtOut >= minTol1, \"STB-SWAP_ERR4: token amount due to pool is lesser than minimum amount from slippage\");\n        _handleRemoveLiq(poolId, token1Amt, token2Amt, token1AmtOut, token2AmtOut);\n        \n    }\n\n    function removeLiquidity(uint256 poolId, uint256 token1Amt, uint256 token2Amt, uint256 minTol1, uint256 minTol2) external validatePool(poolId) validateAmounts(token1Amt, token2Amt) validateProv(poolId, msg.sender) validateLiqBalance(poolId, msg.sender, token1Amt, token2Amt) returns(bool) {\n       _removeLiquidity(poolId, token1Amt, token2Amt, minTol1, minTol2);\n        return true;\n    }\n\n    function _handleProvsProf(uint256 poolId, uint256 totalTokenShare, uint256 totalCharges, bool inOrder) internal {\n        uint256 stbSwapProfit = ((stbSwapPerc / 100) * (totalCharges / 1000000000000000000)) / 1000000000000000000;\n        if(inOrder) {\n            _profitPerPool[poolId][address(this)][0] += stbSwapProfit;\n        }else{\n            _profitPerPool[poolId][address(this)][1] += stbSwapProfit;\n        }\n        uint256 totalPrvsProfit = (totalCharges/ 1000000000000000000) - stbSwapProfit;\n        for(uint i = 0; i < _liquidityProvs[poolId].length; i++) {\n            if(inOrder) {\n                uint256 profit = (totalPrvsProfit * _sharesPerPool[poolId][_liquidityProvs[poolId][i]][0]) / totalTokenShare;\n                _profitPerPool[poolId][_liquidityProvs[poolId][i]][0] += profit;\n            }else{\n                uint256 profit = (totalPrvsProfit * _sharesPerPool[poolId][_liquidityProvs[poolId][i]][1]) / totalTokenShare;\n                 _profitPerPool[poolId][_liquidityProvs[poolId][i]][1] += profit;\n            }\n             \n        }\n    }\n\n    function _trandferTokenFrom(address token, address account, uint256 amount) internal {\n        ISTC token2Contract = ISTC(token);\n        token2Contract.transferFrom(account, address(this), amount);\n    }\n\n    function swap(uint256 poolId, address tokenFrom, address tokenTo, uint256 amount, uint256 minTol) external validatePool(poolId) payable returns(bool) {\n        require(tokenFrom != tokenTo, \"STB-SWAP_ERR17: tokens cannot be the same\");\n        require(amount > 0, \"STB-SWAP_ERR15: amount cannot be zero(0)\");\n        Pool memory pool = pools[poolId - 1];\n        require(pool.token1 == tokenFrom || pool.token2 == tokenFrom, \"STB-SWAP_ERR5: Token passed does not exists in pool\");\n        require(pool.token1 == tokenTo || pool.token2 == tokenTo, \"STB-SWAP_ERR5: Token passed does not exists in pool\");\n        if(pool.token1 == xdcTokenContract || pool.token2 == xdcTokenContract) {\n            if(pool.token1 == xdcTokenContract) {\n                if(tokenFrom == xdcTokenContract) {\n                    require(msg.value == amount, \"STB-SWAP_ERR1: attached deposit and XDC amount passed is not the same\");\n                    uint256 totalCharges = amount * (pool.totalFee/ 100);\n                    uint256 amountAfterFee = amount - (totalCharges / 1000000000000000000);\n                    uint256 const = (pool.token1Liq * pool.token2Liq);\n                    uint newLiq = const / (amountAfterFee + pool.token1Liq);\n                    require(pool.token2Liq > newLiq, \"STB-SWAP_ERR6: Insufficient Liquidity\");\n                    uint256 amountOut = pool.token2Liq - newLiq;\n                    require(amountOut >= minTol, \"STB-SWAP_ERR4: token amount due to pool is lesser than minimum amount from slippage\");\n                    pools[poolId - 1].token1Liq = pool.token1Liq + amountAfterFee;\n                    pools[poolId - 1].token2Liq = newLiq;\n                    pools[poolId - 1].token1Vol = pool.token1Vol + amountAfterFee;\n                    pools[poolId - 1].token2Vol = pool.token2Vol + amountOut;\n                    ISTC token2Contract = ISTC(pool.token2);\n                    token2Contract.transfer(msg.sender, amountOut);\n                    _handleProvsProf(poolId, pool.totalToken1Share, totalCharges, true);\n                    emit TokenSwap(msg.sender, tokenFrom, tokenTo, amountAfterFee, amountOut);\n                }else{\n                    require(msg.value == 0, \"STB-SWAP_ERR2: attached deposit must be zero\");\n                    _trandferTokenFrom(pool.token2, msg.sender, amount);\n                    uint256 totalCharges = amount * (pool.totalFee / 100);\n                    uint256 amountAfterFee = amount - (totalCharges / 1000000000000000000);\n                    uint256 const = (pool.token2Liq * pool.token1Liq);\n                    uint newLiq = const / (amountAfterFee +  pool.token2Liq);\n                    require(pool.token1Liq > newLiq, \"STB-SWAP_ERR6: Insufficient Liquidity\");\n                    uint256 amountOut = pool.token1Liq - newLiq;\n                    require(amountOut >= minTol, \"STB-SWAP_ERR4: token amount due to pool is lesser than minimum amount from slippage\");\n                    pools[poolId - 1].token2Liq = pool.token2Liq + amountAfterFee;\n                    pools[poolId - 1].token1Liq = newLiq;\n                    pools[poolId - 1].token2Vol = pool.token2Vol + amountAfterFee;\n                    pools[poolId - 1].token1Vol = pool.token1Vol + amountOut;\n                    address payable receiver = payable(msg.sender);\n                    receiver.transfer(amountOut);\n                    _handleProvsProf(poolId, pool.totalToken2Share, totalCharges, false);\n                    emit TokenSwap(msg.sender, tokenFrom, tokenTo, amountAfterFee, amountOut);\n                }\n            }else{\n                if(tokenFrom == xdcTokenContract) {\n                    require(msg.value == amount, \"STB-SWAP_ERR1: attached deposit and XDC amount passed is not the same\");\n                    uint256 totalCharges = amount * (pool.totalFee / 100);\n                    uint256 amountAfterFee = amount - (totalCharges / 1000000000000000000);\n                    uint256 const = (pool.token2Liq *pool.token1Liq);\n                    uint newLiq = const / (amountAfterFee + pool.token2Liq);\n                    require(pool.token1Liq > newLiq, \"STB-SWAP_ERR6: Insufficient Liquidity\");\n                    uint256 amountOut = pool.token1Liq - newLiq;\n                    require(amountOut >= minTol, \"STB-SWAP_ERR4: token amount due to pool is lesser than minimum amount from slippage\");\n                    pools[poolId - 1].token2Liq = pool.token2Liq + amountAfterFee;\n                    pools[poolId - 1].token1Liq = newLiq;\n                    pools[poolId - 1].token2Vol = pool.token2Vol + amountAfterFee;\n                    pools[poolId - 1].token1Vol = pool.token1Vol + amountOut;\n                    ISTC token1Contract = ISTC(pool.token1);\n                    token1Contract.transfer(msg.sender, amountOut);\n                    _handleProvsProf(poolId, pool.totalToken2Share, totalCharges, false);\n                    emit TokenSwap(msg.sender, tokenFrom, tokenTo, amountAfterFee, amountOut);\n                \n                }else{\n                require(msg.value == 0, \"STB-SWAP_ERR2: attached deposit must be zero\");\n                    _trandferTokenFrom(pool.token1, msg.sender, amount);\n                    uint256 totalCharges = amount * (pool.totalFee/ 100);\n                    uint256 amountAfterFee = amount - (totalCharges / 1000000000000000000);\n                    uint256 const = (pool.token1Liq  * pool.token2Liq);\n                    uint newLiq = const / (amountAfterFee + pool.token1Liq);\n                    require(pool.token2Liq > newLiq, \"STB-SWAP_ERR6: Insufficient Liquidity\");\n                    uint256 amountOut = pool.token2Liq - newLiq;\n                    require(amountOut >= minTol, \"STB-SWAP_ERR4: token amount due to pool is lesser than minimum amount from slippage\");\n                    pools[poolId - 1].token1Liq = pool.token1Liq + amountAfterFee;\n                    pools[poolId - 1].token2Liq = newLiq;\n                    pools[poolId - 1].token1Vol = pool.token1Vol + amountAfterFee;\n                    pools[poolId - 1].token2Vol = pool.token2Vol + amountOut;\n                    address payable receiver = payable(msg.sender);\n                    receiver.transfer(amountOut);\n                    _handleProvsProf(poolId, pool.totalToken1Share, totalCharges, true);\n                    emit TokenSwap(msg.sender, tokenFrom, tokenTo, amountAfterFee, amountOut);\n                }\n            }\n        }else{\n            require(msg.value == 0, \"STB-SWAP_ERR2: attached deposit must be zero\");\n            if(tokenFrom == pool.token1 ) {\n                _trandferTokenFrom(pool.token1, msg.sender, amount);\n                uint256 totalCharges = amount * (pool.totalFee/ 100);\n                uint256 amountAfterFee = amount - (totalCharges / 1000000000000000000);\n                uint256 const = (pool.token1Liq  * pool.token2Liq);\n                uint newLiq = const / (amountAfterFee + pool.token1Liq);\n                require(pool.token2Liq > newLiq, \"STB-SWAP_ERR6: Insufficient Liquidity\");\n                uint256 amountOut = pool.token2Liq - newLiq;\n                require(amountOut >= minTol, \"STB-SWAP_ERR4: token amount due to pool is lesser than minimum amount from slippage\");\n                pools[poolId - 1].token1Liq = pool.token1Liq + amountAfterFee;\n                pools[poolId - 1].token2Liq = newLiq;\n                pools[poolId - 1].token1Vol = pool.token1Vol + amountAfterFee;\n                pools[poolId - 1].token2Vol = pool.token2Vol + amountOut;\n                ISTC token2Contract = ISTC(pool.token2);\n                token2Contract.transfer(msg.sender, amountOut);\n                _handleProvsProf(poolId, pool.totalToken1Share, totalCharges, true);\n                emit TokenSwap(msg.sender, tokenFrom, tokenTo, amountAfterFee, amountOut);\n            }else{\n                _trandferTokenFrom(pool.token2, msg.sender, amount);\n                uint256 totalCharges = amount * (pool.totalFee/ 100);\n                uint256 amountAfterFee = amount - (totalCharges / 1000000000000000000);\n                uint256 const = (pool.token2Liq  * pool.token1Liq);\n                uint newLiq = const / (amountAfterFee + pool.token2Liq);\n                require(pool.token1Liq > newLiq, \"STB-SWAP_ERR6: Insufficient Liquidity\");\n                uint256 amountOut = pool.token1Liq - newLiq;\n                require(amountOut >= minTol, \"STB-SWAP_ERR4: token amount due to pool is lesser than minimum amount from slippage\");\n                pools[poolId - 1].token2Liq = pool.token2Liq + amountAfterFee;\n                pools[poolId - 1].token1Liq = newLiq;\n                pools[poolId - 1].token2Vol = pool.token2Vol + amountAfterFee;\n                pools[poolId - 1].token1Vol = pool.token1Vol + amountOut;\n                ISTC token1Contract = ISTC(pool.token1);\n                token1Contract.transfer(msg.sender, amountOut);\n                _handleProvsProf(poolId, pool.totalToken2Share, totalCharges, false);\n                emit TokenSwap(msg.sender, tokenFrom, tokenTo, amountAfterFee, amountOut);\n            }\n        }\n        return true;\n    }\n\n    function listToken(address token, string memory tokenSymbol) external validateAddress(token) isOwner() returns(bool) {\n        require(keccak256(abi.encodePacked(_tokenSymbols[token])) == keccak256(abi.encodePacked(\"\")), \"STB-SWAP_ERR20: token selected is already listed\");\n        _tokenSymbols[token] = tokenSymbol;\n        listedTokens.push(token);\n        emit Welcoming(address(this), token, block.timestamp);\n        return true;\n    }\n\n    function delistToken(address token) external validateAddress(token) isOwner() returns(bool) {\n       require(keccak256(abi.encodePacked(_tokenSymbols[token])) != keccak256(abi.encodePacked(\"\")), \"STB-SWAP_ERR12: token selected is not listed\");\n        delete _tokenSymbols[token];\n        uint256 index;\n        for(uint i = 0; i < listedTokens.length; i++) {\n           if(listedTokens[i] == token) {\n               index = i;\n           }\n        }\n        for (uint i = index; i < listedTokens.length - 1; i++) {\n                listedTokens[i] = listedTokens[i + 1];\n            }\n        listedTokens.pop();\n        emit Blacklisting(address(this), token, block.timestamp);\n        return true;\n    }\n\n    function updateMaxFee(uint256 newMax) external isOwner() {\n        require(newMax > 0, \"STB-SWAP_ERR10: amount cannot be zero\");\n        maxFee = newMax;\n    }\n\n    function updateStbSwapPerc(uint256 newPerc) external isOwner() {\n        require(newPerc > 0, \"STB-SWAP_ERR10: amount cannot be zero\");\n        stbSwapPerc = newPerc;\n    }\n\n    function authorize(address account) external isOwner() validateAddress(account){\n        _isAuthorized[account] = true;\n    }\n\n    function unauthorize(address account) external isOwner() {\n        require(account != _owner, \"STB-SWAP_ERR16: can unathorize contract owner\");\n        delete _isAuthorized[account];\n    } \n\n   \n\n}",
  "sourcePath": "/home/mohzcrea9me/onynx/stb-onynx-hackathon/src/backend/contracts/StbSwap.sol",
  "compiler": {
    "name": "solc",
    "version": "0.8.17+commit.8df45f5f.Emscripten.clang"
  },
  "schemaVersion": "3.4.11",
  "updatedAt": "2023-10-08T21:52:30.295Z",
  "devdoc": {
    "kind": "dev",
    "methods": {},
    "version": 1
  },
  "userdoc": {
    "kind": "user",
    "methods": {},
    "version": 1
  }
}